{"abi":[{"type":"constructor","inputs":[{"name":"underlying_","type":"address","internalType":"address"}],"stateMutability":"nonpayable"},{"type":"function","name":"allowance","inputs":[{"name":"owner_","type":"address","internalType":"address"},{"name":"spender","type":"address","internalType":"address"}],"outputs":[{"name":"","type":"bytes32","internalType":"euint64"}],"stateMutability":"view"},{"type":"function","name":"approve","inputs":[{"name":"spender","type":"address","internalType":"address"},{"name":"encExtAmount","type":"bytes32","internalType":"externalEuint64"},{"name":"inputProof","type":"bytes","internalType":"bytes"}],"outputs":[],"stateMutability":"nonpayable"},{"type":"function","name":"balanceOf","inputs":[{"name":"account","type":"address","internalType":"address"}],"outputs":[{"name":"","type":"bytes32","internalType":"euint64"}],"stateMutability":"view"},{"type":"function","name":"claimUnwrap","inputs":[{"name":"unwrapId","type":"uint256","internalType":"uint256"},{"name":"plainAmount","type":"uint64","internalType":"uint64"},{"name":"decryptionProof","type":"bytes","internalType":"bytes"}],"outputs":[],"stateMutability":"nonpayable"},{"type":"function","name":"confidentialProtocolId","inputs":[],"outputs":[{"name":"","type":"uint256","internalType":"uint256"}],"stateMutability":"view"},{"type":"function","name":"decimals","inputs":[],"outputs":[{"name":"","type":"uint8","internalType":"uint8"}],"stateMutability":"view"},{"type":"function","name":"name","inputs":[],"outputs":[{"name":"","type":"string","internalType":"string"}],"stateMutability":"view"},{"type":"function","name":"nextUnwrapId","inputs":[],"outputs":[{"name":"","type":"uint256","internalType":"uint256"}],"stateMutability":"view"},{"type":"function","name":"pendingUnwrap","inputs":[{"name":"unwrapId","type":"uint256","internalType":"uint256"}],"outputs":[{"name":"recipient","type":"address","internalType":"address"},{"name":"encAmount","type":"bytes32","internalType":"euint64"},{"name":"resolved","type":"bool","internalType":"bool"}],"stateMutability":"view"},{"type":"function","name":"requestUnwrap","inputs":[{"name":"encExtAmount","type":"bytes32","internalType":"externalEuint64"},{"name":"inputProof","type":"bytes","internalType":"bytes"},{"name":"recipient","type":"address","internalType":"address"}],"outputs":[{"name":"unwrapId","type":"uint256","internalType":"uint256"}],"stateMutability":"nonpayable"},{"type":"function","name":"symbol","inputs":[],"outputs":[{"name":"","type":"string","internalType":"string"}],"stateMutability":"view"},{"type":"function","name":"transferEncrypted","inputs":[{"name":"to","type":"address","internalType":"address"},{"name":"encAmount","type":"bytes32","internalType":"euint64"}],"outputs":[{"name":"","type":"bytes32","internalType":"euint64"}],"stateMutability":"nonpayable"},{"type":"function","name":"transferEncryptedExternal","inputs":[{"name":"to","type":"address","internalType":"address"},{"name":"encExtAmount","type":"bytes32","internalType":"externalEuint64"},{"name":"inputProof","type":"bytes","internalType":"bytes"}],"outputs":[{"name":"","type":"bytes32","internalType":"euint64"}],"stateMutability":"nonpayable"},{"type":"function","name":"transferFromAllowance","inputs":[{"name":"from","type":"address","internalType":"address"},{"name":"to","type":"address","internalType":"address"}],"outputs":[{"name":"","type":"bytes32","internalType":"euint64"}],"stateMutability":"nonpayable"},{"type":"function","name":"underlying","inputs":[],"outputs":[{"name":"","type":"address","internalType":"contract IERC20"}],"stateMutability":"view"},{"type":"function","name":"wrap","inputs":[{"name":"amount","type":"uint64","internalType":"uint64"}],"outputs":[],"stateMutability":"nonpayable"},{"type":"event","name":"ApprovalEncrypted","inputs":[{"name":"owner","type":"address","indexed":true,"internalType":"address"},{"name":"spender","type":"address","indexed":true,"internalType":"address"}],"anonymous":false},{"type":"event","name":"PublicDecryptionVerified","inputs":[{"name":"handlesList","type":"bytes32[]","indexed":false,"internalType":"bytes32[]"},{"name":"abiEncodedCleartexts","type":"bytes","indexed":false,"internalType":"bytes"}],"anonymous":false},{"type":"event","name":"TransferEncrypted","inputs":[{"name":"from","type":"address","indexed":true,"internalType":"address"},{"name":"to","type":"address","indexed":true,"internalType":"address"}],"anonymous":false},{"type":"event","name":"UnwrapClaimed","inputs":[{"name":"unwrapId","type":"uint256","indexed":true,"internalType":"uint256"},{"name":"recipient","type":"address","indexed":true,"internalType":"address"},{"name":"amount","type":"uint64","indexed":false,"internalType":"uint64"}],"anonymous":false},{"type":"event","name":"UnwrapRequested","inputs":[{"name":"unwrapId","type":"uint256","indexed":true,"internalType":"uint256"},{"name":"recipient","type":"address","indexed":true,"internalType":"address"},{"name":"handle","type":"bytes32","indexed":false,"internalType":"bytes32"}],"anonymous":false},{"type":"event","name":"Wrapped","inputs":[{"name":"from","type":"address","indexed":true,"internalType":"address"},{"name":"amount","type":"uint256","indexed":false,"internalType":"uint256"}],"anonymous":false},{"type":"error","name":"AlreadyResolved","inputs":[]},{"type":"error","name":"InvalidKMSSignatures","inputs":[]},{"type":"error","name":"NotPending","inputs":[]},{"type":"error","name":"SafeERC20FailedOperation","inputs":[{"name":"token","type":"address","internalType":"address"}]},{"type":"error","name":"SenderNotAllowedToUseHandle","inputs":[{"name":"handle","type":"bytes32","internalType":"bytes32"},{"name":"sender","type":"address","internalType":"address"}]},{"type":"error","name":"ZamaProtocolUnsupported","inputs":[]},{"type":"error","name":"ZeroAddress","inputs":[]},{"type":"error","name":"ZeroAmount","inputs":[]}],"bytecode":{"object":"0x60a06040523461028457604051601f6117a038819003918201601f19168301916001600160401b038311848410176102885780849260209460405283398101031261028457516001600160a01b038116908190036102845761005f6102bb565b50466001036101a0576100706102bb565b5061007961029c565b73ca2e8f1f656cd25c01f05d0b243ab1ecd4a8ffb6815273d82385dada1ae3e969447f20a3164f6213100e7560208201527377627828a55156b04ac0dc0eb30467f1a552bb0360408201525b80517f9e7b61f58c47dc699ac88507c4f5bb9f121c03808c5676a8078fe583e464970080546001600160a01b03199081166001600160a01b039384161790915560208301517f9e7b61f58c47dc699ac88507c4f5bb9f121c03808c5676a8078fe583e4649701805483169184169190911790556040909201517f9e7b61f58c47dc699ac88507c4f5bb9f121c03808c5676a8078fe583e4649702805490931691161790558015610191576080526040516114ca90816102d6823960805181818161061e01526107a50152f35b63d92e233d60e01b5f5260045ffd5b4662aa36a70361020b576101b26102bb565b506101bb61029c565b73f0ffdc93b7e186bc2f8cb3daa75d86d1930a433d81527392c920834ec8941d2c77d188936e1f7a6f49c127602082015273be0e383937d564d7ff0bc3b46c51f0bf8d5c311a60408201526100c5565b46617a69036102755761021c6102bb565b5061022561029c565b7350157cffd6bbfa2dece204a89ec419c23ef5755d815273e3a9105a3a932253a70f126eb1e3b589c643dd24602082015273901f8942346f7ab3a01f6d7613119bca447bb03060408201526100c5565b6373cac13b60e01b5f5260045ffd5b5f80fd5b634e487b7160e01b5f52604160045260245ffd5b60405190606082016001600160401b0381118382101761028857604052565b6102c361029c565b905f82525f60208301525f604083015256fe60806040526004361015610011575f80fd5b5f5f3560e01c806306fdde0314610ab5578063170856b514610a8e578063313ce56714610a73578063323a9674146109745780634599ce841461094a57806351c2c786146108fb57806352a7c9bf146107c95780636f307dc31461078657806370a082311461074f578063829d94ae146107325780638927b0301461071057806395d89b41146106ad578063aae4440614610401578063b32c10011461036d578063d17006d61461011a5763dd62ed3e146100ca575f80fd5b34610117576040366003190112610117576001600160a01b0360406100ed610b5a565b92826100f7610b70565b9416815260016020522091165f52602052602060405f2054604051908152f35b80fd5b346103225760603660031901126103225760243567ffffffffffffffff81116103225761014b903690600401610b86565b604435916001600160a01b03831680930361032257821561035e5761017861018091610186933691610c4e565b600435611115565b33610cb5565b906101918233610ef8565b600354905f19821461034a57600182016003556040516060810181811067ffffffffffffffff821117610336576040528181526002602082019185835260408101925f8452855f52826020526001600160a01b0360405f209251167fffffffffffffffffffffffff0000000000000000000000000000000000000000835416178255516001820155019051151560ff80198354169116179055610233836110cc565b5082908315610326575b60409182519061024d8483610b14565b60018252601f19840136602084013761026582610c94565b526001600160a01b037f9e7b61f58c47dc699ac88507c4f5bb9f121c03808c5676a8078fe583e46497005416803b15610322578351637d6e912360e11b815260206004820152915f9183918290849082906102c490602483019061130a565b03925af18015610318576020809686937f836a047ea88a76c1301d98620e22b2b80e58b7524436f7732b530d0e0e0b0e6393610308575b508551908152a351908152f35b5f61031291610b14565b5f6102fb565b83513d5f823e3d90fd5b5f80fd5b9050610330611426565b9061023d565b634e487b7160e01b5f52604160045260245ffd5b634e487b7160e01b5f52601160045260245ffd5b63d92e233d60e01b5f5260045ffd5b346103225761037b36610bb4565b9192906001600160a01b03821693841561035e576103a16103a7926103d9953691610c4e565b90611115565b335f52600160205260405f20845f526020528060405f20556103c8816110cc565b506103d333826110ee565b506110ee565b50337f46f92913a39019d68e630493d23e0cf39761bf253f7b3f8eae384b33e393ed4e5f80a3005b34610322576060366003190112610322576004356024359067ffffffffffffffff82168092036103225760443567ffffffffffffffff81116103225761044b903690600401610b86565b825f52600260205260405f20936001600160a01b038554161561069e57600285019260ff84541661068f576040955f60206105436104c88a519561048f8c88610b14565b60018752601f198c01368589013760018601546104ab88610c94565b528b519888858b0152848a526104c18d8b610b14565b3691610c4e565b6001600160a01b037f9e7b61f58c47dc699ac88507c4f5bb9f121c03808c5676a8078fe583e46497025416908b519485809481936378542ead60e01b8352606060048401526105318d61051f8d606487019061130a565b85810360031901602487015290610b36565b83810360031901604485015290610b36565b03925af1908115610685575f91610656575b5015610647577f7ef6737bd6cef14effab88bbc1f5563dd1a29ade10c925e73920b98bd447d349947fc6366bab028b8d033cb362cfd1f2f3457ef4e92fc738b6788b90d5a7846367a06001600160a01b0393896105ce6020986105c1835194848695865285019061130a565b908382038b850152610b36565b0390a1805460ff19166001179055826105ec575b54169451908152a3005b6106428282541688519063a9059cbb60e01b8783015260248201528460448201526044815261061c606482610b14565b7f00000000000000000000000000000000000000000000000000000000000000006113d2565b6105e2565b63cf6c44e960e01b5f5260045ffd5b610678915060203d60201161067e575b6106708183610b14565b8101906113ba565b88610555565b503d610666565b88513d5f823e3d90fd5b6336ab81e160e11b5f5260045ffd5b633ee3282d60e11b5f5260045ffd5b34610322575f3660031901126103225761070c6040516106ce604082610b14565b600581527f63555344430000000000000000000000000000000000000000000000000000006020820152604051918291602083526020830190610b36565b0390f35b34610322575f36600319011261032257602061072a6112db565b604051908152f35b34610322575f366003190112610322576020600354604051908152f35b34610322576020366003190112610322576001600160a01b03610770610b5a565b165f525f602052602060405f2054604051908152f35b34610322575f3660031901126103225760206040516001600160a01b037f0000000000000000000000000000000000000000000000000000000000000000168152f35b346103225760203660031901126103225760043567ffffffffffffffff81168091036103225780156108ec576108296040516323b872dd60e01b60208201523360248201523060448201528260648201526064815261061c608482610b14565b5f5160206114755f395f51905f5254604051639cd07acb60e01b815260048101839052906001600160a01b0316816044815f602094600560248401525af180156108e1575f906108ad575b61087f915033610f48565b6040519081527f4700c1726b4198077cd40320a32c45265a1910521eb0ef713dd1d8412413d7fc60203392a2005b506020813d6020116108d9575b816108c760209383610b14565b810103126103225761087f9051610874565b3d91506108ba565b6040513d5f823e3d90fd5b631f2a200560e01b5f5260045ffd5b34610322576020366003190112610322576004355f526002602052606060405f206001600160a01b038154169060ff600260018301549201541690604051928352602083015215156040820152f35b3461032257602061072a6103a161096e61096336610bb4565b949192943691610c4e565b90610bfb565b346103225760403660031901126103225761098d610b5a565b610995610b70565b906001600160a01b03821691821561035e57602092610a3c6109f6610a3193610a376001600160a01b03871696875f526001895260405f206001600160a01b0333165f52895260405f2054906109eb8282610cb5565b978895868094611047565b8a5f5260018c5260405f206001600160a01b0333165f528c528060405f2055610a1e816110cc565b50610a2983826110ee565b5033906110ee565b50610ef8565b610f48565b610a4633836110ee565b50604051927f7612539b010127d1a2f810eeff1131de23a28ecfa8228f92a9606a879300fbb55f80a38152f35b34610322575f36600319011261032257602060405160068152f35b3461032257604036600319011261032257602061072a610aac610b5a565b60243590610bfb565b34610322575f3660031901126103225761070c604051610ad6604082610b14565b601181527f436f6e666964656e7469616c20555344430000000000000000000000000000006020820152604051918291602083526020830190610b36565b90601f8019910116810190811067ffffffffffffffff82111761033657604052565b805180835260209291819084018484015e5f828201840152601f01601f1916010190565b600435906001600160a01b038216820361032257565b602435906001600160a01b038216820361032257565b9181601f840112156103225782359167ffffffffffffffff8311610322576020838186019501011161032257565b6060600319820112610322576004356001600160a01b03811681036103225791602435916044359067ffffffffffffffff821161032257610bf791600401610b86565b9091565b906001600160a01b03821690811561035e57610c1a610c269133610cb5565b8093610a378233610ef8565b337f7612539b010127d1a2f810eeff1131de23a28ecfa8228f92a9606a879300fbb55f80a390565b92919267ffffffffffffffff82116103365760405191610c78601f8201601f191660200184610b14565b829481845281830111610322578281602093845f960137010152565b805115610ca15760200190565b634e487b7160e01b5f52603260045260245ffd5b6001600160a01b031690815f525f60205260405f2054918215610ed1575b5081819282159182610ec1575b80159182610eaf575b60209060646001600160a01b035f5160206114755f395f51905f525416975f604051998a948593631d44e90160e21b8552600485015260248401528160448401525af19485156108e1575f95610e7b575b5092918415610df6575b610de6575b610dd0575b6064602092935f6001600160a01b035f5160206114755f395f51905f5254166040519687958694637702dcff60e01b86526004860152602485015260448401525af19081156108e1575f91610da1575090565b90506020813d602011610dc8575b81610dbc60209383610b14565b81010312610322575190565b3d9150610daf565b602091506064610dde611426565b925050610d4e565b9050610df0611426565b90610d49565b5f5160206114755f395f51905f5254604051639cd07acb60e01b81525f60048201529195506001600160a01b0316816044815f6020948160248401525af19081156108e1575f91610e49575b5093610d44565b90506020813d602011610e73575b81610e6460209383610b14565b8101031261032257515f610e42565b3d9150610e57565b9094506020813d602011610ea7575b81610e9760209383610b14565b810103126103225751935f610d3a565b3d9150610e8a565b506020610eba611426565b9050610ce9565b9350610ecb611426565b93610ce0565b9150610edb611426565b915f525f6020528160405f2055610ef1826110cc565b505f610cd3565b610f3791610f216001600160a01b03831691825f525f60205260405f20548015610f3a57611047565b905f525f6020528060405f20556103d3816110cc565b50565b50610f43611426565b611047565b6001600160a01b038116805f525f60205260405f2054928315611037575b808415611027575b15611015575b60209060646001600160a01b035f5160206114755f395f51905f525416955f604051978894859363022f65e760e31b8552600485015260248401528160448401525af19081156108e1575f91610fdf575b610f3793505f525f6020528060405f20556103d3816110cc565b90506020833d60201161100d575b81610ffa60209383610b14565b8101031261032257610f37925190610fc5565b3d9150610fed565b506020611020611426565b9050610f74565b9350611031611426565b93610f6e565b9250611041611426565b92610f66565b9081156110bc575b80156110aa575b60209060646001600160a01b035f5160206114755f395f51905f525416935f60405195869485936303056db360e31b8552600485015260248401528160448401525af19081156108e1575f91610da1575090565b5060206110b5611426565b9050611056565b90506110c6611426565b9061104f565b80156110e0575b6110dd308261133d565b90565b506110e9611426565b6110d3565b908115611100575b6110dd908261133d565b90506110dd61110d611426565b9190506110f6565b81519091901561122d5760209061116f926001600160a01b035f5160206114755f395f51905f525416905f60405180968195829463045fc19560e11b84526004840152336024840152608060448401526084830190610b36565b6005606483015203925af19081156108e1575f916111fb575b506001600160a01b037f9e7b61f58c47dc699ac88507c4f5bb9f121c03808c5676a8078fe583e46497005416803b1561032257604051630f8e573b60e21b815260048101839052336024820152905f908290604490829084905af180156108e1576111f1575090565b5f6110dd91610b14565b90506020813d602011611225575b8161121660209383610b14565b8101031261032257515f611188565b3d9150611209565b5080156112d2577f9e7b61f58c47dc699ac88507c4f5bb9f121c03808c5676a8078fe583e4649700546040516382027b6d60e01b81526004810183905233602482015290602090829060449082906001600160a01b03165afa9081156108e1575f916112b3575b501561129d5790565b630276b5d960e01b5f526004523360245260445ffd5b6112cc915060203d60201161067e576106708183610b14565b5f611294565b506110dd611426565b466001036112e857600190565b4662aa36a7036112f85761271190565b617a694614611305575f90565b5f1990565b90602080835192838152019201905f5b8181106113275750505090565b825184526020938401939092019160010161131a565b6001600160a01b037f9e7b61f58c47dc699ac88507c4f5bb9f121c03808c5676a8078fe583e4649700541691823b1561032257604051635ca4b5b160e11b815260048101929092526001600160a01b03166024820152905f908290604490829084905af180156108e1576113ae5750565b5f6113b891610b14565b565b90816020910312610322575180151581036103225790565b905f602091828151910182855af1156108e1575f513d61141d57506001600160a01b0381163b155b6114015750565b6001600160a01b0390635274afe760e01b5f521660045260245ffd5b600114156113fa565b5f5160206114755f395f51905f5254604051639cd07acb60e01b81525f6004820152906001600160a01b0316816044815f602094600560248401525af19081156108e1575f91610da157509056fe9e7b61f58c47dc699ac88507c4f5bb9f121c03808c5676a8078fe583e4649701a2646970667358221220e754db916011dc9894e2561984865fc9a3044e7a9f6d0d53f66e080cb6ee138764736f6c634300081b0033","linkReferences":{}},"methodIdentifiers":{"allowance(address,address)":"dd62ed3e","approve(address,bytes32,bytes)":"b32c1001","balanceOf(address)":"70a08231","claimUnwrap(uint256,uint64,bytes)":"aae44406","confidentialProtocolId()":"8927b030","decimals()":"313ce567","name()":"06fdde03","nextUnwrapId()":"829d94ae","pendingUnwrap(uint256)":"51c2c786","requestUnwrap(bytes32,bytes,address)":"d17006d6","symbol()":"95d89b41","transferEncrypted(address,bytes32)":"170856b5","transferEncryptedExternal(address,bytes32,bytes)":"4599ce84","transferFromAllowance(address,address)":"323a9674","underlying()":"6f307dc3","wrap(uint64)":"52a7c9bf"},"id":91}