{"abi":[{"type":"constructor","inputs":[{"name":"cusdc","type":"address","internalType":"address"},{"name":"treasury_","type":"address","internalType":"address"}],"stateMutability":"nonpayable"},{"type":"function","name":"auctionCount","inputs":[],"outputs":[{"name":"","type":"uint256","internalType":"uint256"}],"stateMutability":"view"},{"type":"function","name":"bidCount","inputs":[{"name":"auctionId","type":"uint256","internalType":"uint256"}],"outputs":[{"name":"","type":"uint256","internalType":"uint256"}],"stateMutability":"view"},{"type":"function","name":"cUSDC","inputs":[],"outputs":[{"name":"","type":"address","internalType":"contract IConfidentialUSDC"}],"stateMutability":"view"},{"type":"function","name":"confidentialProtocolId","inputs":[],"outputs":[{"name":"","type":"uint256","internalType":"uint256"}],"stateMutability":"view"},{"type":"function","name":"createAuctionItem","inputs":[{"name":"itemName","type":"string","internalType":"string"},{"name":"itemDescription","type":"string","internalType":"string"},{"name":"minBidPlain","type":"uint64","internalType":"uint64"},{"name":"durationSeconds","type":"uint64","internalType":"uint64"}],"outputs":[{"name":"auctionId","type":"uint256","internalType":"uint256"}],"stateMutability":"payable"},{"type":"function","name":"createAuctionToken","inputs":[{"name":"itemName","type":"string","internalType":"string"},{"name":"itemDescription","type":"string","internalType":"string"},{"name":"tokenX","type":"address","internalType":"address"},{"name":"supply","type":"uint256","internalType":"uint256"},{"name":"minBidPlain","type":"uint64","internalType":"uint64"},{"name":"durationSeconds","type":"uint64","internalType":"uint64"}],"outputs":[{"name":"auctionId","type":"uint256","internalType":"uint256"}],"stateMutability":"payable"},{"type":"function","name":"endAuction","inputs":[{"name":"auctionId","type":"uint256","internalType":"uint256"}],"outputs":[],"stateMutability":"nonpayable"},{"type":"function","name":"finalizeAuctionItem","inputs":[{"name":"auctionId","type":"uint256","internalType":"uint256"},{"name":"winner","type":"address","internalType":"address"},{"name":"winningAmount","type":"uint64","internalType":"uint64"},{"name":"decryptionProof","type":"bytes","internalType":"bytes"}],"outputs":[],"stateMutability":"nonpayable"},{"type":"function","name":"finalizeAuctionToken","inputs":[{"name":"auctionId","type":"uint256","internalType":"uint256"},{"name":"prices","type":"uint64[]","internalType":"uint64[]"},{"name":"qtys","type":"uint64[]","internalType":"uint64[]"},{"name":"decryptionProof","type":"bytes","internalType":"bytes"}],"outputs":[],"stateMutability":"nonpayable"},{"type":"function","name":"getAuction","inputs":[{"name":"auctionId","type":"uint256","internalType":"uint256"}],"outputs":[{"name":"","type":"tuple","internalType":"struct SilentBidAuction.Auction","components":[{"name":"mode","type":"uint8","internalType":"enum SilentBidAuction.Mode"},{"name":"seller","type":"address","internalType":"address"},{"name":"itemName","type":"string","internalType":"string"},{"name":"itemDescription","type":"string","internalType":"string"},{"name":"tokenX","type":"address","internalType":"address"},{"name":"totalSupply","type":"uint256","internalType":"uint256"},{"name":"minBidPlain","type":"uint64","internalType":"uint64"},{"name":"minBidEnc","type":"bytes32","internalType":"euint64"},{"name":"endTime","type":"uint64","internalType":"uint64"},{"name":"ended","type":"bool","internalType":"bool"},{"name":"finalized","type":"bool","internalType":"bool"},{"name":"runningHighestBid","type":"bytes32","internalType":"euint64"},{"name":"runningHighestBidder","type":"bytes32","internalType":"eaddress"},{"name":"winnerPlain","type":"address","internalType":"address"},{"name":"winningAmountPlain","type":"uint64","internalType":"uint64"},{"name":"clearingPricePlain","type":"uint64","internalType":"uint64"},{"name":"unsoldReturned","type":"uint256","internalType":"uint256"},{"name":"gasDeposit","type":"uint256","internalType":"uint256"}]}],"stateMutability":"view"},{"type":"function","name":"getBid","inputs":[{"name":"auctionId","type":"uint256","internalType":"uint256"},{"name":"idx","type":"uint256","internalType":"uint256"}],"outputs":[{"name":"bidder","type":"address","internalType":"address"},{"name":"encPriceHandle","type":"bytes32","internalType":"bytes32"},{"name":"encQtyHandle","type":"bytes32","internalType":"bytes32"},{"name":"encEscrowHandle","type":"bytes32","internalType":"bytes32"},{"name":"settled","type":"bool","internalType":"bool"},{"name":"allocatedTokenX","type":"uint256","internalType":"uint256"},{"name":"refundedCUSDC","type":"uint64","internalType":"uint64"}],"stateMutability":"view"},{"type":"function","name":"hasBid","inputs":[{"name":"","type":"uint256","internalType":"uint256"},{"name":"","type":"address","internalType":"address"}],"outputs":[{"name":"","type":"bool","internalType":"bool"}],"stateMutability":"view"},{"type":"function","name":"nextAuctionId","inputs":[],"outputs":[{"name":"","type":"uint256","internalType":"uint256"}],"stateMutability":"view"},{"type":"function","name":"placeBid","inputs":[{"name":"auctionId","type":"uint256","internalType":"uint256"},{"name":"encExtPrice","type":"bytes32","internalType":"externalEuint64"},{"name":"encExtQty","type":"bytes32","internalType":"externalEuint64"},{"name":"priceProof","type":"bytes","internalType":"bytes"},{"name":"qtyProof","type":"bytes","internalType":"bytes"}],"outputs":[{"name":"bidIndex","type":"uint256","internalType":"uint256"}],"stateMutability":"nonpayable"},{"type":"function","name":"treasury","inputs":[],"outputs":[{"name":"","type":"address","internalType":"contract ITreasury"}],"stateMutability":"view"},{"type":"event","name":"AuctionCreatedItem","inputs":[{"name":"auctionId","type":"uint256","indexed":true,"internalType":"uint256"},{"name":"seller","type":"address","indexed":true,"internalType":"address"},{"name":"itemName","type":"string","indexed":false,"internalType":"string"},{"name":"minBidPlain","type":"uint64","indexed":false,"internalType":"uint64"},{"name":"endTime","type":"uint64","indexed":false,"internalType":"uint64"},{"name":"gasDeposit","type":"uint256","indexed":false,"internalType":"uint256"}],"anonymous":false},{"type":"event","name":"AuctionCreatedToken","inputs":[{"name":"auctionId","type":"uint256","indexed":true,"internalType":"uint256"},{"name":"seller","type":"address","indexed":true,"internalType":"address"},{"name":"tokenX","type":"address","indexed":true,"internalType":"address"},{"name":"supply","type":"uint256","indexed":false,"internalType":"uint256"},{"name":"minBidPlain","type":"uint64","indexed":false,"internalType":"uint64"},{"name":"endTime","type":"uint64","indexed":false,"internalType":"uint64"},{"name":"gasDeposit","type":"uint256","indexed":false,"internalType":"uint256"}],"anonymous":false},{"type":"event","name":"AuctionEnded","inputs":[{"name":"auctionId","type":"uint256","indexed":true,"internalType":"uint256"}],"anonymous":false},{"type":"event","name":"AuctionFinalizedItem","inputs":[{"name":"auctionId","type":"uint256","indexed":true,"internalType":"uint256"},{"name":"winner","type":"address","indexed":true,"internalType":"address"},{"name":"amount","type":"uint64","indexed":false,"internalType":"uint64"},{"name":"fee","type":"uint64","indexed":false,"internalType":"uint64"}],"anonymous":false},{"type":"event","name":"AuctionFinalizedToken","inputs":[{"name":"auctionId","type":"uint256","indexed":true,"internalType":"uint256"},{"name":"clearingPrice","type":"uint64","indexed":false,"internalType":"uint64"},{"name":"totalAllocated","type":"uint256","indexed":false,"internalType":"uint256"},{"name":"unsoldReturned","type":"uint256","indexed":false,"internalType":"uint256"},{"name":"fee","type":"uint64","indexed":false,"internalType":"uint64"}],"anonymous":false},{"type":"event","name":"BidPlaced","inputs":[{"name":"auctionId","type":"uint256","indexed":true,"internalType":"uint256"},{"name":"bidIndex","type":"uint256","indexed":true,"internalType":"uint256"},{"name":"bidder","type":"address","indexed":true,"internalType":"address"},{"name":"encPriceHandle","type":"bytes32","indexed":false,"internalType":"bytes32"},{"name":"encQtyHandle","type":"bytes32","indexed":false,"internalType":"bytes32"}],"anonymous":false},{"type":"event","name":"BidSettled","inputs":[{"name":"auctionId","type":"uint256","indexed":true,"internalType":"uint256"},{"name":"bidIndex","type":"uint256","indexed":true,"internalType":"uint256"},{"name":"bidder","type":"address","indexed":true,"internalType":"address"},{"name":"isWinner","type":"bool","indexed":false,"internalType":"bool"},{"name":"allocatedTokenX","type":"uint256","indexed":false,"internalType":"uint256"},{"name":"refundedCUSDC","type":"uint64","indexed":false,"internalType":"uint64"}],"anonymous":false},{"type":"event","name":"PublicDecryptionVerified","inputs":[{"name":"handlesList","type":"bytes32[]","indexed":false,"internalType":"bytes32[]"},{"name":"abiEncodedCleartexts","type":"bytes","indexed":false,"internalType":"bytes"}],"anonymous":false},{"type":"error","name":"AlreadyBid","inputs":[]},{"type":"error","name":"AuctionAlreadyEnded","inputs":[]},{"type":"error","name":"AuctionAlreadyFinalized","inputs":[]},{"type":"error","name":"AuctionNotEnded","inputs":[]},{"type":"error","name":"AuctionNotFinalizedYet","inputs":[]},{"type":"error","name":"AuctionNotFound","inputs":[]},{"type":"error","name":"DurationTooShort","inputs":[]},{"type":"error","name":"InvalidKMSSignatures","inputs":[]},{"type":"error","name":"LengthMismatch","inputs":[]},{"type":"error","name":"ReentrancyGuardReentrantCall","inputs":[]},{"type":"error","name":"SafeERC20FailedOperation","inputs":[{"name":"token","type":"address","internalType":"address"}]},{"type":"error","name":"SellerCannotBid","inputs":[]},{"type":"error","name":"SenderNotAllowedToUseHandle","inputs":[{"name":"handle","type":"bytes32","internalType":"bytes32"},{"name":"sender","type":"address","internalType":"address"}]},{"type":"error","name":"TooEarly","inputs":[]},{"type":"error","name":"WrongMode","inputs":[]},{"type":"error","name":"ZamaProtocolUnsupported","inputs":[]},{"type":"error","name":"ZeroAddress","inputs":[]},{"type":"error","name":"ZeroAmount","inputs":[]}],"bytecode":{"object":"0x60c06040523461030057604051601f61374438819003918201601f19168301916001600160401b0383118484101761030457808492604094855283398101031261030057610058602061005183610337565b9201610337565b9061006161034b565b504660010361021c5761007261034b565b5061007b610318565b73ca2e8f1f656cd25c01f05d0b243ab1ecd4a8ffb6815273d82385dada1ae3e969447f20a3164f6213100e7560208201527377627828a55156b04ac0dc0eb30467f1a552bb0360408201525b80517f9e7b61f58c47dc699ac88507c4f5bb9f121c03808c5676a8078fe583e464970080546001600160a01b03199081166001600160a01b039384161790915560208301517f9e7b61f58c47dc699ac88507c4f5bb9f121c03808c5676a8078fe583e4649701805483169184169190911790556040909201517f9e7b61f58c47dc699ac88507c4f5bb9f121c03808c5676a8078fe583e464970280549093169082161790915560015f55168015801561020b575b6101fc576080526001600160a01b031660a0526040516133de9081610366823960805181818161043901528181610649015281816106e301528181610cb501528181610d8f01528181610e4901528181610f82015281816113980152611696015260a051818181610292015281816109ec01528181610e8401526124450152f35b63d92e233d60e01b5f5260045ffd5b506001600160a01b0382161561017b565b4662aa36a7036102875761022e61034b565b50610237610318565b73f0ffdc93b7e186bc2f8cb3daa75d86d1930a433d81527392c920834ec8941d2c77d188936e1f7a6f49c127602082015273be0e383937d564d7ff0bc3b46c51f0bf8d5c311a60408201526100c7565b46617a69036102f15761029861034b565b506102a1610318565b7350157cffd6bbfa2dece204a89ec419c23ef5755d815273e3a9105a3a932253a70f126eb1e3b589c643dd24602082015273901f8942346f7ab3a01f6d7613119bca447bb03060408201526100c7565b6373cac13b60e01b5f5260045ffd5b5f80fd5b634e487b7160e01b5f52604160045260245ffd5b60405190606082016001600160401b0381118382101761030457604052565b51906001600160a01b038216820361030057565b610353610318565b905f82525f60208301525f604083015256fe6080806040526004361015610012575f80fd5b5f3560e01c9081632ad715731461297c575080632ce8f48814612541578063449e8812146124f7578063582c7ffd1461246957806361d027b31461242657806378bd7935146121245780638927b03014612102578063976458e214611cca578063b9075d0214611547578063b9a2de3a146113e6578063b9a958b4146113bc578063ce347a3e14611379578063d0bb54e81461081f578063e6985c25146100e25763fc528482146100c1575f80fd5b346100de575f3660031901126100de576020600154604051908152f35b5f80fd5b346100de5760803660031901126100de576004356100fe6129c3565b906101076129d9565b6064356001600160401b0381116100de57610126903690600401612996565b939091610131612f1c565b835f52600260205260405f2060ff815416600281101561080b576107fc576007810191825460ff8160401c16156107ed5760481c60ff166107de5760609360405161017c8682612ade565b60028152601f198601366020830137600984015461019982612c49565b5260088401548151600110156107ca576101f6926001600160a01b0391604084015216986101f06001600160401b03851698604051928c60208501528a6040850152604084526101e98a85612ade565b3691612b9f565b91612fcd565b600a820180547fffffffff0000000000000000ffffffffffffffffffffffffffffffffffffffff89167fffffffff000000000000000000000000000000000000000000000000000000009091161760a09290921b7bffffffffffffffff000000000000000000000000000000000000000016919091179055600b8101805467ffffffffffffffff19168517905560405163b8606eef60e01b81527f00000000000000000000000000000000000000000000000000000000000000006001600160a01b03169190602081600481865afa908115610574576102ee61ffff6001600160401b0393612710935f9161079b575b501688612c84565b041693865f52600360205260405f2054915f5b83811061035e5789897f515a9c163273f3db224695f29bccf98250f41d89b29471a7c1d1e8a6ed121c6260408b8b8b690100000000000000000069ff0000000000000000001982541617905582519182526020820152a360015f55005b885f5260036020526103738160405f20612aa9565b509060048201805460ff81166107905760ff1916600117905581546001600160a01b03168b81036106a757508715610606576103ae88613139565b916003810154928084156105f6575b81156105e4575b60209060646001600160a01b035f5160206133895f395f51905f525416965f60405198899485936303056db360e31b8552600485015260248401528160448401525af1938415610574575f946105b1575b5061041f81612c97565b5061042984612c97565b506104a760206001600160a01b037f000000000000000000000000000000000000000000000000000000000000000016956104648785612ed7565b5061046f8782612ed7565b50875460405163170856b560e01b815260089190911c6001600160a01b03166004820152602481019190915291829081906044820190565b03815f895af180156105745761057f575b5060405163170856b560e01b81526001600160a01b0389166004820152602481019190915292602090849060449082905f905af1908115610574576001936001600160a01b0392610546575b505b5416818b7fc3c93c50dc9a3409ed97610c7a5471b7f3c3ded7df7a654fee3dbfb33970fcc8876040518781525f60208201525f6040820152a45b01610301565b6105669060203d811161056d575b61055e8183612ade565b810190612be4565b508d610504565b503d610554565b6040513d5f823e3d90fd5b906020823d82116105a9575b8161059860209383612ade565b810103126100de57905060206104b8565b3d915061058b565b9093506020813d82116105dc575b816105cc60209383612ade565b810103126100de5751928d610415565b3d91506105bf565b5060206105ef6131b7565b90506103c4565b93506106006131b7565b936103bd565b8254600383015460405163170856b560e01b815260089290921c6001600160a01b03166004830152602482015291602083806044810103815f6001600160a01b037f0000000000000000000000000000000000000000000000000000000000000000165af1908115610574576001936001600160a01b0392610689575b50610506565b6106a09060203d811161056d5761055e8183612ade565b508d610683565b600383015460405163170856b560e01b81526001600160a01b0390921660048301526024820152602081806044810103815f6001600160a01b037f0000000000000000000000000000000000000000000000000000000000000000165af180156105745761075a575b506001600160a01b036001925416818b7fc3c93c50dc9a3409ed97610c7a5471b7f3c3ded7df7a654fee3dbfb33970fcc8876040515f81525f60208201525f6040820152a4610540565b6020813d8211610788575b8161077260209383612ade565b810103126100de57506001600160a01b03610710565b3d9150610765565b505060019150610540565b6107bd915060203d6020116107c3575b6107b58183612ade565b810190612c6a565b8c6102e6565b503d6107ab565b634e487b7160e01b5f52603260045260245ffd5b63059fb38360e51b5f5260045ffd5b636463738960e01b5f5260045ffd5b632a580d6d60e01b5f5260045ffd5b634e487b7160e01b5f52602160045260245ffd5b346100de5760803660031901126100de576024356001600160401b0381116100de5761084f903690600401612a13565b6044356001600160401b0381116100de5761086e903690600401612a13565b906064356001600160401b0381116100de5761088e903690600401612996565b610899929192612f1c565b6004355f52600260205260405f209260ff845416600281101561080b576001036107fc57600784015460ff8160401c16156107ed5760481c60ff166107de576004355f52600360205260405f209081549283881480159061136f575b611360578360011b84810460021485151715610f095761091790949394612c17565b936060935f915b81831061125b575050506109399392916101f0913691612b9f565b6004820154906001600160401b036005840154169461095781612c17565b9061096181612c17565b935f97825f5b8b8282106111f357505050505f5b8881106111415750935f975f955f925b8284106110bd575b50505050600b85016001600160401b0388166001600160401b03198254161790555f956004355f52600260205260405f20986004355f52600360205260405f20946040519263b8606eef60e01b84526020846004816001600160a01b037f0000000000000000000000000000000000000000000000000000000000000000165afa938415610574575f9461109c575b508654965f5b888110610ae3578c6001600160401b038d8d8d610a43816004840154612bf3565b9182610ab8575b82600c8201556007690100000000000000000069ff000000000000000000198284015416179101558360405195168552602085015260408401521660608201527f79031c0c9633e1c3830f15ec9be612d8649c8de6373e78b2518ad4821bd5444e608060043592a260015f55005b610ade836001600160a01b036003840154166001600160a01b03845460081c1690612f5e565b610a4a565b8d9b8d610af08385612aa9565b509160048301805460ff811661108e5760ff19166001179055610b13848c612c56565b51908115610f3b578f8a88848b8f948e8b80925460081c6001600160a01b031697610b3d92612f3a565b610b4690612f4a565b93610b5092612f3a565b610b5990612f4a565b966001600160401b031690610b6d91612c84565b956001600160401b0316906001600160401b031690610b8b91612c84565b9485811115610f1d57506001600160401b03612710610bc061ffff83610bb781808c165b16809b612bf3565b16941688612c84565b0416918286036001600160401b038111610f09578896610d54575b505080610c91575b8360058701556001600160401b03166001600160401b0319600687015416176006860155610c1091612a89565b9e600301546001600160a01b03168184546001600160a01b0316610c3392612f5e565b82546001600160a01b031692600601546001600160401b03166040519160018352602083015260408201526004359060607fc3c93c50dc9a3409ed97610c7a5471b7f3c3ded7df7a654fee3dbfb33970fcc891a46001905b01610a22565b610d1e94506020610ca182613139565b610caa81612c97565b506001600160a01b037f000000000000000000000000000000000000000000000000000000000000000016610cdf8183612ed7565b506001600160a01b038954165f604051809a8195829463170856b560e01b845260048401602090939291936001600160a01b0360408201951681520152565b03925af1948515610574578795610d36575b50610be3565b610d4d9060203d811161056d5761055e8183612ade565b505f610d30565b83610e24575b6001600160401b03168015610bdb57610dee965090610d7a602092613139565b90610d8482612c97565b506001600160a01b037f00000000000000000000000000000000000000000000000000000000000000001690610dba8284612ed7565b505f604051809a8195829463170856b560e01b845260048401602090939291936001600160a01b0360408201951681520152565b03925af1948515610574578795610e06575b80610bdb565b610e1d9060203d811161056d5761055e8183612ade565b505f610e00565b5f96506020610ec8610e3586613139565b610e3e81612c97565b506001600160a01b037f00000000000000000000000000000000000000000000000000000000000000001690610e748282612ed7565b5060405163170856b560e01b81527f00000000000000000000000000000000000000000000000000000000000000006001600160a01b031660048201526024810191909152998a9283919082906044820190565b03925af19081156105745789976001600160401b0392610eeb575b509050610d5a565b610f029060203d811161056d5761055e8183612ade565b505f610ee3565b634e487b7160e01b5f52601160045260245ffd5b612710610bc061ffff6001600160401b03610bb78180809716610baf565b8354600385015460405163170856b560e01b81526001600160a01b0390921660048301526024820152909f50939291506020905083806044810103815f6001600160a01b037f0000000000000000000000000000000000000000000000000000000000000000165af180156105745789888895889361104e575b506001600160401b03610ff960019782610ff2610fe68a809984610feb610fe684839d6001600160a01b039d612f3a565b612f4a565b1695612f3a565b1690612c84565b16938260068201951683198654161785555416925416604051905f82525f602083015260408201527fc3c93c50dc9a3409ed97610c7a5471b7f3c3ded7df7a654fee3dbfb33970fcc8606060043592a4610c8b565b95505050506020833d8211611086575b8161106b60209383612ade565b810103126100de578592508489886001600160401b03610fb5565b3d915061105e565b50509d505050600190610c8b565b6110b691945060203d6020116107c3576107b58183612ade565b928c610a1c565b90919299821561113b57506110d28a82612c56565b51966001600160401b036110ea610fe68a8d8b612f3a565b168381116111305761110a9080945b816111048c8b612c56565b52612bf3565b928101809111610f0957611126610fe68d99876001949b612f3a565b9a01929190610985565b5061110a83806110f9565b9961098d565b8060018201808311610f09575b878c8c83106111a0575050509081816001930361116d575b5001610975565b6111778189612c56565b519061118e611186848b612c56565b51918a612c56565b526111998289612c56565b528b611166565b6001600160401b036111da610fe682938a6111d3896111cd610fe66111c58c8c612c56565b518587612f3a565b98612c56565b5191612f3a565b169116116111eb575b60010161114e565b9050806111e3565b6001600160401b0361120c610fe6846001968895612f3a565b1610158061123c575b611222575b018390610967565b8061123661122f8d612a43565b9c8a612c56565b5261121a565b506001600160401b03611253610fe6838d8b612f3a565b161515611215565b909194600161126a8784612aa9565b5001548660011b9087820460021488151715610f095761128a828a612c56565b5260026112978885612aa9565b50015460018201809211610f09576001928c8f8f6001600160401b036113018f938f8f906112e2610fe68360209d98610fe6968f9a9e6113579f6112dc908c98612c56565b52612f3a565b1696604051968688019889528688526112fc604089612ade565b612f3a565b16926040519282840194855282845261131b604085612ade565b6040519786899751918291018589015e860190838201905f8252519283915e0101905f8252518092825e015f815203601f198101835282612ade565b9501919061091e565b631fec674760e31b5f5260045ffd5b50838714156108f5565b346100de575f3660031901126100de5760206040516001600160a01b037f0000000000000000000000000000000000000000000000000000000000000000168152f35b346100de5760203660031901126100de576004355f526003602052602060405f2054604051908152f35b346100de5760203660031901126100de57600435805f52600260205260405f2080546001600160a01b038160081c16156115385760078201908154916001600160401b03831642106115295760ff8360401c1661151a576801000000000000000060ff9368ff0000000000000000191617905516600281101561080b576114c3578061147760086009930154612efe565b50015480156114b0575b61148a906132e6565b7f45806e512b1f4f10e33e8b3cb64d1d11d998d8c554a95e0841fc1c701278bd5d5f80a2005b5061148a6114bc613205565b9050611481565b50805f52600360205260405f20545f5b8181106114e157505061148a565b600190835f52600360205261151360026114fe8360405f20612aa9565b5061150b85820154612efe565b500154612efe565b50016114d3565b63d02e774d60e01b5f5260045ffd5b63085de62560e01b5f5260045ffd5b6307145c5f60e11b5f5260045ffd5b346100de5760a03660031901126100de576004356064356001600160401b0381116100de5761157a903690600401612996565b91906084356001600160401b0381116100de5761159b903690600401612996565b91835f52600260205260405f20946001600160a01b03865460081c168015611538576001600160401b0360078801541642101561151a573314611cbb57845f52600460205260405f206001600160a01b0333165f5260205260ff60405f205416611cac576116169161160e913691612b9f565b602435612d01565b9160ff855416600281101561080b57611c8f5750505f5160206133895f395f51905f5254604051639cd07acb60e01b815260016004820152906001600160a01b0316816044815f602094600560248401525af1908115610574575f91611c5d575b50925b604051630c8ea59d60e21b8152336004820152306024820152907f00000000000000000000000000000000000000000000000000000000000000006001600160a01b03166020836044815f855af1928315610574575f93611c27575b506116ff906116e485612c97565b506116ee87612c97565b506116f884612c97565b5083612ed7565b5061170a3383612ed7565b506117153384612ed7565b506117203386612ed7565b5060ff815416600281101561080b57156118c4575b505f838152600360205260409081902080549151959194919060e087016001600160401b038111888210176118b0576040523387526020870185815260408801908382526060890195865260808901985f8a5260a08101935f855260c08201905f82528054680100000000000000008110156118b0576117ba91600182018155612aa9565b95909561189d5760209b8b996001600160401b03966006966001600160a01b03808a9851161673ffffffffffffffffffffffffffffffffffffffff198b5416178a555160018a0155516002890155516003880155600487019051151560ff801983541691161790555160058601555116920191166001600160401b0319825416179055815f526004865260405f206001600160a01b0333165f52865260405f20600160ff19825416179055604051938452858401527f5740235d76a98f325324a161d7e4d6c23a41a6b8a38dff3014a549a77e80c76660403394a4604051908152f35b634e487b7160e01b5f525f60045260245ffd5b634e487b7160e01b5f52604160045260245ffd5b60088101908154849085159081611c17575b8015611c05575b60209060646001600160a01b035f5160206133895f395f51905f525416945f60405196879485936385362ee760e01b8552600485015260248401528160448401525af1918215610574575f92611bd1575b5083548691611bc1575b8015611baf575b60209060646001600160a01b035f5160206133895f395f51905f525416935f6040519586948593630d8c635960e21b8552600485015260248401528160448401525af1908115610574575f91611b7d575b5083555f5160206133895f395f51905f5254604051639cd07acb60e01b815233600482015292906001600160a01b0316836044815f602094600760248401525af1928315610574575f93611b48575b5060090191825490808315611ac3575b15611ab5575b8115611a9f575b6064602092935f6001600160a01b035f5160206133895f395f51905f5254166040519687958694637702dcff60e01b86526004860152602485015260448401525af1908115610574575f91611a6b575b50611a6492611a5d91835554612c97565b5054612ce8565b5084611735565b90506020813d602011611a97575b81611a8660209383612ade565b810103126100de5751611a64611a4c565b3d9150611a79565b602091506064611aad613205565b9250506119fc565b50611abe613205565b6119f5565b5f5160206133895f395f51905f5254604051639cd07acb60e01b81525f60048201529194506001600160a01b0316816044815f6020948160248401525af1908115610574575f91611b16575b50926119ef565b90506020813d602011611b40575b81611b3160209383612ade565b810103126100de57518a611b0f565b3d9150611b24565b9092506020813d602011611b75575b81611b6460209383612ade565b810103126100de57519160096119df565b3d9150611b57565b90506020813d602011611ba7575b81611b9860209383612ade565b810103126100de575188611990565b3d9150611b8b565b506020611bba6131b7565b905061193f565b9050611bcb6131b7565b90611938565b9091506020813d602011611bfd575b81611bed60209383612ade565b810103126100de5751908861192e565b3d9150611be0565b506020611c106131b7565b90506118dd565b9150611c216131b7565b916118d6565b9092506020813d602011611c55575b81611c4360209383612ade565b810103126100de5751916116ff6116d6565b3d9150611c36565b90506020813d602011611c87575b81611c7860209383612ade565b810103126100de575184611677565b3d9150611c6b565b611ca691611c9e913691612b9f565b604435612d01565b9261167a565b630697833b60e11b5f5260045ffd5b63ef02588960e01b5f5260045ffd5b60803660031901126100de576004356001600160401b0381116100de57611cf5903690600401612996565b6024356001600160401b0381116100de57611d14903690600401612996565b611d1f9291926129d9565b90606435916001600160401b0383168084036100de57603c116120f35760015494611d4986612a43565b6001555f868152600260205260409020805474ffffffffffffffffffffffffffffffffffffffffff19163360081b74ffffffffffffffffffffffffffffffffffffffff001617815592600184016001600160401b0387116118b057611dae8154612a51565b601f81116120ae575b50865f601f8211600114612049575f9161203e575b508760011b905f198960031b1c19161790555b60028401916001600160401b0382116118b057611dfc8354612a51565b601f8111611ff9575b509160209893918895935f90601f8311600114611f5957611eae7fc703fa7cb74dcff8c14d42740c8500e6401dc2359d3a6bfb618d05aaf4cab7f398996001600160401b03969585611f05966006968a965f92611f4e575b50508160011b915f199060031b1c19161790555b6003880173ffffffffffffffffffffffffffffffffffffffff19815416905560016004890155600588018387168419825416179055824216612a89565b9381600788019516821986541617855534600d880155611eef611ecf6131b7565b60088901908155611a5d611ee1613205565b9160098b0192835554612c97565b501694611efb86613139565b9182910155612c97565b5054169085604051936080855281608086015260a08501375f60a0878501015287830152604082015234606082015260a0813395601f80199101168101030190a3604051908152f35b013590505f80611e5d565b5f8481528c81209994939290601f198416905b818110611fdf575094611f05946001857fc703fa7cb74dcff8c14d42740c8500e6401dc2359d3a6bfb618d05aaf4cab7f39c9d6001600160401b039a9996611eae966006998d9910611fc6575b505050811b019055611e71565b01355f19600384901b60f8161c191690555f8080611fb9565b828401358c556001909b019a8d9a50918e01918e01611f6c565b835f5260205f20601f840160051c81019160208510612034575b601f0160051c01905b8181106120295750611e05565b5f815560010161201c565b9091508190612013565b90508901358a611dcc565b5f8381526020812092508990601f198216905b8d8282106120945750501061207b575b5050600187811b019055611ddf565b8a01355f1960038a901b60f8161c19169055898061206c565b84013585556001909401936020938401938c93500161205c565b815f5260205f20601f890160051c81019160208a106120e9575b601f0160051c01905b8181106120de5750611db7565b5f81556001016120d1565b90915081906120c8565b6325c3636760e01b5f5260045ffd5b346100de575f3660031901126100de57602061211c612cb9565b604051908152f35b346100de5760203660031901126100de575f61022060405161214581612ac2565b828152826020820152606060408201526060808201528260808201528260a08201528260c08201528260e08201528261010082015282610120820152826101408201528261016082015282610180820152826101a0820152826101c0820152826101e08201528261020082015201526004355f52600260205260405f20604051906121cf82612ac2565b80549060ff8216600281101561080b57600d926001600160a01b0391855260081c16602084015261220260018201612aff565b604084015261221360028201612aff565b60608401526001600160a01b036003820154166080840152600481015460a08401526001600160401b0360058201541660c0840152600681015460e084015260ff60078201546001600160401b038116610100860152818160401c16151561012086015260481c161515610140840152600881015461016084015260098101546101808401526001600160401b03600a8201546001600160a01b0381166101a086015260a01c166101c08401526001600160401b03600b820154166101e0840152600c81015461020084015201546102208201526040519060208252805190600282101561080b57829160208301526001600160a01b03602082015116604083015261022061234c612336604084015161024060608701526102608601906129ef565b6060840151858203601f190160808701526129ef565b916001600160a01b0360808201511660a085015260a081015160c08501526001600160401b0360c08201511660e085015260e08101516101008501526001600160401b0361010082015116610120850152610120810151151561014085015261014081015115156101608501526101608101516101808501526101808101516101a08501526001600160a01b036101a0820151166101c08501526001600160401b036101c0820151166101e08501526001600160401b036101e0820151166102008501526102008101518285015201516102408301520390f35b346100de575f3660031901126100de5760206040516001600160a01b037f0000000000000000000000000000000000000000000000000000000000000000168152f35b346100de5760403660031901126100de576004355f52600360205260e061249560243560405f20612aa9565b506001600160a01b03815416906001810154906002810154600382015460ff600484015416916001600160401b036006600586015495015416946040519687526020870152604086015260608501521515608084015260a083015260c0820152f35b346100de5760403660031901126100de576125106129c3565b6004355f5260046020526001600160a01b0360405f2091165f52602052602060ff60405f2054166040519015158152f35b60c03660031901126100de576004356001600160401b0381116100de5761256c903690600401612996565b906024356001600160401b0381116100de5761258c903690600401612996565b9092604435916001600160a01b0383168093036100de5760643591608435916001600160401b0383168093036100de5760a435906001600160401b0382168083036100de57603c116120f357851561296d57841561295e5761261e6040516323b872dd60e01b602082015233602482015230604482015286606482015260648152612618608482612ade565b876130e5565b6001549661262b88612a43565b60019081555f898152600260205260409020805474ffffffffffffffffffffffffffffffffffffffffff19163360081b74ffffffffffffffffffffffffffffffffffffffff00161790911781559360018501916001600160401b0382116118b05781906126988454612a51565b601f811161290e575b505f90601f83116001146128a7575f9261289c575b50508160011b915f199060031b1c19161790555b60028301906001600160401b0381116118b0576126e78254612a51565b98601f8a11612857575b602099505f90601f83116001146127e2579361278f9383600694612770946001600160401b0399985f926127d7575b50508160011b915f199060031b1c19161790555b600385018973ffffffffffffffffffffffffffffffffffffffff1982541617905587600486015560058501878719825416179055854216612a89565b9284600782019416851985541617845534600d820155611efb86613139565b50541690604051928352858301526040820152346060820152827f22db5fc682d02008883a8955aa2205c8a782f2f6ba9bb1df12b447a9a49a0be560803393a4604051908152f35b013590508e80612720565b601f19831691845f528b5f20925f5b818110612840575084612770946001600160401b0399989461278f989460069860019510612827575b505050811b019055612734565b01355f19600384901b60f8161c191690558e808061281a565b91938d6001819287870135815501950192016127f1565b825f5260205f20601f830160051c81019a60208410612892575b601f0160051c01995b8a811061288757506126f1565b5f815560010161287a565b909a508a90612871565b013590508b806126b6565b909150601f19831691845f5260205f20925f5b8181106128f657509084600195949392106128dd575b505050811b0190556126ca565b01355f19600384901b60f8161c191690558b80806128d0565b919360206001819287870135815501950192016128ba565b909150835f5260205f20601f840160051c81019160208510612954575b90601f859493920160051c01905b81811061294657506126a1565b5f8155849350600101612939565b909150819061292b565b631f2a200560e01b5f5260045ffd5b63d92e233d60e01b5f5260045ffd5b346100de575f3660031901126100de576020906001548152f35b9181601f840112156100de578235916001600160401b0383116100de57602083818601950101116100de57565b602435906001600160a01b03821682036100de57565b604435906001600160401b03821682036100de57565b805180835260209291819084018484015e5f828201840152601f01601f1916010190565b9181601f840112156100de578235916001600160401b0383116100de576020808501948460051b0101116100de57565b5f198114610f095760010190565b90600182811c92168015612a7f575b6020831014612a6b57565b634e487b7160e01b5f52602260045260245ffd5b91607f1691612a60565b906001600160401b03809116911601906001600160401b038211610f0957565b80548210156107ca575f52600760205f20910201905f90565b61024081019081106001600160401b038211176118b057604052565b90601f801991011681019081106001600160401b038211176118b057604052565b9060405191825f825492612b1284612a51565b8084529360018116908115612b7d5750600114612b39575b50612b3792500383612ade565b565b90505f9291925260205f20905f915b818310612b61575050906020612b37928201015f612b2a565b6020919350806001915483858901015201910190918492612b48565b905060209250612b3794915060ff191682840152151560051b8201015f612b2a565b9291926001600160401b0382116118b05760405191612bc8601f8201601f191660200184612ade565b8294818452818301116100de578281602093845f960137010152565b908160209103126100de575190565b91908203918211610f0957565b6001600160401b0381116118b05760051b60200190565b90612c2182612c00565b612c2e6040519182612ade565b8281528092612c3f601f1991612c00565b0190602036910137565b8051156107ca5760200190565b80518210156107ca5760209160051b010190565b908160209103126100de575161ffff811681036100de5790565b81810292918115918404141715610f0957565b8015612cab575b612ca83082613253565b90565b50612cb46131b7565b612c9e565b46600103612cc657600190565b4662aa36a703612cd65761271190565b617a694614612ce3575f90565b5f1990565b8015612cf857612ca83082613253565b50612cb4613205565b815190919015612e1957602090612d5b926001600160a01b035f5160206133895f395f51905f525416905f60405180968195829463045fc19560e11b845260048401523360248401526080604484015260848301906129ef565b6005606483015203925af1908115610574575f91612de7575b506001600160a01b037f9e7b61f58c47dc699ac88507c4f5bb9f121c03808c5676a8078fe583e46497005416803b156100de57604051630f8e573b60e21b815260048101839052336024820152905f908290604490829084905af1801561057457612ddd575090565b5f612ca891612ade565b90506020813d602011612e11575b81612e0260209383612ade565b810103126100de57515f612d74565b3d9150612df5565b508015612ece577f9e7b61f58c47dc699ac88507c4f5bb9f121c03808c5676a8078fe583e4649700546040516382027b6d60e01b81526004810183905233602482015290602090829060449082906001600160a01b03165afa908115610574575f91612e9f575b5015612e895790565b630276b5d960e01b5f526004523360245260445ffd5b612ec1915060203d602011612ec7575b612eb98183612ade565b8101906132ce565b5f612e80565b503d612eaf565b50612ca86131b7565b908115612ee9575b612ca89082613253565b9050612ca8612ef66131b7565b919050612edf565b8015612f0e575b612ca8816132e6565b50612f176131b7565b612f05565b60025f5414612f2b5760025f55565b633ee5aeb560e01b5f5260045ffd5b91908110156107ca5760051b0190565b356001600160401b03811681036100de5790565b612b37926001600160a01b036040519363a9059cbb60e01b6020860152166024840152604483015260448252612f95606483612ade565b6130e5565b90602080835192838152019201905f5b818110612fb75750505090565b8251845260209384019390920191600101612faa565b91602061304f5f926001600160a01b037f9e7b61f58c47dc699ac88507c4f5bb9f121c03808c5676a8078fe583e46497025416906040519485809481936378542ead60e01b83526060600484015261303d61302b606485018d612f9a565b8481036003190160248601528b6129ef565b838103600319016044850152906129ef565b03925af1908115610574575f916130c6575b50156130b7577fc6366bab028b8d033cb362cfd1f2f3457ef4e92fc738b6788b90d5a7846367a0916130b26130a492604051938493604085526040850190612f9a565b9083820360208501526129ef565b0390a1565b63cf6c44e960e01b5f5260045ffd5b6130df915060203d602011612ec757612eb98183612ade565b5f613061565b905f602091828151910182855af115610574575f513d61313057506001600160a01b0381163b155b6131145750565b6001600160a01b0390635274afe760e01b5f521660045260245ffd5b6001141561310d565b5f5160206133895f395f51905f5254604051639cd07acb60e01b815260048101929092526001600160a01b0316816044815f602094600560248401525af1908115610574575f91613188575090565b90506020813d6020116131af575b816131a360209383612ade565b810103126100de575190565b3d9150613196565b5f5160206133895f395f51905f5254604051639cd07acb60e01b81525f6004820152906001600160a01b0316816044815f602094600560248401525af1908115610574575f91613188575090565b5f5160206133895f395f51905f5254604051639cd07acb60e01b81525f6004820152906001600160a01b0316816044815f602094600760248401525af1908115610574575f91613188575090565b6001600160a01b037f9e7b61f58c47dc699ac88507c4f5bb9f121c03808c5676a8078fe583e4649700541691823b156100de57604051635ca4b5b160e11b815260048101929092526001600160a01b03166024820152905f908290604490829084905af18015610574576132c45750565b5f612b3791612ade565b908160209103126100de575180151581036100de5790565b60408051916132f58284612ade565b60018352601f19820136602085013761330d83612c49565b526001600160a01b037f9e7b61f58c47dc699ac88507c4f5bb9f121c03808c5676a8078fe583e46497005416803b156100de578151637d6e912360e11b815260206004820152925f91849182908490829061336c906024830190612f9a565b03925af190811561337f57506132c45750565b513d5f823e3d90fdfe9e7b61f58c47dc699ac88507c4f5bb9f121c03808c5676a8078fe583e4649701a2646970667358221220d0a65510c5ec1d3b374690613255549572388a6859c80b463af901816b1dd40364736f6c634300081b0033","linkReferences":{}},"methodIdentifiers":{"auctionCount()":"2ad71573","bidCount(uint256)":"b9a958b4","cUSDC()":"ce347a3e","confidentialProtocolId()":"8927b030","createAuctionItem(string,string,uint64,uint64)":"976458e2","createAuctionToken(string,string,address,uint256,uint64,uint64)":"2ce8f488","endAuction(uint256)":"b9a2de3a","finalizeAuctionItem(uint256,address,uint64,bytes)":"e6985c25","finalizeAuctionToken(uint256,uint64[],uint64[],bytes)":"d0bb54e8","getAuction(uint256)":"78bd7935","getBid(uint256,uint256)":"582c7ffd","hasBid(uint256,address)":"449e8812","nextAuctionId()":"fc528482","placeBid(uint256,bytes32,bytes32,bytes,bytes)":"b9075d02","treasury()":"61d027b3"},"id":91}