{"abi":[{"type":"constructor","inputs":[],"stateMutability":"nonpayable"},{"type":"function","name":"DECRYPTION_RESULT_TYPEHASH","inputs":[],"outputs":[{"name":"","type":"bytes32","internalType":"bytes32"}],"stateMutability":"view"},{"type":"function","name":"EIP712_PUBLIC_DECRYPT_TYPE","inputs":[],"outputs":[{"name":"","type":"string","internalType":"string"}],"stateMutability":"view"},{"type":"function","name":"UPGRADE_INTERFACE_VERSION","inputs":[],"outputs":[{"name":"","type":"string","internalType":"string"}],"stateMutability":"view"},{"type":"function","name":"defineNewContext","inputs":[{"name":"newSignersSet","type":"address[]","internalType":"address[]"},{"name":"newThreshold","type":"uint256","internalType":"uint256"}],"outputs":[],"stateMutability":"nonpayable"},{"type":"function","name":"destroyKmsContext","inputs":[{"name":"kmsContextId","type":"uint256","internalType":"uint256"}],"outputs":[],"stateMutability":"nonpayable"},{"type":"function","name":"eip712Domain","inputs":[],"outputs":[{"name":"fields","type":"bytes1","internalType":"bytes1"},{"name":"name","type":"string","internalType":"string"},{"name":"version","type":"string","internalType":"string"},{"name":"chainId","type":"uint256","internalType":"uint256"},{"name":"verifyingContract","type":"address","internalType":"address"},{"name":"salt","type":"bytes32","internalType":"bytes32"},{"name":"extensions","type":"uint256[]","internalType":"uint256[]"}],"stateMutability":"view"},{"type":"function","name":"getContextSignersAndThresholdFromExtraData","inputs":[{"name":"extraData","type":"bytes","internalType":"bytes"}],"outputs":[{"name":"signers","type":"address[]","internalType":"address[]"},{"name":"threshold","type":"uint256","internalType":"uint256"}],"stateMutability":"view"},{"type":"function","name":"getCurrentKmsContextId","inputs":[],"outputs":[{"name":"","type":"uint256","internalType":"uint256"}],"stateMutability":"view"},{"type":"function","name":"getKmsSigners","inputs":[],"outputs":[{"name":"","type":"address[]","internalType":"address[]"}],"stateMutability":"view"},{"type":"function","name":"getSignersForKmsContext","inputs":[{"name":"kmsContextId","type":"uint256","internalType":"uint256"}],"outputs":[{"name":"","type":"address[]","internalType":"address[]"}],"stateMutability":"view"},{"type":"function","name":"getThreshold","inputs":[],"outputs":[{"name":"","type":"uint256","internalType":"uint256"}],"stateMutability":"view"},{"type":"function","name":"getVersion","inputs":[],"outputs":[{"name":"","type":"string","internalType":"string"}],"stateMutability":"pure"},{"type":"function","name":"initializeFromEmptyProxy","inputs":[{"name":"verifyingContractSource","type":"address","internalType":"address"},{"name":"chainIDSource","type":"uint64","internalType":"uint64"},{"name":"initialSigners","type":"address[]","internalType":"address[]"},{"name":"initialThreshold","type":"uint256","internalType":"uint256"}],"outputs":[],"stateMutability":"nonpayable"},{"type":"function","name":"isSigner","inputs":[{"name":"account","type":"address","internalType":"address"}],"outputs":[{"name":"","type":"bool","internalType":"bool"}],"stateMutability":"view"},{"type":"function","name":"proxiableUUID","inputs":[],"outputs":[{"name":"","type":"bytes32","internalType":"bytes32"}],"stateMutability":"view"},{"type":"function","name":"reinitializeV2","inputs":[],"outputs":[],"stateMutability":"nonpayable"},{"type":"function","name":"upgradeToAndCall","inputs":[{"name":"newImplementation","type":"address","internalType":"address"},{"name":"data","type":"bytes","internalType":"bytes"}],"outputs":[],"stateMutability":"payable"},{"type":"function","name":"verifyDecryptionEIP712KMSSignatures","inputs":[{"name":"handlesList","type":"bytes32[]","internalType":"bytes32[]"},{"name":"decryptedResult","type":"bytes","internalType":"bytes"},{"name":"decryptionProof","type":"bytes","internalType":"bytes"}],"outputs":[{"name":"","type":"bool","internalType":"bool"}],"stateMutability":"nonpayable"},{"type":"event","name":"EIP712DomainChanged","inputs":[],"anonymous":false},{"type":"event","name":"Initialized","inputs":[{"name":"version","type":"uint64","indexed":false,"internalType":"uint64"}],"anonymous":false},{"type":"event","name":"KMSContextDestroyed","inputs":[{"name":"kmsContextId","type":"uint256","indexed":true,"internalType":"uint256"}],"anonymous":false},{"type":"event","name":"NewContextSet","inputs":[{"name":"kmsContextId","type":"uint256","indexed":true,"internalType":"uint256"},{"name":"newKmsSignersSet","type":"address[]","indexed":false,"internalType":"address[]"},{"name":"newThreshold","type":"uint256","indexed":false,"internalType":"uint256"}],"anonymous":false},{"type":"event","name":"Upgraded","inputs":[{"name":"implementation","type":"address","indexed":true,"internalType":"address"}],"anonymous":false},{"type":"error","name":"AddressEmptyCode","inputs":[{"name":"target","type":"address","internalType":"address"}]},{"type":"error","name":"CurrentKMSContextCannotBeDestroyed","inputs":[{"name":"kmsContextId","type":"uint256","internalType":"uint256"}]},{"type":"error","name":"DeserializingDecryptionProofFail","inputs":[]},{"type":"error","name":"DeserializingExtraDataFail","inputs":[]},{"type":"error","name":"ECDSAInvalidSignature","inputs":[]},{"type":"error","name":"ECDSAInvalidSignatureLength","inputs":[{"name":"length","type":"uint256","internalType":"uint256"}]},{"type":"error","name":"ECDSAInvalidSignatureS","inputs":[{"name":"s","type":"bytes32","internalType":"bytes32"}]},{"type":"error","name":"ERC1967InvalidImplementation","inputs":[{"name":"implementation","type":"address","internalType":"address"}]},{"type":"error","name":"ERC1967NonPayable","inputs":[]},{"type":"error","name":"EmptyDecryptionProof","inputs":[]},{"type":"error","name":"FailedCall","inputs":[]},{"type":"error","name":"InvalidInitialization","inputs":[]},{"type":"error","name":"InvalidKMSContext","inputs":[{"name":"kmsContextId","type":"uint256","internalType":"uint256"}]},{"type":"error","name":"KMSAlreadySigner","inputs":[]},{"type":"error","name":"KMSInvalidSigner","inputs":[{"name":"invalidSigner","type":"address","internalType":"address"}]},{"type":"error","name":"KMSSignatureThresholdNotReached","inputs":[{"name":"numSignatures","type":"uint256","internalType":"uint256"}]},{"type":"error","name":"KMSSignerNull","inputs":[]},{"type":"error","name":"KMSZeroSignature","inputs":[]},{"type":"error","name":"NotHostOwner","inputs":[{"name":"sender","type":"address","internalType":"address"}]},{"type":"error","name":"NotInitializing","inputs":[]},{"type":"error","name":"NotInitializingFromEmptyProxy","inputs":[]},{"type":"error","name":"SignersSetIsEmpty","inputs":[]},{"type":"error","name":"ThresholdIsAboveNumberOfSigners","inputs":[]},{"type":"error","name":"ThresholdIsNull","inputs":[]},{"type":"error","name":"UUPSUnauthorizedCallContext","inputs":[]},{"type":"error","name":"UUPSUnsupportedProxiableUUID","inputs":[{"name":"slot","type":"bytes32","internalType":"bytes32"}]},{"type":"error","name":"UnsupportedExtraDataVersion","inputs":[{"name":"version","type":"uint8","internalType":"uint8"}]}],"bytecode":{"object":"0x60a080604052346100c257306080525f5160206129845f395f51905f525460ff8160401c166100b3576002600160401b03196001600160401b03821601610060575b6040516128bd90816100c782396080518181816103fa01526105220152f35b6001600160401b0319166001600160401b039081175f5160206129845f395f51905f525581527fc7f505b2f371ae2175ee4913f4499e1f2633a7b5936321eed1cdaeb6115181d290602090a15f80610041565b63f92ee8a960e01b5f5260045ffd5b5f80fdfe60806040526004361015610011575f80fd5b5f3560e01c80630d8e6e2c146101345780632eafb7db1461012f5780634f1ef2861461012a57806352d1902d146101255780635eed767514610120578063724f190b1461011b57806378542ead146101165780637d15c9cf146101115780637df73e271461010c5780637eaac8f21461010757806384b0196e14610102578063976f3eb9146100fd578063ad3cb1cc146100f8578063b7f47bd6146100f3578063c0ae64f7146100ee578063c4115874146100e9578063da53c47d146100e45763e75235b8146100df575f80fd5b610d16565b610c61565b610b8c565b610b08565b610a9e565b610a23565b6109fa565b6108de565b610805565b610787565b61075f565b61067e565b610633565b610572565b610508565b6103b8565b610327565b610171565b805180835260209291819084018484015e5f828201840152601f01601f1916010190565b90602061016e928181520190610139565b90565b34610234575f366003190112610234576102306101f961022460405161019860408261024c565b600b81527f4b4d53566572696669657200000000000000000000000000000000000000000060208201526102166101cd6118a3565b60016102086101da6118f6565b826102086101e66118a3565b9560026040519b8c9a60208c0190610d6a565b61103b60f11b81520190610d6a565b601760f91b81520190610d6a565b03601f19810183528261024c565b6040519182918261015d565b0390f35b5f80fd5b634e487b7160e01b5f52604160045260245ffd5b90601f8019910116810190811067ffffffffffffffff82111761026e57604052565b610238565b6040519061028260608361024c565b565b67ffffffffffffffff811161026e57601f01601f191660200190565b604051906102af60808361024c565b605482527f756c742c627974657320657874726144617461290000000000000000000000006060837f5075626c696344656372797074566572696669636174696f6e2862797465733360208201527f325b5d20637448616e646c65732c62797465732064656372797074656452657360408201520152565b34610234575f366003190112610234576102306103426102a0565b604051918291602083526020830190610139565b6001600160a01b0381160361023457565b92919261037382610284565b91610381604051938461024c565b829481845281830111610234578281602093845f960137010152565b9080601f830112156102345781602061016e93359101610367565b6040366003190112610234576004356103d081610356565b60243567ffffffffffffffff8111610234576103f090369060040161039d565b6001600160a01b037f0000000000000000000000000000000000000000000000000000000000000000168030149081156104d3575b506104c457604051638da5cb5b60e01b81526020816004817350157cffd6bbfa2dece204a89ec419c23ef5755d5afa80156104bf576001600160a01b03915f91610490575b5016330361047d5761047b91611902565b005b63021bfda160e41b5f523360045260245ffd5b6104b2915060203d6020116104b8575b6104aa818361024c565b810190611617565b5f61046a565b503d6104a0565b61162c565b63703e46dd60e11b5f5260045ffd5b90506001600160a01b037f360894a13ba1a3210667c828492db98dca3e2076cc3735a920a3ca505d382bbc541614155f610425565b34610234575f366003190112610234576001600160a01b037f00000000000000000000000000000000000000000000000000000000000000001630036104c45760206040517f360894a13ba1a3210667c828492db98dca3e2076cc3735a920a3ca505d382bbc8152f35b346102345760803660031901126102345760043561058f81610356565b6024359067ffffffffffffffff82168203610234576044359067ffffffffffffffff821161023457366023830112156102345781600401359067ffffffffffffffff8211610234573660248360051b850101116102345761047b936024606435940191610d7c565b90602080835192838152019201905f5b8181106106145750505090565b82516001600160a01b0316845260209384019390920191600101610607565b3461023457602036600319011261023457610230610652600435611272565b6040519182916020835260208301906105f7565b67ffffffffffffffff811161026e5760051b60200190565b346102345760603660031901126102345760043567ffffffffffffffff81116102345736602382011215610234578060040135906106bb82610666565b916106c9604051938461024c565b8083526024602084019160051b8301019136831161023457602401905b82821061074f578360243567ffffffffffffffff81116102345761070e90369060040161039d565b906044359067ffffffffffffffff8211610234576102309261073761073d93369060040161039d565b916113eb565b60405190151581529081906020820190565b81358152602091820191016106e6565b34610234575f3660031901126102345760206107796102a0565b818151910120604051908152f35b3461023457602036600319011261023457602060ff6107f96004356107ab81610356565b5f5160206128485f395f51905f52545f527f7e81a744be86773af8644dd7304fa1dc9350ccabf16cfcaa614ddb78b4ce8905845260405f20906001600160a01b03165f5260205260405f2090565b54166040519015158152f35b34610234575f366003190112610234575f5160206128485f395f51905f52545f527f7e81a744be86773af8644dd7304fa1dc9350ccabf16cfcaa614ddb78b4ce890460205261023061065260405f20611221565b9293906001600160a01b039261088461089292600f60f81b875260e0602088015260e0870190610139565b908582036040870152610139565b9360608401521660808201525f60a082015260c0818303910152602080835192838152019201905f5b8181106108c85750505090565b82518452602093840193909201916001016108bb565b34610234575f366003190112610234577fe910845fd818f61127c84f3586776436a37dead33625056c65162537e33736005415806109d1575b1561098c5767ffffffffffffffff61092d611ed8565b610230610938611fcb565b7fe910845fd818f61127c84f3586776436a37dead33625056c65162537e33736045467ffffffffffffffff60a082901c1693906001600160a01b03169061097d6111d4565b92604051968796169186610859565b60405162461bcd60e51b815260206004820152601560248201527f4549503731323a20556e696e697469616c697a656400000000000000000000006044820152606490fd5b507fe910845fd818f61127c84f3586776436a37dead33625056c65162537e33736015415610917565b34610234575f3660031901126102345760205f5160206128485f395f51905f5254604051908152f35b34610234575f36600319011261023457610230604051610a4460408261024c565b600581527f352e302e300000000000000000000000000000000000000000000000000000006020820152604051918291602083526020830190610139565b929190610a996020916040865260408601906105f7565b930152565b346102345760203660031901126102345760043567ffffffffffffffff8111610234573660238201121561023457806004013567ffffffffffffffff8111610234573660248284010111610234576024610af8920161157d565b9061023060405192839283610a82565b3461023457602036600319011261023457600435604051638da5cb5b60e01b81526020816004817350157cffd6bbfa2dece204a89ec419c23ef5755d5afa80156104bf576001600160a01b03915f91610b6d575b5016330361047d5761047b90611637565b610b86915060203d6020116104b8576104aa818361024c565b5f610b5c565b34610234575f36600319011261023457604051638da5cb5b60e01b81526020816004817350157cffd6bbfa2dece204a89ec419c23ef5755d5afa80156104bf576001600160a01b03915f91610bec575b5016330361047d5761047b6116da565b610c05915060203d6020116104b8576104aa818361024c565b5f610bdc565b929190610c1781610666565b93610c25604051958661024c565b602085838152019160051b810192831161023457905b828210610c4757505050565b602080918335610c5681610356565b815201910190610c3b565b346102345760403660031901126102345760043567ffffffffffffffff8111610234573660238201121561023457610ca3903690602481600401359101610c0b565b602435604051638da5cb5b60e01b81526020816004817350157cffd6bbfa2dece204a89ec419c23ef5755d5afa80156104bf576001600160a01b03915f91610cf7575b5016330361047d5761047b91611861565b610d10915060203d6020116104b8576104aa818361024c565b5f610ce6565b34610234575f366003190112610234575f5160206128485f395f51905f52545f527f7e81a744be86773af8644dd7304fa1dc9350ccabf16cfcaa614ddb78b4ce8906602052602060405f2054604051908152f35b805191908290602001825e015f815290565b9294939190945f5160206128685f395f51905f525467ffffffffffffffff8116600181036111c55760ff8260401c169081156111b9575b506111aa5768ffffffffffffffffff191668010000000000000003175f5160206128685f395f51905f5255604093845196610dee868961024c565b600a88527f44656372797074696f6e000000000000000000000000000000000000000000006020890152610ead865192610e28888561024c565b60018452603160f81b6020850152610e3e612178565b610e46612178565b6001600160a01b031673ffffffffffffffffffffffffffffffffffffffff197fe910845fd818f61127c84f3586776436a37dead33625056c65162537e33736045416177fe910845fd818f61127c84f3586776436a37dead33625056c65162537e337360455565b7fffffffff0000000000000000ffffffffffffffffffffffffffffffffffffffff7bffffffffffffffff00000000000000000000000000000000000000007fe910845fd818f61127c84f3586776436a37dead33625056c65162537e3373604549260a01b169116177fe910845fd818f61127c84f3586776436a37dead33625056c65162537e337360455865167ffffffffffffffff811161026e57610f7b81610f767fe910845fd818f61127c84f3586776436a37dead33625056c65162537e337360254611ea0565b6121a3565b6020601f82116001146110bb57611070959492610fd98361106b9694611000947fc7f505b2f371ae2175ee4913f4499e1f2633a7b5936321eed1cdaeb6115181d29c9d5f926110b0575b50508160011b915f199060031b1c19161790565b7fe910845fd818f61127c84f3586776436a37dead33625056c65162537e337360255612261565b6110285f7fe910845fd818f61127c84f3586776436a37dead33625056c65162537e337360055565b6110505f7fe910845fd818f61127c84f3586776436a37dead33625056c65162537e337360155565b600760f81b5f5160206128485f395f51905f52553691610c0b565b6119d7565b506110a068ff0000000000000000195f5160206128685f395f51905f5254165f5160206128685f395f51905f5255565b516003815280602081015b0390a1565b015190505f80610fc5565b7fe910845fd818f61127c84f3586776436a37dead33625056c65162537e33736025f52601f198216987f7c28feee60e4da326c26903a4f8a719e40f5a1223c1ca127f4c51f0ef2891454995f5b8181106111925750837fc7f505b2f371ae2175ee4913f4499e1f2633a7b5936321eed1cdaeb6115181d29a9b611000946110709a99979461106b99976001951061117a575b505050811b017fe910845fd818f61127c84f3586776436a37dead33625056c65162537e337360255612261565b01515f1960f88460031b161c191690555f808061114d565b838301518c556001909b019a60209384019301611108565b63f92ee8a960e01b5f5260045ffd5b6003915010155f610db3565b636f4f731f60e01b5f5260045ffd5b604051906111e360208361024c565b5f808352366020840137565b906111f982610666565b611206604051918261024c565b8281528092611217601f1991610666565b0190602036910137565b90604051918281549182825260208201905f5260205f20925f5b8181106112505750506102829250038361024c565b84546001600160a01b031683526001948501948794506020909301920161123b565b61127b81611b49565b156112b2575f527f7e81a744be86773af8644dd7304fa1dc9350ccabf16cfcaa614ddb78b4ce890460205261016e60405f20611221565b5061016e6111d4565b634e487b7160e01b5f52603260045260245ffd5b8051156112dc5760200190565b6112bb565b9081518110156112dc570160200190565b634e487b7160e01b5f52601160045260245ffd5b908160410291604183040361131757565b6112f2565b600101908160011161131757565b9190820180921161131757565b9061134182610666565b61134e604051918261024c565b828152809261135f601f1991610666565b01905f5b82811061136f57505050565b806060602080938501015201611363565b60405160809190611391838261024c565b6041815291601f1901366020840137565b906113ac82610284565b6113b9604051918261024c565b8281528092611217601f1991610284565b80518210156112dc5760209160051b010190565b9190820391821161131757565b92919081511561156e5761143961143361142d611407856112cf565b517fff000000000000000000000000000000000000000000000000000000000000001690565b60f81c90565b60ff1690565b9061144b61144683611306565b61131c565b928381511061155f5761145d83611337565b925f5b8181106114eb5750506114748482516113de565b9061147e826113a2565b945f5b8381106114bf57505050506114b361016e94956114b9926114a0610273565b9182526020820152846040820152611bca565b92611c8b565b91611d21565b806114d86114076114d26001948661132a565b866112e1565b5f1a6114e4828a6112e1565b5301611481565b6114f3611380565b6114fd82876113ca565b5261150881866113ca565b505f5b6041811061151c5750600101611460565b8061154061140761153a60019461153561144688611306565b61132a565b876112e1565b6115588261154e868b6113ca565b51925f1a926112e1565b530161150b565b638d9c306960e01b5f5260045ffd5b637db7712360e11b5f5260045ffd5b61158c90611591923691610367565b611c8b565b9061159b82611b49565b1561160457815f527f7e81a744be86773af8644dd7304fa1dc9350ccabf16cfcaa614ddb78b4ce890460205260405f20915f527f7e81a744be86773af8644dd7304fa1dc9350ccabf16cfcaa614ddb78b4ce890660205261160060405f205492611221565b9190565b5063b0dafc1760e01b5f5260045260245ffd5b90816020910312610234575161016e81610356565b6040513d5f823e3d90fd5b5f5160206128485f395f51905f525481146116c85761165581611b49565b156116b657805f527f7e81a744be86773af8644dd7304fa1dc9350ccabf16cfcaa614ddb78b4ce890760205260405f20600160ff198254161790557f6061b48dc9932cb928f0ea6a9d126c1095be843d19641ed27c9164feb79762eb5f80a2565b63b0dafc1760e01b5f5260045260245ffd5b63334ed83360e11b5f5260045260245ffd5b5f5160206128685f395f51905f525460ff8160401c16801561184c575b6111aa5768ffffffffffffffffff191668010000000000000003175f5160206128685f395f51905f5255600760f81b5f5160206128485f395f51905f52557f7e81a744be86773af8644dd7304fa1dc9350ccabf16cfcaa614ddb78b4ce8902546040517f7e81a744be86773af8644dd7304fa1dc9350ccabf16cfcaa614ddb78b4ce890180548083525f91825260208301949392917f145a8827e9bfba2e12db7e3125e9c7a45032a77e46e5b19a76bb8dfdf3b3ce3691905b81811061182d5750505061106b816117ca9495038261024c565b506117fa68ff0000000000000000195f5160206128685f395f51905f5254165f5160206128685f395f51905f5255565b604051600381527fc7f505b2f371ae2175ee4913f4499e1f2633a7b5936321eed1cdaeb6115181d29080602081016110ab565b82546001600160a01b03168752602090960195600192830192016117b0565b50600367ffffffffffffffff821610156116f7565b907f520e0adcbbe0d097dfe4b243c722ac80df9c2413c936b092d9c4888118f01f929061188e81846119d7565b9261189e60405192839283610a82565b0390a2565b5f6118ae60016113a2565b90600a602183015b5f1901917f30313233343536373839616263646566000000000000000000000000000000008282061a83530480156118f157600a90916118b6565b505090565b60026118ae60016113a2565b6040516352d1902d60e01b81529290916020846004816001600160a01b0387165afa5f9481611995575b5061194d57634c9c8ce360e01b5f526001600160a01b03831660045260245ffd5b90917f360894a13ba1a3210667c828492db98dca3e2076cc3735a920a3ca505d382bbc84036119815761028292935061209e565b632a87526960e21b5f52600484905260245ffd5b9094506020813d6020116119c1575b816119b16020938361024c565b810103126102345751935f61192c565b3d91506119a4565b5f1981146113175760010190565b805115611b3a576119f55f5160206128485f395f51905f52546119c9565b92835f5160206128485f395f51905f525583905f5b8351811015611b2c576001600160a01b03611a2582866113ca565b5116908115611b1d57611a83611a7c83611a668a5f527f7e81a744be86773af8644dd7304fa1dc9350ccabf16cfcaa614ddb78b4ce890560205260405f2090565b906001600160a01b03165f5260205260405f2090565b5460ff1690565b611b0e57611b08611afb83611aca600195611ac58c5f527f7e81a744be86773af8644dd7304fa1dc9350ccabf16cfcaa614ddb78b4ce890460205260405f2090565b6123d4565b611a668a5f527f7e81a744be86773af8644dd7304fa1dc9350ccabf16cfcaa614ddb78b4ce890560205260405f2090565b805460ff19166001179055565b01611a0a565b632625690b60e21b5f5260045ffd5b63fede5bbd60e01b5f5260045ffd5b509290936102829250612425565b631286e95160e01b5f5260045ffd5b7f07000000000000000000000000000000000000000000000000000000000000018110159081611bb1575b81611b7d575090565b90505f527f7e81a744be86773af8644dd7304fa1dc9350ccabf16cfcaa614ddb78b4ce890760205260ff60405f2054161590565b5f5160206128485f395f51905f52548111159150611b74565b90611bd36102a0565b6020815191012082519260405160208101908160208751919701905f5b818110611c75575050509081611c16611c6d9361016e979803601f19810183528261024c565b5190206102166040602085015160208151910120940151604051611c4281610216602082018095610d6a565b5190206040519485936020850197889094939260609260808301968352602083015260408201520152565b5190206124a8565b8251895260209889019890920191600101611bf0565b8051158015611cfe575b611ceb57611ca861142d611407836112cf565b90600160ff831614611cca5763084e730b60e21b5f5260ff821660045260245ffd5b90506021815110611cdc576021015190565b630459245b60e51b5f5260045ffd5b505f5160206128485f395f51905f525490565b5060ff611d1a611d0d836112cf565b8260f81b90511660f81c90565b1615611c95565b8151928315611e9157611d3a611d3682611b49565b1590565b611e7f57611d6f815f527f7e81a744be86773af8644dd7304fa1dc9350ccabf16cfcaa614ddb78b4ce890660205260405f2090565b5490818510611e6b57611d81856111ef565b925f945f5b878110611da0575050505050611d9c9250612561565b5f90565b611db4611dad82846113ca565b51846125d2565b611def611d36611a7c83611a66895f527f7e81a744be86773af8644dd7304fa1dc9350ccabf16cfcaa614ddb78b4ce890560205260405f2090565b611e5057805c15611e20575b5084871015611e0c57600101611d86565b5050505050611e1b9250612561565b600190565b96611e4881611e438a611e356001958c6113ca565b906001600160a01b03169052565b6119c9565b975d5f611dfb565b636475522d60e01b5f526001600160a01b031660045260245ffd5b632a71fc9360e21b5f52600485905260245ffd5b63b0dafc1760e01b5f5260045260245ffd5b632b8241b760e11b5f5260045ffd5b90600182811c92168015611ece575b6020831014611eba57565b634e487b7160e01b5f52602260045260245ffd5b91607f1691611eaf565b604051905f827fe910845fd818f61127c84f3586776436a37dead33625056c65162537e33736025491611f0a83611ea0565b8083529260018116908115611fac5750600114611f2e575b6102829250038361024c565b507fe910845fd818f61127c84f3586776436a37dead33625056c65162537e33736025f90815290917f7c28feee60e4da326c26903a4f8a719e40f5a1223c1ca127f4c51f0ef28914545b818310611f9057505090602061028292820101611f22565b6020919350806001915483858901015201910190918492611f78565b6020925061028294915060ff191682840152151560051b820101611f22565b604051905f827fe910845fd818f61127c84f3586776436a37dead33625056c65162537e33736035491611ffd83611ea0565b8083529260018116908115611fac5750600114612020576102829250038361024c565b507fe910845fd818f61127c84f3586776436a37dead33625056c65162537e33736035f90815290917f0a2c3f59fcdd313abfb988a349b11378f5de0916e0010e1141adc7f546d07f185b81831061208257505090602061028292820101611f22565b602091935080600191548385890101520191019091849261206a565b90813b1561215c576001600160a01b0382168073ffffffffffffffffffffffffffffffffffffffff197f360894a13ba1a3210667c828492db98dca3e2076cc3735a920a3ca505d382bbc5416177f360894a13ba1a3210667c828492db98dca3e2076cc3735a920a3ca505d382bbc557fbc7cd75a20ee27fd9adebab32041f755214dbc6bffa90cc0225b39da2e5c2d3b5f80a2805115612144576121419161258e565b50565b50503461214d57565b63b398979f60e01b5f5260045ffd5b6001600160a01b0382634c9c8ce360e01b5f521660045260245ffd5b60ff5f5160206128685f395f51905f525460401c161561219457565b631afcd79f60e31b5f5260045ffd5b601f81116121af575050565b7fe910845fd818f61127c84f3586776436a37dead33625056c65162537e33736025f5260205f20906020601f840160051c83019310612208575b601f0160051c01905b8181106121fd575050565b5f81556001016121f2565b90915081906121e9565b601f821161221f57505050565b5f5260205f20906020601f840160051c83019310612257575b601f0160051c01905b81811061224c575050565b5f8155600101612241565b9091508190612238565b90815167ffffffffffffffff811161026e576122c7816122a17fe910845fd818f61127c84f3586776436a37dead33625056c65162537e337360354611ea0565b7fe910845fd818f61127c84f3586776436a37dead33625056c65162537e3373603612212565b602092601f821160011461231a576122f6929382915f926110b05750508160011b915f199060031b1c19161790565b7fe910845fd818f61127c84f3586776436a37dead33625056c65162537e337360355565b7fe910845fd818f61127c84f3586776436a37dead33625056c65162537e33736035f52601f198216937f0a2c3f59fcdd313abfb988a349b11378f5de0916e0010e1141adc7f546d07f18915f5b8681106123bc57508360019596106123a4575b505050811b017fe910845fd818f61127c84f3586776436a37dead33625056c65162537e337360355565b01515f1960f88460031b161c191690555f808061237a565b91926020600181928685015181550194019201612367565b80546801000000000000000081101561026e57600181018083558110156112dc576001600160a01b03915f5260205f2001911673ffffffffffffffffffffffffffffffffffffffff19825416179055565b811561249957805f527f7e81a744be86773af8644dd7304fa1dc9350ccabf16cfcaa614ddb78b4ce890460205260405f2054821161248a575f527f7e81a744be86773af8644dd7304fa1dc9350ccabf16cfcaa614ddb78b4ce890660205260405f2055565b6335194e6360e01b5f5260045ffd5b630151f13160e71b5f5260045ffd5b6042906124b3612716565b6124bb612780565b6001600160a01b037fe910845fd818f61127c84f3586776436a37dead33625056c65162537e3373604546040519260208401947f8b73c3c69bb8fe3d512ecc4cf759cc79239f7b179b0ffacaa9a75d522b39400f86526040850152606084015267ffffffffffffffff8160a01c1660808401521660a082015260a0815261254360c08261024c565b519020906040519161190160f01b8352600283015260228201522090565b5f5b82811061256f57505050565b805f6001600160a01b03612585600194866113ca565b51165d01612563565b5f8061016e93602081519101845af43d156125ca573d916125ae83610284565b926125bc604051948561024c565b83523d5f602085013e6125e8565b6060916125e8565b61016e916125df91612642565b9092919261269a565b9061260c57508051156125fd57805190602001fd5b63d6bda27560e01b5f5260045ffd5b81511580612639575b61261d575090565b6001600160a01b0390639996b31560e01b5f521660045260245ffd5b50803b15612615565b81519190604183036126725761266b9250602082015190606060408401519301515f1a906127c5565b9192909190565b50505f9160029190565b6004111561268657565b634e487b7160e01b5f52602160045260245ffd5b6126a38161267c565b806126ac575050565b6126b58161267c565b600181036126cc5763f645eedf60e01b5f5260045ffd5b6126d58161267c565b600281036126f0575063fce698f760e01b5f5260045260245ffd5b806126fc60039261267c565b146127045750565b6335e2f38360e21b5f5260045260245ffd5b61271e611ed8565b805190811561272e576020012090565b50507fe910845fd818f61127c84f3586776436a37dead33625056c65162537e337360054801561275b5790565b507fc5d2460186f7233c927e7db2dcc703c0e500b653ca82273b7bfad8045d85a47090565b612788611fcb565b8051908115612798576020012090565b50507fe910845fd818f61127c84f3586776436a37dead33625056c65162537e337360154801561275b5790565b91907f7fffffffffffffffffffffffffffffff5d576e7357a4501ddfe92f46681b20a0841161283c579160209360809260ff5f9560405194855216868401526040830152606082015282805260015afa156104bf575f516001600160a01b0381161561283257905f905f90565b505f906001905f90565b5050505f916003919056fe7e81a744be86773af8644dd7304fa1dc9350ccabf16cfcaa614ddb78b4ce8903f0c57e16840df040f15088dc2f81fe391c3923bec73e23a9662efc9c229c6a00a2646970667358221220d840741b58e2325bbc3b09503addb6cad1f790f6eb3b57778b70d75794a21b7c64736f6c634300081b0033f0c57e16840df040f15088dc2f81fe391c3923bec73e23a9662efc9c229c6a00","linkReferences":{}},"methodIdentifiers":{"DECRYPTION_RESULT_TYPEHASH()":"7d15c9cf","EIP712_PUBLIC_DECRYPT_TYPE()":"2eafb7db","UPGRADE_INTERFACE_VERSION()":"ad3cb1cc","defineNewContext(address[],uint256)":"da53c47d","destroyKmsContext(uint256)":"c0ae64f7","eip712Domain()":"84b0196e","getContextSignersAndThresholdFromExtraData(bytes)":"b7f47bd6","getCurrentKmsContextId()":"976f3eb9","getKmsSigners()":"7eaac8f2","getSignersForKmsContext(uint256)":"724f190b","getThreshold()":"e75235b8","getVersion()":"0d8e6e2c","initializeFromEmptyProxy(address,uint64,address[],uint256)":"5eed7675","isSigner(address)":"7df73e27","proxiableUUID()":"52d1902d","reinitializeV2()":"c4115874","upgradeToAndCall(address,bytes)":"4f1ef286","verifyDecryptionEIP712KMSSignatures(bytes32[],bytes,bytes)":"78542ead"},"id":59}