{"abi":[{"type":"constructor","inputs":[],"stateMutability":"nonpayable"},{"type":"function","name":"UPGRADE_INTERFACE_VERSION","inputs":[],"outputs":[{"name":"","type":"string","internalType":"string"}],"stateMutability":"view"},{"type":"function","name":"acceptOwnership","inputs":[],"outputs":[],"stateMutability":"nonpayable"},{"type":"function","name":"allow","inputs":[{"name":"handle","type":"bytes32","internalType":"bytes32"},{"name":"account","type":"address","internalType":"address"}],"outputs":[],"stateMutability":"nonpayable"},{"type":"function","name":"allowForDecryption","inputs":[{"name":"handlesList","type":"bytes32[]","internalType":"bytes32[]"}],"outputs":[],"stateMutability":"nonpayable"},{"type":"function","name":"allowTransient","inputs":[{"name":"handle","type":"bytes32","internalType":"bytes32"},{"name":"account","type":"address","internalType":"address"}],"outputs":[],"stateMutability":"nonpayable"},{"type":"function","name":"allowedTransient","inputs":[{"name":"handle","type":"bytes32","internalType":"bytes32"},{"name":"account","type":"address","internalType":"address"}],"outputs":[{"name":"","type":"bool","internalType":"bool"}],"stateMutability":"view"},{"type":"function","name":"blockAccount","inputs":[{"name":"account","type":"address","internalType":"address"}],"outputs":[],"stateMutability":"nonpayable"},{"type":"function","name":"cleanTransientStorage","inputs":[],"outputs":[],"stateMutability":"nonpayable"},{"type":"function","name":"delegateForUserDecryption","inputs":[{"name":"delegate","type":"address","internalType":"address"},{"name":"contractAddress","type":"address","internalType":"address"},{"name":"expirationDate","type":"uint64","internalType":"uint64"}],"outputs":[],"stateMutability":"nonpayable"},{"type":"function","name":"getFHEVMExecutorAddress","inputs":[],"outputs":[{"name":"","type":"address","internalType":"address"}],"stateMutability":"view"},{"type":"function","name":"getPauserSetAddress","inputs":[],"outputs":[{"name":"","type":"address","internalType":"address"}],"stateMutability":"view"},{"type":"function","name":"getUserDecryptionDelegationExpirationDate","inputs":[{"name":"delegator","type":"address","internalType":"address"},{"name":"delegate","type":"address","internalType":"address"},{"name":"contractAddress","type":"address","internalType":"address"}],"outputs":[{"name":"","type":"uint64","internalType":"uint64"}],"stateMutability":"view"},{"type":"function","name":"getVersion","inputs":[],"outputs":[{"name":"","type":"string","internalType":"string"}],"stateMutability":"pure"},{"type":"function","name":"initializeFromEmptyProxy","inputs":[],"outputs":[],"stateMutability":"nonpayable"},{"type":"function","name":"isAccountDenied","inputs":[{"name":"account","type":"address","internalType":"address"}],"outputs":[{"name":"","type":"bool","internalType":"bool"}],"stateMutability":"view"},{"type":"function","name":"isAllowed","inputs":[{"name":"handle","type":"bytes32","internalType":"bytes32"},{"name":"account","type":"address","internalType":"address"}],"outputs":[{"name":"","type":"bool","internalType":"bool"}],"stateMutability":"view"},{"type":"function","name":"isAllowedForDecryption","inputs":[{"name":"handle","type":"bytes32","internalType":"bytes32"}],"outputs":[{"name":"","type":"bool","internalType":"bool"}],"stateMutability":"view"},{"type":"function","name":"isHandleDelegatedForUserDecryption","inputs":[{"name":"delegator","type":"address","internalType":"address"},{"name":"delegate","type":"address","internalType":"address"},{"name":"contractAddress","type":"address","internalType":"address"},{"name":"handle","type":"bytes32","internalType":"bytes32"}],"outputs":[{"name":"","type":"bool","internalType":"bool"}],"stateMutability":"view"},{"type":"function","name":"isPauser","inputs":[{"name":"account","type":"address","internalType":"address"}],"outputs":[{"name":"","type":"bool","internalType":"bool"}],"stateMutability":"view"},{"type":"function","name":"multicall","inputs":[{"name":"data","type":"bytes[]","internalType":"bytes[]"}],"outputs":[{"name":"results","type":"bytes[]","internalType":"bytes[]"}],"stateMutability":"nonpayable"},{"type":"function","name":"owner","inputs":[],"outputs":[{"name":"","type":"address","internalType":"address"}],"stateMutability":"view"},{"type":"function","name":"pause","inputs":[],"outputs":[],"stateMutability":"nonpayable"},{"type":"function","name":"paused","inputs":[],"outputs":[{"name":"","type":"bool","internalType":"bool"}],"stateMutability":"view"},{"type":"function","name":"pendingOwner","inputs":[],"outputs":[{"name":"","type":"address","internalType":"address"}],"stateMutability":"view"},{"type":"function","name":"persistAllowed","inputs":[{"name":"handle","type":"bytes32","internalType":"bytes32"},{"name":"account","type":"address","internalType":"address"}],"outputs":[{"name":"","type":"bool","internalType":"bool"}],"stateMutability":"view"},{"type":"function","name":"proxiableUUID","inputs":[],"outputs":[{"name":"","type":"bytes32","internalType":"bytes32"}],"stateMutability":"view"},{"type":"function","name":"reinitializeV3","inputs":[],"outputs":[],"stateMutability":"nonpayable"},{"type":"function","name":"renounceOwnership","inputs":[],"outputs":[],"stateMutability":"nonpayable"},{"type":"function","name":"revokeDelegationForUserDecryption","inputs":[{"name":"delegate","type":"address","internalType":"address"},{"name":"contractAddress","type":"address","internalType":"address"}],"outputs":[],"stateMutability":"nonpayable"},{"type":"function","name":"transferOwnership","inputs":[{"name":"newOwner","type":"address","internalType":"address"}],"outputs":[],"stateMutability":"nonpayable"},{"type":"function","name":"unblockAccount","inputs":[{"name":"account","type":"address","internalType":"address"}],"outputs":[],"stateMutability":"nonpayable"},{"type":"function","name":"unpause","inputs":[],"outputs":[],"stateMutability":"nonpayable"},{"type":"function","name":"upgradeToAndCall","inputs":[{"name":"newImplementation","type":"address","internalType":"address"},{"name":"data","type":"bytes","internalType":"bytes"}],"outputs":[],"stateMutability":"payable"},{"type":"event","name":"Allowed","inputs":[{"name":"caller","type":"address","indexed":true,"internalType":"address"},{"name":"account","type":"address","indexed":true,"internalType":"address"},{"name":"handle","type":"bytes32","indexed":false,"internalType":"bytes32"}],"anonymous":false},{"type":"event","name":"AllowedForDecryption","inputs":[{"name":"caller","type":"address","indexed":true,"internalType":"address"},{"name":"handlesList","type":"bytes32[]","indexed":false,"internalType":"bytes32[]"}],"anonymous":false},{"type":"event","name":"BlockedAccount","inputs":[{"name":"account","type":"address","indexed":true,"internalType":"address"}],"anonymous":false},{"type":"event","name":"DelegatedForUserDecryption","inputs":[{"name":"delegator","type":"address","indexed":true,"internalType":"address"},{"name":"delegate","type":"address","indexed":true,"internalType":"address"},{"name":"contractAddress","type":"address","indexed":false,"internalType":"address"},{"name":"delegationCounter","type":"uint64","indexed":false,"internalType":"uint64"},{"name":"oldExpirationDate","type":"uint64","indexed":false,"internalType":"uint64"},{"name":"newExpirationDate","type":"uint64","indexed":false,"internalType":"uint64"}],"anonymous":false},{"type":"event","name":"Initialized","inputs":[{"name":"version","type":"uint64","indexed":false,"internalType":"uint64"}],"anonymous":false},{"type":"event","name":"OwnershipTransferStarted","inputs":[{"name":"previousOwner","type":"address","indexed":true,"internalType":"address"},{"name":"newOwner","type":"address","indexed":true,"internalType":"address"}],"anonymous":false},{"type":"event","name":"OwnershipTransferred","inputs":[{"name":"previousOwner","type":"address","indexed":true,"internalType":"address"},{"name":"newOwner","type":"address","indexed":true,"internalType":"address"}],"anonymous":false},{"type":"event","name":"Paused","inputs":[{"name":"account","type":"address","indexed":false,"internalType":"address"}],"anonymous":false},{"type":"event","name":"RevokedDelegationForUserDecryption","inputs":[{"name":"delegator","type":"address","indexed":true,"internalType":"address"},{"name":"delegate","type":"address","indexed":true,"internalType":"address"},{"name":"contractAddress","type":"address","indexed":false,"internalType":"address"},{"name":"delegationCounter","type":"uint64","indexed":false,"internalType":"uint64"},{"name":"oldExpirationDate","type":"uint64","indexed":false,"internalType":"uint64"}],"anonymous":false},{"type":"event","name":"UnblockedAccount","inputs":[{"name":"account","type":"address","indexed":true,"internalType":"address"}],"anonymous":false},{"type":"event","name":"Unpaused","inputs":[{"name":"account","type":"address","indexed":false,"internalType":"address"}],"anonymous":false},{"type":"event","name":"Upgraded","inputs":[{"name":"implementation","type":"address","indexed":true,"internalType":"address"}],"anonymous":false},{"type":"error","name":"AccountAlreadyBlocked","inputs":[{"name":"account","type":"address","internalType":"address"}]},{"type":"error","name":"AccountNotBlocked","inputs":[{"name":"account","type":"address","internalType":"address"}]},{"type":"error","name":"AddressEmptyCode","inputs":[{"name":"target","type":"address","internalType":"address"}]},{"type":"error","name":"AlreadyDelegatedOrRevokedInSameBlock","inputs":[{"name":"delegator","type":"address","internalType":"address"},{"name":"delegate","type":"address","internalType":"address"},{"name":"contractAddress","type":"address","internalType":"address"},{"name":"blockNumber","type":"uint256","internalType":"uint256"}]},{"type":"error","name":"DelegateCannotBeContractAddress","inputs":[{"name":"contractAddress","type":"address","internalType":"address"}]},{"type":"error","name":"ERC1967InvalidImplementation","inputs":[{"name":"implementation","type":"address","internalType":"address"}]},{"type":"error","name":"ERC1967NonPayable","inputs":[]},{"type":"error","name":"EnforcedPause","inputs":[]},{"type":"error","name":"ExpectedPause","inputs":[]},{"type":"error","name":"ExpirationDateAlreadySetToSameValue","inputs":[{"name":"delegator","type":"address","internalType":"address"},{"name":"delegate","type":"address","internalType":"address"},{"name":"contractAddress","type":"address","internalType":"address"},{"name":"expirationDate","type":"uint256","internalType":"uint256"}]},{"type":"error","name":"ExpirationDateInThePast","inputs":[]},{"type":"error","name":"FailedCall","inputs":[]},{"type":"error","name":"HandlesListIsEmpty","inputs":[]},{"type":"error","name":"InvalidInitialization","inputs":[]},{"type":"error","name":"NotDelegatedYet","inputs":[{"name":"delegator","type":"address","internalType":"address"},{"name":"delegate","type":"address","internalType":"address"},{"name":"contractAddress","type":"address","internalType":"address"}]},{"type":"error","name":"NotInitializing","inputs":[]},{"type":"error","name":"NotInitializingFromEmptyProxy","inputs":[]},{"type":"error","name":"NotPauser","inputs":[{"name":"sender","type":"address","internalType":"address"}]},{"type":"error","name":"OwnableInvalidOwner","inputs":[{"name":"owner","type":"address","internalType":"address"}]},{"type":"error","name":"OwnableUnauthorizedAccount","inputs":[{"name":"account","type":"address","internalType":"address"}]},{"type":"error","name":"SenderCannotBeContractAddress","inputs":[{"name":"contractAddress","type":"address","internalType":"address"}]},{"type":"error","name":"SenderCannotBeDelegate","inputs":[{"name":"delegate","type":"address","internalType":"address"}]},{"type":"error","name":"SenderDenied","inputs":[{"name":"sender","type":"address","internalType":"address"}]},{"type":"error","name":"SenderNotAllowed","inputs":[{"name":"sender","type":"address","internalType":"address"}]},{"type":"error","name":"UUPSUnauthorizedCallContext","inputs":[]},{"type":"error","name":"UUPSUnsupportedProxiableUUID","inputs":[{"name":"slot","type":"bytes32","internalType":"bytes32"}]}],"bytecode":{"object":"0x60a080604052346100c257306080525f5160206120a75f395f51905f525460ff8160401c166100b3576002600160401b03196001600160401b03821601610060575b604051611fe090816100c78239608051818181610efd0152610fd40152f35b6001600160401b0319166001600160401b039081175f5160206120a75f395f51905f525581527fc7f505b2f371ae2175ee4913f4499e1f2633a7b5936321eed1cdaeb6115181d290602090a15f80610041565b63f92ee8a960e01b5f5260045ffd5b5f80fdfe60806040526004361015610011575f80fd5b5f3560e01c806304f61a951461197e5780630d8e6e2c1461178c5780631e2f86ba146117235780632490fc9a146116f5578063268d6d31146116c757806335334c231461169357806339f73810146114ed5780633e395cec1461140f5780633f462dbe146113715780633f4ba83a146112f357806346fbf68e1461126a5780634d78fdc6146111a85780634f1ef28614610f5c57806352d1902d14610ee35780635c975abb14610eb5578063669e631614610cd7578063715018a614610c3e57806374b79a5a14610c1857806379ba509714610bcc5780637c0a893d14610b0857806382027b6d14610ad85780638456cb59146109de5780638da5cb5b146109ac5780639edc01ec1461095d578063ac9650d8146107a4578063ad3cb1cc14610741578063b9496b6214610664578063bac22bb81461059d578063c0d029431461054f578063d09c0dee14610405578063e30c3978146103d3578063f2fde38b146103415763fadd224614610184575f80fd5b3461033d57602036600319011261033d5760043567ffffffffffffffff811161033d573660238201121561033d578060040135906101c182611c5c565b906101cf6040519283611c0a565b828252602082016024819460051b8301019136831161033d57602401905b82821061032d575050506101ff611d7e565b8051801561031e5760ff610230336001600160a01b03165f525f516020611f4b5f395f51905f5260205260405f2090565b541661030b575f5b8181106102a057505060405190602082019060208352518091526040820192905f5b81811061028a57337fd913ac93a959116526793ef772233273d5249597d33cddfdc34f29920541fd0a85870386a2005b825185526020948501949092019160010161025a565b6102aa8184611d56565b51906102b63383611cf8565b156102f8576001915f527fa688f31953c2015baaf8c0a488ee1ee22eb0e05273cc1fd31ea4cbee42febc0160205260405f208260ff1982541617905501610238565b6368692cbb60e11b5f523360045260245ffd5b6353c1055f60e11b5f523360045260245ffd5b63385e8ccb60e11b5f5260045ffd5b81358152602091820191016101ed565b5f80fd5b3461033d57602036600319011261033d576001600160a01b03610362611ba4565b61036a611da5565b16806001600160a01b03195f516020611f8b5f395f51905f525416175f516020611f8b5f395f51905f52556001600160a01b035f516020611f2b5f395f51905f5254167f38d16b8cac22d99fc7c124b9cd0de2d3fa1faef420bfe791d8c362d765e227005f80a3005b3461033d575f36600319011261033d5760206001600160a01b035f516020611f8b5f395f51905f525416604051908152f35b3461033d57608036600319011261033d576020610420611ba4565b610428611bba565b90610431611bd0565b606435926001600160a01b03610477846001600160a01b03165f527fa688f31953c2015baaf8c0a488ee1ee22eb0e05273cc1fd31ea4cbee42febc0260205260405f2090565b91165f52845260405f206001600160a01b0382165f52845260405f2091835f527fa688f31953c2015baaf8c0a488ee1ee22eb0e05273cc1fd31ea4cbee42febc0085526001600160a01b0360405f2091165f52845260ff60405f2054169283610504575b5050816104ee575b506040519015158152f35b67ffffffffffffffff91505416421115826104e3565b909192505f527fa688f31953c2015baaf8c0a488ee1ee22eb0e05273cc1fd31ea4cbee42febc0083526001600160a01b0360405f2091165f52825260ff60405f2054169083806104db565b3461033d57602036600319011261033d576004355f527fa688f31953c2015baaf8c0a488ee1ee22eb0e05273cc1fd31ea4cbee42febc01602052602060ff60405f2054166040519015158152f35b3461033d575f36600319011261033d577ff0c57e16840df040f15088dc2f81fe391c3923bec73e23a9662efc9c229c6a005460ff8160401c16801561064f575b6106405760049068ffffffffffffffffff1916177ff0c57e16840df040f15088dc2f81fe391c3923bec73e23a9662efc9c229c6a00557fc7f505b2f371ae2175ee4913f4499e1f2633a7b5936321eed1cdaeb6115181d2602060405160048152a1005b63f92ee8a960e01b5f5260045ffd5b50600467ffffffffffffffff821610156105dd565b3461033d57604036600319011261033d57600435610680611bba565b610688611d7e565b60ff6106b1336001600160a01b03165f525f516020611f4b5f395f51905f5260205260405f2090565b541661030b576106c13383611cf8565b156102f8576001600160a01b0390825f527fa688f31953c2015baaf8c0a488ee1ee22eb0e05273cc1fd31ea4cbee42febc0060205260405f208282165f5260205260405f20600160ff1982541617905560405192835216907fe2e1decee6e05ee246cd7c7f1337d25cdfd41dcbdcf8c57b61630be56cc7366a60203392a3005b3461033d575f36600319011261033d576107a0604051610762604082611c0a565b600581527f352e302e300000000000000000000000000000000000000000000000000000006020820152604051918291602083526020830190611be6565b0390f35b3461033d57602036600319011261033d5760043567ffffffffffffffff811161033d573660238201121561033d5780600401359067ffffffffffffffff821161033d573660248360051b8301011161033d57604051919060206108078185611c0a565b5f845280840191601f19820136843761081f84611c5c565b9061082d6040519283611c0a565b848252601f1961083c86611c5c565b015f5b81811061094e5750503681900360421901905f5b868110156108ed5760248160051b830101358381121561033d5782019060248201359167ffffffffffffffff831161033d57604401823603811361033d57826108cb6108d192898b8e60019860405196879585870137840190838201905f8252519283915e01015f815203601f198101835282611c0a565b30611e4b565b6108db8287611d56565b526108e68186611d56565b5001610853565b5050506040519082820192808352815180945260408301938160408260051b8601019301915f955b8287106109225785850386f35b90919293828061093e600193603f198a82030186528851611be6565b9601920196019592919092610915565b6060848201860152840161083f565b3461033d57602036600319011261033d57602060ff6109a061097d611ba4565b6001600160a01b03165f525f516020611f4b5f395f51905f5260205260405f2090565b54166040519015158152f35b3461033d575f36600319011261033d5760206001600160a01b035f516020611f2b5f395f51905f525416604051908152f35b3461033d575f36600319011261033d5760405163237dfb4760e11b815233600482015260208160248173b7278a61aa25c888815afc32ad3cc52ff24fe5755afa908115610acd575f91610a9e575b5015610a8b57610a3a611d7e565b600160ff195f516020611f6b5f395f51905f525416175f516020611f6b5f395f51905f52557f62e78cea01bee320cd4e420270b5ea74000d11b0c9f74754ebdbfc544b05a2586020604051338152a1005b6310351a3760e11b5f523360045260245ffd5b610ac0915060203d602011610ac6575b610ab88183611c0a565b810190611ca7565b81610a2c565b503d610aae565b6040513d5f823e3d90fd5b3461033d57604036600319011261033d576020610afe610af6611bba565b600435611cf8565b6040519015158152f35b3461033d57602036600319011261033d576001600160a01b03610b29611ba4565b610b31611da5565b60ff610b5a826001600160a01b03165f525f516020611f4b5f395f51905f5260205260405f2090565b5416610bb957610b87816001600160a01b03165f525f516020611f4b5f395f51905f5260205260405f2090565b805460ff19166001179055167f8632489584ac3cfc9b78cc6c2197c31ca9e3821bfa5ca5c9af28917b92db24d95f80a2005b634099a80360e01b5f521660045260245ffd5b3461033d575f36600319011261033d57336001600160a01b035f516020611f8b5f395f51905f52541603610c0557610c0333611dc5565b005b63118cdaa760e01b5f523360045260245ffd5b3461033d57604036600319011261033d576020610afe610c36611bba565b600435611cbf565b3461033d575f36600319011261033d57610c56611da5565b6001600160a01b03195f516020611f8b5f395f51905f5254165f516020611f8b5f395f51905f52555f6001600160a01b035f516020611f2b5f395f51905f52546001600160a01b031981165f516020611f2b5f395f51905f5255167f8be0079c531659141344cd1fd0a4f28419497f9722a3daafe3b4186f6b6457e08280a3005b3461033d57604036600319011261033d57610cf0611ba4565b610cf8611bba565b610d00611d7e565b335f9081527fa688f31953c2015baaf8c0a488ee1ee22eb0e05273cc1fd31ea4cbee42febc02602052604090206001600160a01b0383165f5260205260405f206001600160a01b0382165f5260205260405f20914367ffffffffffffffff845460401c1614610e805782546fffffffffffffffff00000000000000004360401b166fffffffffffffffff000000000000000019821617845567ffffffffffffffff168015610e5a5767ffffffffffffffff6001600160a01b03939481198154168155610e1d610dd483835460801c16611c74565b82547fffffffffffffffff0000000000000000ffffffffffffffffffffffffffffffff16608082901b77ffffffffffffffff000000000000000000000000000000001617909255565b8460405196168652166020850152604084015216907f7aca80b6b7928b9038f186e3d9922a0fc5d52c398fbf144725c142c52a5277e460603392a3005b6001600160a01b0383818463c227e90560e01b5f5233600452166024521660445260645ffd5b604051633c3b22bb60e21b81523360048201526001600160a01b03918216602482015291166044820152436064820152608490fd5b3461033d575f36600319011261033d57602060ff5f516020611f6b5f395f51905f5254166040519015158152f35b3461033d575f36600319011261033d576001600160a01b037f0000000000000000000000000000000000000000000000000000000000000000163003610f4d5760206040517f360894a13ba1a3210667c828492db98dca3e2076cc3735a920a3ca505d382bbc8152f35b63703e46dd60e11b5f5260045ffd5b604036600319011261033d57610f70611ba4565b6024359067ffffffffffffffff821161033d573660238301121561033d578160040135610f9c81611c40565b92610faa6040519485611c0a565b818452366024838301011161033d57815f9260246020930183870137840101526001600160a01b037f000000000000000000000000000000000000000000000000000000000000000016803014908115611173575b50610f4d5761100c611da5565b6040516352d1902d60e01b81526001600160a01b0382169290602081600481875afa5f918161113f575b5061104e5783634c9c8ce360e01b5f5260045260245ffd5b807f360894a13ba1a3210667c828492db98dca3e2076cc3735a920a3ca505d382bbc85920361112d5750823b1561111b57806001600160a01b03197f360894a13ba1a3210667c828492db98dca3e2076cc3735a920a3ca505d382bbc5416177f360894a13ba1a3210667c828492db98dca3e2076cc3735a920a3ca505d382bbc557fbc7cd75a20ee27fd9adebab32041f755214dbc6bffa90cc0225b39da2e5c2d3b5f80a280511561110357610c0391611e4b565b50503461110c57005b63b398979f60e01b5f5260045ffd5b634c9c8ce360e01b5f5260045260245ffd5b632a87526960e21b5f5260045260245ffd5b9091506020813d60201161116b575b8161115b60209383611c0a565b8101031261033d57519085611036565b3d915061114e565b90506001600160a01b037f360894a13ba1a3210667c828492db98dca3e2076cc3735a920a3ca505d382bbc5416141583610fff565b3461033d57602036600319011261033d576001600160a01b036111c9611ba4565b6111d1611da5565b60ff6111fa826001600160a01b03165f525f516020611f4b5f395f51905f5260205260405f2090565b54161561125757611228816001600160a01b03165f525f516020611f4b5f395f51905f5260205260405f2090565b805460ff19169055167fa885a62df16bfeabc96ed9b845b30dd4038f039ca1679490125c314222355e3f5f80a2005b633252e5a360e11b5f521660045260245ffd5b3461033d57602036600319011261033d57611283611ba4565b6001600160a01b036040519163237dfb4760e11b835216600482015260208160248173b7278a61aa25c888815afc32ad3cc52ff24fe5755afa8015610acd576020915f916112d657506040519015158152f35b6112ed9150823d8411610ac657610ab88183611c0a565b826104e3565b3461033d575f36600319011261033d5761130b611da5565b5f516020611f6b5f395f51905f525460ff8116156113625760ff19165f516020611f6b5f395f51905f52557f5db9ee0a495bf2e6ff9c91a7834c1ba4fdd244a5e8aa4e537bd38aeae4b073aa6020604051338152a1005b638dfc202b60e01b5f5260045ffd5b3461033d57606036600319011261033d5761138a611ba4565b611392611bba565b6001600160a01b036113dc6113a5611bd0565b936001600160a01b03165f527fa688f31953c2015baaf8c0a488ee1ee22eb0e05273cc1fd31ea4cbee42febc0260205260405f2090565b91165f526020526001600160a01b0360405f2091165f52602052602067ffffffffffffffff60405f205416604051908152f35b3461033d57604036600319011261033d5760043561142b611bba565b611433611d7e565b73e3a9105a3a932253a70f126eb1e3b589c643dd24330361149d575b604080516020810193845260609290921b6bffffffffffffffffffffffff19169082015261148a81605481015b03601f198101835282611c0a565b5190206001815d60015f5c0190815d5f5d005b60ff6114c6336001600160a01b03165f525f516020611f4b5f395f51905f5260205260405f2090565b541661030b576114d63383611cf8565b61144f576368692cbb60e11b5f523360045260245ffd5b3461033d575f36600319011261033d577ff0c57e16840df040f15088dc2f81fe391c3923bec73e23a9662efc9c229c6a005467ffffffffffffffff8116600181036116845760ff8260401c16908115611678575b506106405768ffffffffffffffffff191668010000000000000004177ff0c57e16840df040f15088dc2f81fe391c3923bec73e23a9662efc9c229c6a00555f516020611f2b5f395f51905f52546001600160a01b031661159f611e92565b6115a7611e92565b8015611665576115b690611dc5565b6115be611e92565b6115c6611e92565b60ff195f516020611f6b5f395f51905f5254165f516020611f6b5f395f51905f525568ff0000000000000000197ff0c57e16840df040f15088dc2f81fe391c3923bec73e23a9662efc9c229c6a0054167ff0c57e16840df040f15088dc2f81fe391c3923bec73e23a9662efc9c229c6a00557fc7f505b2f371ae2175ee4913f4499e1f2633a7b5936321eed1cdaeb6115181d2602060405160048152a1005b631e4fbdf760e01b5f525f60045260245ffd5b60049150101582611541565b636f4f731f60e01b5f5260045ffd5b3461033d575f36600319011261033d5760015f5c5f805d0160015b8181106116b757005b805f6001925c81835d5d016116ae565b3461033d575f36600319011261033d57602060405173e3a9105a3a932253a70f126eb1e3b589c643dd248152f35b3461033d575f36600319011261033d57602060405173b7278a61aa25c888815afc32ad3cc52ff24fe5758152f35b3461033d57604036600319011261033d5761173c611bba565b6004355f527fa688f31953c2015baaf8c0a488ee1ee22eb0e05273cc1fd31ea4cbee42febc006020526001600160a01b0360405f2091165f52602052602060ff60405f2054166040519015158152f35b3461033d575f36600319011261033d5760408051906117ab8183611c0a565b600382526020820190621050d360ea1b82525f926117c96001611c40565b6117d583519182611c0a565b600181526117e36001611c40565b602082019590601f1901368737600a602183015b5f1901916f181899199a1a9b1b9c1cb0b131b232b360811b8282061a835304801561182557600a90916117f7565b50506003916118346001611c40565b9161184185519384611c0a565b6001835261184f6001611c40565b602084019490601f1901368637600a602185015b5f1901916f181899199a1a9b1b9c1cb0b131b232b360811b8282061a835304801561189157600a9091611863565b50505f61189e6001611c40565b6118aa87519182611c0a565b600181526118b86001611c40565b602082019290601f1901368437600a602183015b5f1901916f181899199a1a9b1b9c1cb0b131b232b360811b8282061a8353049081156118fa57600a906118cc565b5050600261196c9660019660206107a09c89978c519d8e9a518091858d015e8a019061103b60f11b84830152518092602283015e010190601760f91b84830152518092600383015e010190601760f91b84830152518092600283015e01015f838201520301601f198101845283611c0a565b51918291602083526020830190611be6565b3461033d57606036600319011261033d57611997611ba4565b61199f611bba565b9060443567ffffffffffffffff811680910361033d576119bd611d7e565b335f9081527fa688f31953c2015baaf8c0a488ee1ee22eb0e05273cc1fd31ea4cbee42febc02602052604090206001600160a01b0383165f5260205260405f206001600160a01b0384165f5260205260405f20924367ffffffffffffffff855460401c1614611b6e5783546fffffffffffffffff000000000000000019164360401b6fffffffffffffffff0000000000000000161784556001600160a01b031691338314611b5b576001600160a01b031692338414611b4857828414611b355742821115611b265767ffffffffffffffff81541690828214611afc5767ffffffffffffffff90838219825416178155611abe610dd483835460801c16611c74565b604051948552166020840152604083015260608201527f527b025d7ff06689c1ab9d32dfd7881c964cce72ce8ac5b2fe1d3be8cfda5bfc60803392a3005b608485838660405192631cd2410160e11b8452336004850152602484015260448301526064820152fd5b630aa8af8d60e11b5f5260045ffd5b826356f8b4ed60e11b5f5260045260245ffd5b836308c36abf60e21b5f5260045260245ffd5b82630c24836b60e31b5f5260045260245ffd5b604051633c3b22bb60e21b81523360048201526001600160a01b0393841660248201529216604483015250436064820152608490fd5b600435906001600160a01b038216820361033d57565b602435906001600160a01b038216820361033d57565b604435906001600160a01b038216820361033d57565b805180835260209291819084018484015e5f828201840152601f01601f1916010190565b90601f8019910116810190811067ffffffffffffffff821117611c2c57604052565b634e487b7160e01b5f52604160045260245ffd5b67ffffffffffffffff8111611c2c57601f01601f191660200190565b67ffffffffffffffff8111611c2c5760051b60200190565b67ffffffffffffffff1667ffffffffffffffff8114611c935760010190565b634e487b7160e01b5f52601160045260245ffd5b9081602091031261033d5751801515810361033d5790565b604080516020810192835260609390931b6bffffffffffffffffffffffff19169083015290611cf1816054810161147c565b5190205c90565b90611d038183611cbf565b918215611d0f57505090565b9091505f527fa688f31953c2015baaf8c0a488ee1ee22eb0e05273cc1fd31ea4cbee42febc006020526001600160a01b0360405f2091165f5260205260ff60405f20541690565b8051821015611d6a5760209160051b010190565b634e487b7160e01b5f52603260045260245ffd5b60ff5f516020611f6b5f395f51905f525416611d9657565b63d93c066560e01b5f5260045ffd5b6001600160a01b035f516020611f2b5f395f51905f5254163303610c0557565b6001600160a01b03195f516020611f8b5f395f51905f5254165f516020611f8b5f395f51905f52556001600160a01b03805f516020611f2b5f395f51905f5254921691826001600160a01b03198216175f516020611f2b5f395f51905f5255167f8be0079c531659141344cd1fd0a4f28419497f9722a3daafe3b4186f6b6457e05f80a3565b5f80611e8793602081519101845af43d15611e8a573d91611e6b83611c40565b92611e796040519485611c0a565b83523d5f602085013e611ed0565b90565b606091611ed0565b60ff7ff0c57e16840df040f15088dc2f81fe391c3923bec73e23a9662efc9c229c6a005460401c1615611ec157565b631afcd79f60e31b5f5260045ffd5b90611ef45750805115611ee557805190602001fd5b63d6bda27560e01b5f5260045ffd5b81511580611f21575b611f05575090565b6001600160a01b0390639996b31560e01b5f521660045260245ffd5b50803b15611efd56fe9016d09d72d40fdae2fd8ceac6b6234c7706214fd39c1cd1e609a0528c199300a688f31953c2015baaf8c0a488ee1ee22eb0e05273cc1fd31ea4cbee42febc03cd5ed15c6e187e77e9aee88184c21f4f2182ab5827cb3b7e07fbedcd63f03300237e158222e3e6968b72b9db0d8043aacf074ad9f650f0d1606b4d82ee432c00a264697066735822122015c4522c45b6198f73163b8b34988d215ac2f3620ad8852901a7671b3d6585b364736f6c634300081b0033f0c57e16840df040f15088dc2f81fe391c3923bec73e23a9662efc9c229c6a00","linkReferences":{}},"methodIdentifiers":{"UPGRADE_INTERFACE_VERSION()":"ad3cb1cc","acceptOwnership()":"79ba5097","allow(bytes32,address)":"b9496b62","allowForDecryption(bytes32[])":"fadd2246","allowTransient(bytes32,address)":"3e395cec","allowedTransient(bytes32,address)":"74b79a5a","blockAccount(address)":"7c0a893d","cleanTransientStorage()":"35334c23","delegateForUserDecryption(address,address,uint64)":"04f61a95","getFHEVMExecutorAddress()":"268d6d31","getPauserSetAddress()":"2490fc9a","getUserDecryptionDelegationExpirationDate(address,address,address)":"3f462dbe","getVersion()":"0d8e6e2c","initializeFromEmptyProxy()":"39f73810","isAccountDenied(address)":"9edc01ec","isAllowed(bytes32,address)":"82027b6d","isAllowedForDecryption(bytes32)":"c0d02943","isHandleDelegatedForUserDecryption(address,address,address,bytes32)":"d09c0dee","isPauser(address)":"46fbf68e","multicall(bytes[])":"ac9650d8","owner()":"8da5cb5b","pause()":"8456cb59","paused()":"5c975abb","pendingOwner()":"e30c3978","persistAllowed(bytes32,address)":"1e2f86ba","proxiableUUID()":"52d1902d","reinitializeV3()":"bac22bb8","renounceOwnership()":"715018a6","revokeDelegationForUserDecryption(address,address)":"669e6316","transferOwnership(address)":"f2fde38b","unblockAccount(address)":"4d78fdc6","unpause()":"3f4ba83a","upgradeToAndCall(address,bytes)":"4f1ef286"},"id":53}