{"abi":[{"type":"constructor","inputs":[{"name":"initialFeeBps","type":"uint16","internalType":"uint16"}],"stateMutability":"nonpayable"},{"type":"receive","stateMutability":"payable"},{"type":"function","name":"MAX_FEE_BPS","inputs":[],"outputs":[{"name":"","type":"uint16","internalType":"uint16"}],"stateMutability":"view"},{"type":"function","name":"authorizeContract","inputs":[{"name":"contractAddr","type":"address","internalType":"address"}],"outputs":[],"stateMutability":"nonpayable"},{"type":"function","name":"authorizedContracts","inputs":[{"name":"","type":"address","internalType":"address"}],"outputs":[{"name":"","type":"bool","internalType":"bool"}],"stateMutability":"view"},{"type":"function","name":"feeBasisPoints","inputs":[],"outputs":[{"name":"","type":"uint16","internalType":"uint16"}],"stateMutability":"view"},{"type":"function","name":"owner","inputs":[],"outputs":[{"name":"","type":"address","internalType":"address"}],"stateMutability":"view"},{"type":"function","name":"revokeContract","inputs":[{"name":"contractAddr","type":"address","internalType":"address"}],"outputs":[],"stateMutability":"nonpayable"},{"type":"function","name":"setFeeBasisPoints","inputs":[{"name":"newFeeBps","type":"uint16","internalType":"uint16"}],"outputs":[],"stateMutability":"nonpayable"},{"type":"function","name":"transferOwnership","inputs":[{"name":"newOwner","type":"address","internalType":"address"}],"outputs":[],"stateMutability":"nonpayable"},{"type":"function","name":"withdraw","inputs":[{"name":"to","type":"address","internalType":"address payable"},{"name":"amount","type":"uint256","internalType":"uint256"}],"outputs":[],"stateMutability":"nonpayable"},{"type":"event","name":"ContractAuthorized","inputs":[{"name":"contractAddr","type":"address","indexed":true,"internalType":"address"}],"anonymous":false},{"type":"event","name":"ContractRevoked","inputs":[{"name":"contractAddr","type":"address","indexed":true,"internalType":"address"}],"anonymous":false},{"type":"event","name":"EthReceived","inputs":[{"name":"from","type":"address","indexed":true,"internalType":"address"},{"name":"amount","type":"uint256","indexed":false,"internalType":"uint256"}],"anonymous":false},{"type":"event","name":"EthWithdrawn","inputs":[{"name":"to","type":"address","indexed":true,"internalType":"address"},{"name":"amount","type":"uint256","indexed":false,"internalType":"uint256"}],"anonymous":false},{"type":"event","name":"FeeUpdated","inputs":[{"name":"newFeeBps","type":"uint16","indexed":false,"internalType":"uint16"}],"anonymous":false},{"type":"event","name":"OwnershipTransferred","inputs":[{"name":"previousOwner","type":"address","indexed":true,"internalType":"address"},{"name":"newOwner","type":"address","indexed":true,"internalType":"address"}],"anonymous":false},{"type":"error","name":"FeeTooHigh","inputs":[]},{"type":"error","name":"NotOwner","inputs":[]},{"type":"error","name":"WithdrawFailed","inputs":[]},{"type":"error","name":"ZeroAddress","inputs":[]}],"bytecode":{"object":"0x6080346100f557601f6105d238819003918201601f19168301916001600160401b038311848410176100f9578084926020946040528339810103126100f5575161ffff8116908181036100f5576103e882116100e6575f80546001600160b01b0319163361ffff60a01b1981169190911760a09390931b61ffff60a01b169290921781556040517fc8fcf8ee1425e7e60b8af83735e1eb516d5b9ef05bfd6eece552ebaeb7c75b489360209391929091907f8be0079c531659141344cd1fd0a4f28419497f9722a3daafe3b4186f6b6457e08180a38152a16040516104c4908161010e8239f35b63cd4e616760e01b5f5260045ffd5b5f80fd5b634e487b7160e01b5f52604160045260245ffdfe60806040526004361015610046575b3615610018575f80fd5b6040513481527f85177f287940f2f05425a4029951af0e047a7f9c4eaa9a6e6917bcd869f8669560203392a2005b5f3560e01c806367561d93146104155780638c05a6941461035a5780638da5cb5b14610335578063b8606eef14610312578063cc2e3ee1146102a2578063d55be8c614610286578063d5b9221b14610246578063f2fde38b146101ba5763f3fef3a30361000e57346101b65760403660031901126101b6576004356001600160a01b0381168091036101b6576024356001600160a01b035f541633036101a7578115610198575f80808084865af13d15610193573d67ffffffffffffffff811161017f5760405190601f8101601f19908116603f0116820167ffffffffffffffff81118382101761017f5760405281525f60203d92013e5b156101705760207f8455ae6be5d92f1df1c3c1484388e247a36c7e60d72055ae216dbc258f257d4b91604051908152a2005b631d42c86760e21b5f5260045ffd5b634e487b7160e01b5f52604160045260245ffd5b61013e565b63d92e233d60e01b5f5260045ffd5b6330cd747160e01b5f5260045ffd5b5f80fd5b346101b65760203660031901126101b6576004356001600160a01b0381168091036101b6575f546001600160a01b038116908133036101a757821561019857827fffffffffffffffffffffffff0000000000000000000000000000000000000000927f8be0079c531659141344cd1fd0a4f28419497f9722a3daafe3b4186f6b6457e05f80a316175f55005b346101b65760203660031901126101b6576004356001600160a01b0381168091036101b6575f526001602052602060ff60405f2054166040519015158152f35b346101b6575f3660031901126101b65760206040516103e88152f35b346101b65760203660031901126101b6576004356001600160a01b0381168091036101b6576001600160a01b035f541633036101a757805f52600160205260405f2060ff1981541690557f38cef8c286dbc5b3cb3edbc03ac9ab70b4ee28e1620b6c1530f5ae1070cf4aab5f80a2005b346101b6575f3660031901126101b657602061ffff5f5460a01c16604051908152f35b346101b6575f3660031901126101b65760206001600160a01b035f5416604051908152f35b346101b65760203660031901126101b65760043561ffff8116908181036101b6575f54916001600160a01b03831633036101a7576103e88111610406577fc8fcf8ee1425e7e60b8af83735e1eb516d5b9ef05bfd6eece552ebaeb7c75b48927fffffffffffffffffffff0000ffffffffffffffffffffffffffffffffffffffff75ffff000000000000000000000000000000000000000060209460a01b169116175f55604051908152a1005b63cd4e616760e01b5f5260045ffd5b346101b65760203660031901126101b6576004356001600160a01b0381168091036101b6576001600160a01b035f541633036101a757801561019857805f52600160205260405f20600160ff198254161790557f8983a1f3c3cb45c24c8226b5b805e3b6eb49686530b808534b2a920129eff6515f80a200fea264697066735822122028d82d2b61949e5ef657c550db1779e353c838076a8519a0c92d7b489c121f8e64736f6c634300081b0033","linkReferences":{}},"methodIdentifiers":{"MAX_FEE_BPS()":"d55be8c6","authorizeContract(address)":"67561d93","authorizedContracts(address)":"d5b9221b","feeBasisPoints()":"b8606eef","owner()":"8da5cb5b","revokeContract(address)":"cc2e3ee1","setFeeBasisPoints(uint16)":"8c05a694","transferOwnership(address)":"f2fde38b","withdraw(address,uint256)":"f3fef3a3"},"id":96}