{"abi":[{"type":"function","name":"addPauser","inputs":[{"name":"account","type":"address","internalType":"address"}],"outputs":[],"stateMutability":"nonpayable"},{"type":"function","name":"getVersion","inputs":[],"outputs":[{"name":"","type":"string","internalType":"string"}],"stateMutability":"pure"},{"type":"function","name":"isPauser","inputs":[{"name":"account","type":"address","internalType":"address"}],"outputs":[{"name":"","type":"bool","internalType":"bool"}],"stateMutability":"view"},{"type":"function","name":"removePauser","inputs":[{"name":"account","type":"address","internalType":"address"}],"outputs":[],"stateMutability":"nonpayable"},{"type":"function","name":"swapPauser","inputs":[{"name":"oldAccount","type":"address","internalType":"address"},{"name":"newAccount","type":"address","internalType":"address"}],"outputs":[],"stateMutability":"nonpayable"},{"type":"event","name":"AddPauser","inputs":[{"name":"account","type":"address","indexed":false,"internalType":"address"}],"anonymous":false},{"type":"event","name":"RemovePauser","inputs":[{"name":"account","type":"address","indexed":false,"internalType":"address"}],"anonymous":false},{"type":"event","name":"SwapPauser","inputs":[{"name":"oldAccount","type":"address","indexed":false,"internalType":"address"},{"name":"newAccount","type":"address","indexed":false,"internalType":"address"}],"anonymous":false},{"type":"error","name":"AccountAlreadyPauser","inputs":[{"name":"account","type":"address","internalType":"address"}]},{"type":"error","name":"AccountNotPauser","inputs":[{"name":"account","type":"address","internalType":"address"}]},{"type":"error","name":"InvalidNullPauser","inputs":[]},{"type":"error","name":"NotHostOwner","inputs":[{"name":"sender","type":"address","internalType":"address"}]}],"bytecode":{"object":"0x608080604052346015576106e4908161001a8239f35b5f80fdfe60806040526004361015610011575f80fd5b5f3560e01c80630d8e6e2c146103fd57806346fbf68e146103c15780635c1d802b1461027b5780636b2c0f5514610187576382dc1ec414610050575f80fd5b3461018357602036600319011261018357610069610627565b604051638da5cb5b60e01b81526020816004817350157cffd6bbfa2dece204a89ec419c23ef5755d5afa8015610178576001600160a01b03915f91610149575b50163303610136576001600160a01b0316801561012757805f525f60205260ff60405f205416610115576020817f0ebbf213a7f4622f20363f9564db9ade037985216f5c59027b98d25eba9f3f40925f525f825260405f20600160ff19825416179055604051908152a1005b632f19e49b60e11b5f5260045260245ffd5b633555aed160e01b5f5260045ffd5b63021bfda160e41b5f523360045260245ffd5b61016b915060203d602011610171575b610163818361063d565b81019061068f565b5f6100a9565b503d610159565b6040513d5f823e3d90fd5b5f80fd5b34610183576020366003190112610183576101a0610627565b604051638da5cb5b60e01b81526020816004817350157cffd6bbfa2dece204a89ec419c23ef5755d5afa8015610178576001600160a01b03915f9161025c575b50163303610136576001600160a01b0316801561012757805f525f60205260ff60405f2054161561024a576020817ffaaa58da621174b2a60928f9770a6e4ff8b6ad59a1ab5bc3cc9a2fe7b52940ab925f525f825260405f2060ff198154169055604051908152a1005b633946310960e01b5f5260045260245ffd5b610275915060203d60201161017157610163818361063d565b836101e0565b3461018357604036600319011261018357610294610627565b602435906001600160a01b03821680920361018357604051638da5cb5b60e01b81526020816004817350157cffd6bbfa2dece204a89ec419c23ef5755d5afa8015610178576001600160a01b03915f916103a2575b50163303610136576001600160a01b03168015801561039a575b61012757805f525f60205260ff60405f2054161561024a57815f525f60205260ff60405f20541661038757807f3b13241d00fed42521a881fa11572547b2f695930d5bdcda93c07b28781b041e926040925f525f602052825f2060ff198154169055805f525f602052825f20600160ff1982541617905582519182526020820152a1005b50632f19e49b60e11b5f5260045260245ffd5b508115610303565b6103bb915060203d60201161017157610163818361063d565b846102e9565b34610183576020366003190112610183576001600160a01b036103e2610627565b165f525f602052602060ff60405f2054166040519015158152f35b34610183575f36600319011261018357604080519061041c818361063d565b60098252602082017f506175736572536574000000000000000000000000000000000000000000000081525f906104536001610673565b916104608451938461063d565b6001835261046e6001610673565b602084019190601f1901368337600a602185015b5f1901916f181899199a1a9b1b9c1cb0b131b232b360811b8282061a83530480156104b057600a9091610482565b50506001906104be82610673565b916104cb8651938461063d565b8083526104d781610673565b602084019190601f1901368337600a602185015b5f1901916f181899199a1a9b1b9c1cb0b131b232b360811b8282061a835304801561051957600a90916104eb565b50505f926105276001610673565b926105348851948561063d565b600184526105426001610673565b602085019590601f1901368737600a602186015b5f1901916f181899199a1a9b1b9c1cb0b131b232b360811b8282061a835304801561058457600a9091610556565b50508751968796602088019a5180918c5e8701906020820161103b60f11b9052518092602283015e016020019060028201601760f91b9052518092600383015e016002019060018201601760f91b9052518092600283015e01600101600181015f905203600101601f19810182526105fc908261063d565b8151928391602083525180918160208501528484015e5f828201840152601f01601f19168101030190f35b600435906001600160a01b038216820361018357565b90601f8019910116810190811067ffffffffffffffff82111761065f57604052565b634e487b7160e01b5f52604160045260245ffd5b67ffffffffffffffff811161065f57601f01601f191660200190565b9081602091031261018357516001600160a01b0381168103610183579056fea2646970667358221220ffa9f7c09c7f33a930d85efd17422fe04db2d41b239a5d1a2f1d03fc8f67e95764736f6c634300081b0033","linkReferences":{}},"methodIdentifiers":{"addPauser(address)":"82dc1ec4","getVersion()":"0d8e6e2c","isPauser(address)":"46fbf68e","removePauser(address)":"6b2c0f55","swapPauser(address,address)":"5c1d802b"},"id":62}