{"abi":[{"type":"constructor","inputs":[],"stateMutability":"nonpayable"},{"type":"function","name":"EIP712_INPUT_VERIFICATION_TYPE","inputs":[],"outputs":[{"name":"","type":"string","internalType":"string"}],"stateMutability":"view"},{"type":"function","name":"EIP712_INPUT_VERIFICATION_TYPEHASH","inputs":[],"outputs":[{"name":"","type":"bytes32","internalType":"bytes32"}],"stateMutability":"view"},{"type":"function","name":"UPGRADE_INTERFACE_VERSION","inputs":[],"outputs":[{"name":"","type":"string","internalType":"string"}],"stateMutability":"view"},{"type":"function","name":"cleanTransientStorage","inputs":[],"outputs":[],"stateMutability":"nonpayable"},{"type":"function","name":"defineNewContext","inputs":[{"name":"newSignersSet","type":"address[]","internalType":"address[]"},{"name":"newThreshold","type":"uint256","internalType":"uint256"}],"outputs":[],"stateMutability":"nonpayable"},{"type":"function","name":"eip712Domain","inputs":[],"outputs":[{"name":"fields","type":"bytes1","internalType":"bytes1"},{"name":"name","type":"string","internalType":"string"},{"name":"version","type":"string","internalType":"string"},{"name":"chainId","type":"uint256","internalType":"uint256"},{"name":"verifyingContract","type":"address","internalType":"address"},{"name":"salt","type":"bytes32","internalType":"bytes32"},{"name":"extensions","type":"uint256[]","internalType":"uint256[]"}],"stateMutability":"view"},{"type":"function","name":"getCoprocessorSigners","inputs":[],"outputs":[{"name":"","type":"address[]","internalType":"address[]"}],"stateMutability":"view"},{"type":"function","name":"getHandleVersion","inputs":[],"outputs":[{"name":"","type":"uint8","internalType":"uint8"}],"stateMutability":"pure"},{"type":"function","name":"getThreshold","inputs":[],"outputs":[{"name":"","type":"uint256","internalType":"uint256"}],"stateMutability":"view"},{"type":"function","name":"getVersion","inputs":[],"outputs":[{"name":"","type":"string","internalType":"string"}],"stateMutability":"pure"},{"type":"function","name":"initializeFromEmptyProxy","inputs":[{"name":"verifyingContractSource","type":"address","internalType":"address"},{"name":"chainIDSource","type":"uint64","internalType":"uint64"},{"name":"initialSigners","type":"address[]","internalType":"address[]"},{"name":"initialThreshold","type":"uint256","internalType":"uint256"}],"outputs":[],"stateMutability":"nonpayable"},{"type":"function","name":"isSigner","inputs":[{"name":"account","type":"address","internalType":"address"}],"outputs":[{"name":"","type":"bool","internalType":"bool"}],"stateMutability":"view"},{"type":"function","name":"proxiableUUID","inputs":[],"outputs":[{"name":"","type":"bytes32","internalType":"bytes32"}],"stateMutability":"view"},{"type":"function","name":"reinitializeV2","inputs":[{"name":"newSignersSet","type":"address[]","internalType":"address[]"},{"name":"threshold","type":"uint256","internalType":"uint256"}],"outputs":[],"stateMutability":"nonpayable"},{"type":"function","name":"setThreshold","inputs":[{"name":"threshold","type":"uint256","internalType":"uint256"}],"outputs":[],"stateMutability":"nonpayable"},{"type":"function","name":"upgradeToAndCall","inputs":[{"name":"newImplementation","type":"address","internalType":"address"},{"name":"data","type":"bytes","internalType":"bytes"}],"outputs":[],"stateMutability":"payable"},{"type":"function","name":"verifyInput","inputs":[{"name":"context","type":"tuple","internalType":"struct FHEVMExecutor.ContextUserInputs","components":[{"name":"userAddress","type":"address","internalType":"address"},{"name":"contractAddress","type":"address","internalType":"address"}]},{"name":"inputHandle","type":"bytes32","internalType":"bytes32"},{"name":"inputProof","type":"bytes","internalType":"bytes"}],"outputs":[{"name":"","type":"bytes32","internalType":"bytes32"}],"stateMutability":"nonpayable"},{"type":"event","name":"EIP712DomainChanged","inputs":[],"anonymous":false},{"type":"event","name":"Initialized","inputs":[{"name":"version","type":"uint64","indexed":false,"internalType":"uint64"}],"anonymous":false},{"type":"event","name":"NewContextSet","inputs":[{"name":"newSignersSet","type":"address[]","indexed":false,"internalType":"address[]"},{"name":"newThreshold","type":"uint256","indexed":false,"internalType":"uint256"}],"anonymous":false},{"type":"event","name":"Upgraded","inputs":[{"name":"implementation","type":"address","indexed":true,"internalType":"address"}],"anonymous":false},{"type":"error","name":"AddressEmptyCode","inputs":[{"name":"target","type":"address","internalType":"address"}]},{"type":"error","name":"CoprocessorAlreadySigner","inputs":[]},{"type":"error","name":"CoprocessorSignerNull","inputs":[]},{"type":"error","name":"DeserializingInputProofFail","inputs":[]},{"type":"error","name":"ECDSAInvalidSignature","inputs":[]},{"type":"error","name":"ECDSAInvalidSignatureLength","inputs":[{"name":"length","type":"uint256","internalType":"uint256"}]},{"type":"error","name":"ECDSAInvalidSignatureS","inputs":[{"name":"s","type":"bytes32","internalType":"bytes32"}]},{"type":"error","name":"ERC1967InvalidImplementation","inputs":[{"name":"implementation","type":"address","internalType":"address"}]},{"type":"error","name":"ERC1967NonPayable","inputs":[]},{"type":"error","name":"EmptyInputProof","inputs":[]},{"type":"error","name":"FailedCall","inputs":[]},{"type":"error","name":"InvalidChainId","inputs":[]},{"type":"error","name":"InvalidHandleVersion","inputs":[]},{"type":"error","name":"InvalidIndex","inputs":[]},{"type":"error","name":"InvalidInitialization","inputs":[]},{"type":"error","name":"InvalidInputHandle","inputs":[]},{"type":"error","name":"InvalidSigner","inputs":[{"name":"signerRecovered","type":"address","internalType":"address"}]},{"type":"error","name":"NotASigner","inputs":[]},{"type":"error","name":"NotHostOwner","inputs":[{"name":"sender","type":"address","internalType":"address"}]},{"type":"error","name":"NotInitializing","inputs":[]},{"type":"error","name":"NotInitializingFromEmptyProxy","inputs":[]},{"type":"error","name":"SignatureThresholdNotReached","inputs":[{"name":"numSignatures","type":"uint256","internalType":"uint256"}]},{"type":"error","name":"SignaturesVerificationFailed","inputs":[]},{"type":"error","name":"SignersSetIsEmpty","inputs":[]},{"type":"error","name":"ThresholdIsAboveNumberOfSigners","inputs":[]},{"type":"error","name":"ThresholdIsNull","inputs":[]},{"type":"error","name":"UUPSUnauthorizedCallContext","inputs":[]},{"type":"error","name":"UUPSUnsupportedProxiableUUID","inputs":[{"name":"slot","type":"bytes32","internalType":"bytes32"}]},{"type":"error","name":"ZeroSignature","inputs":[]}],"bytecode":{"object":"0x60a080604052346100c257306080525f5160206129d35f395f51905f525460ff8160401c166100b3576002600160401b03196001600160401b03821601610060575b60405161290c90816100c7823960805181818161036801526104900152f35b6001600160401b0319166001600160401b039081175f5160206129d35f395f51905f525581527fc7f505b2f371ae2175ee4913f4499e1f2633a7b5936321eed1cdaeb6115181d290602090a15f80610041565b63f92ee8a960e01b5f5260045ffd5b5f80fdfe60806040526004361015610011575f80fd5b5f3560e01c80630d8e6e2c1461012457806335334c231461011f5780634f1ef2861461011a57806352d1902d1461011557806354130ccd146101105780635eed76751461010b5780637a297f4b146101065780637df73e271461010157806384b0196e146100fc5780638b218123146100f75780639164d0ae146100f2578063960bfe04146100ed578063ad3cb1cc146100e8578063da53c47d146100e3578063e6317df5146100de578063e75235b8146100d95763e7d9e407146100d4575f80fd5b610bd1565b610b95565b610b10565b610a92565b610982565b6108fe565b6108c0565b61085c565b610740565b61065b565b610641565b6105bc565b61058d565b610476565b610326565b610228565b610161565b805180835260209291819084018484015e5f828201840152601f01601f1916010190565b90602061015e928181520190610129565b90565b34610224575f366003190112610224576102206101e96102146040516101886040826102a2565b600d81527f496e70757456657269666965720000000000000000000000000000000000000060208201526102066101bd611b76565b60016101f86101ca611bc9565b826101f86101d6611b76565b9560026040519b8c9a60208c0190610cba565b61103b60f11b81520190610cba565b601760f91b81520190610cba565b03601f1981018352826102a2565b6040519182918261014d565b0390f35b5f80fd5b34610224575f3660031901126102245760015f5c5f805d0160015b81811061024c57005b805f6001925c81835d5d01610243565b6001600160a01b0381160361022457565b634e487b7160e01b5f52604160045260245ffd5b6040810190811067ffffffffffffffff82111761029d57604052565b61026d565b90601f8019910116810190811067ffffffffffffffff82111761029d57604052565b67ffffffffffffffff811161029d57601f01601f191660200190565b81601f82011215610224578035906102f7826102c4565b9261030560405194856102a2565b8284526020838301011161022457815f926020809301838601378301015290565b60403660031901126102245760043561033e8161025c565b60243567ffffffffffffffff81116102245761035e9036906004016102e0565b6001600160a01b037f000000000000000000000000000000000000000000000000000000000000000016803014908115610441575b5061043257604051638da5cb5b60e01b81526020816004817350157cffd6bbfa2dece204a89ec419c23ef5755d5afa801561042d576001600160a01b03915f916103fe575b501633036103eb576103e991611bd5565b005b63021bfda160e41b5f523360045260245ffd5b610420915060203d602011610426575b61041881836102a2565b8101906111ce565b5f6103d8565b503d61040e565b6111e3565b63703e46dd60e11b5f5260045ffd5b90506001600160a01b037f360894a13ba1a3210667c828492db98dca3e2076cc3735a920a3ca505d382bbc541614155f610393565b34610224575f366003190112610224576001600160a01b037f00000000000000000000000000000000000000000000000000000000000000001630036104325760206040517f360894a13ba1a3210667c828492db98dca3e2076cc3735a920a3ca505d382bbc8152f35b604051906104ef60a0836102a2565b607f82527f6f6e7472616374436861696e49642c62797465732065787472614461746129006080837f43697068657274657874566572696669636174696f6e28627974657333325b5d60208201527f20637448616e646c65732c616464726573732075736572416464726573732c6160408201527f64647265737320636f6e7472616374416464726573732c75696e74323536206360608201520152565b34610224575f366003190112610224576102206105a86104e0565b604051918291602083526020830190610129565b34610224576080366003190112610224576004356105d98161025c565b6024359067ffffffffffffffff82168203610224576044359067ffffffffffffffff821161022457366023830112156102245781600401359067ffffffffffffffff8211610224573660248360051b85010111610224576103e9936024606435940191610ccc565b34610224575f3660031901126102245760206040515f8152f35b34610224576020366003190112610224576001600160a01b036004356106808161025c565b165f527f3f7d7a96c8c7024e92d37afccfc9b87773a33b9bc22e23134b683e74a50ace00602052602060ff60405f2054166040519015158152f35b9293906001600160a01b03926106e66106f492600f60f81b875260e0602088015260e0870190610129565b908582036040870152610129565b9360608401521660808201525f60a082015260c0818303910152602080835192838152019201905f5b81811061072a5750505090565b825184526020938401939092019160010161071d565b34610224575f366003190112610224577fe910845fd818f61127c84f3586776436a37dead33625056c65162537e3373600541580610833575b156107ee5767ffffffffffffffff61078f611cd4565b61022061079a611dc7565b7fe910845fd818f61127c84f3586776436a37dead33625056c65162537e33736045467ffffffffffffffff60a082901c1693906001600160a01b0316906107df6110ee565b926040519687961691866106bb565b60405162461bcd60e51b815260206004820152601560248201527f4549503731323a20556e696e697469616c697a656400000000000000000000006044820152606490fd5b507fe910845fd818f61127c84f3586776436a37dead33625056c65162537e33736015415610779565b34610224575f3660031901126102245760206108766104e0565b818151910120604051908152f35b90602080835192838152019201905f5b8181106108a15750505090565b82516001600160a01b0316845260209384019390920191600101610894565b34610224575f366003190112610224576102206040516108ea816108e381611109565b03826102a2565b604051918291602083526020830190610884565b3461022457602036600319011261022457600435604051638da5cb5b60e01b81526020816004817350157cffd6bbfa2dece204a89ec419c23ef5755d5afa801561042d576001600160a01b03915f91610963575b501633036103eb576103e9906111ee565b61097c915060203d6020116104265761041881836102a2565b5f610952565b34610224575f366003190112610224576102206040516109a36040826102a2565b600581527f352e302e300000000000000000000000000000000000000000000000000000006020820152604051918291602083526020830190610129565b67ffffffffffffffff811161029d5760051b60200190565b929190610a05816109e1565b93610a1360405195866102a2565b602085838152019160051b810192831161022457905b828210610a3557505050565b602080918335610a448161025c565b815201910190610a29565b6040600319820112610224576004359067ffffffffffffffff8211610224578060238301121561022457816024610a8b936004013591016109f9565b9060243590565b3461022457610aa036610a4f565b604051638da5cb5b60e01b81526020816004817350157cffd6bbfa2dece204a89ec419c23ef5755d5afa801561042d576001600160a01b03915f91610af1575b501633036103eb576103e9916113f8565b610b0a915060203d6020116104265761041881836102a2565b5f610ae0565b34610224573660031901608081126102245760401361022457604051610b3581610281565b600435610b418161025c565b8152602435610b4f8161025c565b602082015260643567ffffffffffffffff81116102245761022091610b7b610b859236906004016102e0565b90604435906117bf565b6040519081529081906020820190565b34610224575f3660031901126102245760207f3f7d7a96c8c7024e92d37afccfc9b87773a33b9bc22e23134b683e74a50ace0254604051908152f35b3461022457610bdf36610a4f565b5f5160206128b75f395f51905f52549160ff8360401c168015610ca5575b610c965768ffffffffffffffffff199290921668010000000000000003175f5160206128b75f395f51905f5255610c3891611239565b611239565b610c6768ff0000000000000000195f5160206128b75f395f51905f5254165f5160206128b75f395f51905f5255565b604051600381527fc7f505b2f371ae2175ee4913f4499e1f2633a7b5936321eed1cdaeb6115181d290602090a1005b63f92ee8a960e01b5f5260045ffd5b50600367ffffffffffffffff84161015610bfd565b805191908290602001825e015f815290565b9294939190945f5160206128b75f395f51905f525467ffffffffffffffff8116600181036110df5760ff8260401c169081156110d3575b50610c965768ffffffffffffffffff191668010000000000000003175f5160206128b75f395f51905f5255604093845196610d3e86896102a2565b601188527f496e707574566572696669636174696f6e0000000000000000000000000000006020890152610df0865192610d7888856102a2565b60018452603160f81b6020850152610d8e612114565b610d96612114565b6001600160a01b03166001600160a01b03197fe910845fd818f61127c84f3586776436a37dead33625056c65162537e33736045416177fe910845fd818f61127c84f3586776436a37dead33625056c65162537e337360455565b7fffffffff0000000000000000ffffffffffffffffffffffffffffffffffffffff7bffffffffffffffff00000000000000000000000000000000000000007fe910845fd818f61127c84f3586776436a37dead33625056c65162537e3373604549260a01b169116177fe910845fd818f61127c84f3586776436a37dead33625056c65162537e337360455865167ffffffffffffffff811161029d57610ebe81610eb97fe910845fd818f61127c84f3586776436a37dead33625056c65162537e337360254611c9c565b61213f565b6020601f8211600114610fe457610f9a959492610f1c83610c339694610f43947fc7f505b2f371ae2175ee4913f4499e1f2633a7b5936321eed1cdaeb6115181d29c9d5f92610fd9575b50508160011b915f199060031b1c19161790565b7fe910845fd818f61127c84f3586776436a37dead33625056c65162537e3373602556121fd565b610f6b5f7fe910845fd818f61127c84f3586776436a37dead33625056c65162537e337360055565b610f935f7fe910845fd818f61127c84f3586776436a37dead33625056c65162537e337360155565b36916109f9565b610fc968ff0000000000000000195f5160206128b75f395f51905f5254165f5160206128b75f395f51905f5255565b516003815280602081015b0390a1565b015190505f80610f08565b7fe910845fd818f61127c84f3586776436a37dead33625056c65162537e33736025f52601f198216987f7c28feee60e4da326c26903a4f8a719e40f5a1223c1ca127f4c51f0ef2891454995f5b8181106110bb5750837fc7f505b2f371ae2175ee4913f4499e1f2633a7b5936321eed1cdaeb6115181d29a9b610f4394610f9a9a999794610c339997600195106110a3575b505050811b017fe910845fd818f61127c84f3586776436a37dead33625056c65162537e3373602556121fd565b01515f1960f88460031b161c191690555f8080611076565b838301518c556001909b019a60209384019301611031565b6003915010155f610d03565b636f4f731f60e01b5f5260045ffd5b604051906110fd6020836102a2565b5f808352366020840137565b60205f5160206128975f395f51905f52549182815201905f5160206128975f395f51905f525f5260205f20905f5b8181106111445750505090565b82546001600160a01b0316845260209093019260019283019201611137565b604051905f5160206128975f395f51905f525480835282602081015f5160206128975f395f51905f525f5260205f20925f5b8181106111ac5750506111aa925003836102a2565b565b84546001600160a01b0316835260019485019487945060209093019201611195565b90816020910312610224575161015e8161025c565b6040513d5f823e3d90fd5b7f1dcd7e1de916ad3be0c1097968029899e2e7d0195cfa6967e16520c0e8d07cea9061121981611e9a565b60405180916040825261122e60408301611109565b9060208301520390a1565b90604051638da5cb5b60e01b81526020816004817350157cffd6bbfa2dece204a89ec419c23ef5755d5afa801561042d576001600160a01b03915f9161128b575b501633036103eb576111aa916113f8565b6112a4915060203d6020116104265761041881836102a2565b5f61127a565b634e487b7160e01b5f52603260045260245ffd5b80518210156112d25760209160051b010190565b6112aa565b5f5160206128975f395f51905f5254801561134e575f198101905f5160206128975f395f51905f52548210156112d2575f5160206128975f395f51905f525f8190527fa19d1e433dfecc0beffcdd4bfc8641ce182522953821b06cf0a3ca14a88d878890910180546001600160a01b031916905555565b634e487b7160e01b5f52603160045260245ffd5b5f5160206128975f395f51905f52546801000000000000000081101561029d57600181015f5160206128975f395f51905f52555f5160206128975f395f51905f52548110156112d2576001600160a01b03905f5160206128975f395f51905f525f5260205f200191166001600160a01b0319825416179055565b9291906113f3602091604086526040860190610884565b930152565b805180156115ac57611408611163565b8051905f5b828110611548575050505f5b81811061145d575050907f1dcd7e1de916ad3be0c1097968029899e2e7d0195cfa6967e16520c0e8d07cea9161144e82611e9a565b610fd4604051928392836113dc565b61147761146a82856112be565b516001600160a01b031690565b906001600160a01b03821615611539576114cb6114c4836001600160a01b03165f527f3f7d7a96c8c7024e92d37afccfc9b87773a33b9bc22e23134b683e74a50ace0060205260405f2090565b5460ff1690565b61152a576115248261151f6115126001956001600160a01b03165f527f3f7d7a96c8c7024e92d37afccfc9b87773a33b9bc22e23134b683e74a50ace0060205260405f2090565b805460ff19166001179055565b611362565b01611419565b63572de7c960e11b5f5260045ffd5b6304069ca760e21b5f5260045ffd5b8061159e61159461155e61146a600195876112be565b6001600160a01b03165f527f3f7d7a96c8c7024e92d37afccfc9b87773a33b9bc22e23134b683e74a50ace0060205260405f2090565b805460ff19169055565b6115a66112d7565b0161140d565b631286e95160e01b5f5260045ffd5b8051156112d25760200190565b8051600110156112d25760210190565b9081518110156112d2570160200190565b634e487b7160e01b5f52601160045260245ffd5b908160051b918083046020149015171561161357565b6115e9565b908160031b917f1fffffffffffffffffffffffffffffffffffffffffffffffffffffffffffffff81160361161357565b908160051b917f07ffffffffffffffffffffffffffffffffffffffffffffffffffffffffffffff81160361161357565b908160410291604183040361161357565b600201908160021161161357565b9190820180921161161357565b601f0390601f821161161357565b9190820391821161161357565b906116c9826109e1565b6116d660405191826102a2565b82815280926116e7601f19916109e1565b0190602036910137565b906116fb826109e1565b61170860405191826102a2565b8281528092611719601f19916109e1565b01905f5b82811061172957505050565b80606060208093850101520161171d565b6040516080919061174b83826102a2565b6041815291601f1901366020840137565b90611766826102c4565b61177360405191826102a2565b82815280926116e7601f19916102c4565b6040519060a0820182811067ffffffffffffffff82111761029d5760405260606080838281525f60208201525f60408201525f838201520152565b92916117d284516001600160a01b031690565b6117f260208601916117eb83516001600160a01b031690565b9084611ef7565b909261181a61180d69ffffffffffffffffffff871660101c90565b67ffffffffffffffff1690565b67ffffffffffffffff46911603611b67576118426aff00000000000000000000861660501c90565b93611ad5578051968715611ac65761189461188e611888611862856115bb565b517fff000000000000000000000000000000000000000000000000000000000000001690565b60f81c90565b60ff1690565b916118a761188e611888611862846115c8565b94868411801590611abc575b611aad576118da6118cb6118c686611648565b611689565b6118d488611678565b90611697565b809a10611a9e576118ea846116bf565b955f5b858110611a6857506118fe816116f1565b945f5b8281106119e8575050506119416119519161146a611931611920611784565b968a8852516001600160a01b031690565b6001600160a01b03166020870152565b6001600160a01b03166040840152565b4660608301526119628982516116b2565b9061196c8261175c565b90608084019182525f5b8381106119b857505050506119a09596975061199b929161199691611f49565b612037565b6112be565b5181036119aa5790565b624b1bf160e31b5f5260045ffd5b806119d26118626119cc8f94600195611697565b856115d8565b6119e1828651925f1a926115d8565b5301611976565b6119f061173a565b6119fa82896112be565b52611a0581886112be565b505f5b60418110611a195750600101611901565b80611a49611862611a43600194611a3e611a356118c68a611648565b6118d489611678565b611697565b896115d8565b611a6182611a57868d6112be565b51925f1a926115d8565b5301611a08565b60228160051b850101519060ff8216611a8f57600191611a88828b6112be565b52016118ed565b6317df86d560e21b5f5260045ffd5b631817ecd760e01b5f5260045ffd5b6363df817160e01b5f5260045ffd5b5060fe87116118b3565b6359240e8b60e11b5f5260045ffd5b9394955050508060ff611aed611888611862866115bb565b1611801590611b5d575b611aad5782915f915f915b60208310611b1557505050036119aa5790565b91935091600190611b3e61188e611888611862611b3889611a3e6118c68b6115fd565b876115d8565b611b4f611b4a876116a4565b611618565b1b1793019091849392611b02565b5060fe8111611af7565b633d23e4d160e11b5f5260045ffd5b5f611b81600161175c565b90600a602183015b5f1901917f30313233343536373839616263646566000000000000000000000000000000008282061a8353048015611bc457600a9091611b89565b505090565b6002611b81600161175c565b6040516352d1902d60e01b81529290916020846004816001600160a01b0387165afa5f9481611c68575b50611c2057634c9c8ce360e01b5f526001600160a01b03831660045260245ffd5b90917f360894a13ba1a3210667c828492db98dca3e2076cc3735a920a3ca505d382bbc8403611c54576111aa929350612047565b632a87526960e21b5f52600484905260245ffd5b9094506020813d602011611c94575b81611c84602093836102a2565b810103126102245751935f611bff565b3d9150611c77565b90600182811c92168015611cca575b6020831014611cb657565b634e487b7160e01b5f52602260045260245ffd5b91607f1691611cab565b604051905f827fe910845fd818f61127c84f3586776436a37dead33625056c65162537e33736025491611d0683611c9c565b8083529260018116908115611da85750600114611d2a575b6111aa925003836102a2565b507fe910845fd818f61127c84f3586776436a37dead33625056c65162537e33736025f90815290917f7c28feee60e4da326c26903a4f8a719e40f5a1223c1ca127f4c51f0ef28914545b818310611d8c5750509060206111aa92820101611d1e565b6020919350806001915483858901015201910190918492611d74565b602092506111aa94915060ff191682840152151560051b820101611d1e565b604051905f827fe910845fd818f61127c84f3586776436a37dead33625056c65162537e33736035491611df983611c9c565b8083529260018116908115611da85750600114611e1c576111aa925003836102a2565b507fe910845fd818f61127c84f3586776436a37dead33625056c65162537e33736035f90815290917f0a2c3f59fcdd313abfb988a349b11378f5de0916e0010e1141adc7f546d07f185b818310611e7e5750509060206111aa92820101611d1e565b6020919350806001915483858901015201910190918492611e66565b8015611ee8575f5160206128975f395f51905f52548111611ed9577f3f7d7a96c8c7024e92d37afccfc9b87773a33b9bc22e23134b683e74a50ace0255565b6335194e6360e01b5f5260045ffd5b630151f13160e71b5f5260045ffd5b90611f419061020660405193849260208401966bffffffffffffffffffffffff199060601b1687526bffffffffffffffffffffffff199060601b1660348401526048830190610cba565b519020805c91565b6120229161201961201e92611f5c6104e0565b60208151910120906120118151604051611f7e81610206602082018095612370565b519020610206611f9860208501516001600160a01b031690565b93611fad60408201516001600160a01b031690565b9060806060820151910151604051611fcd81610206602082018095610cba565b5190209160405196879560208701998a92936001600160a01b0360a09581939998979460c087019a8752602087015216604085015216606083015260808201520152565b51902061253b565b6123ab565b1590565b61202857565b634b506ccd60e01b5f5260045ffd5b6001815d60015f5c0190815d5f5d565b90813b156120f8576001600160a01b038216806001600160a01b03197f360894a13ba1a3210667c828492db98dca3e2076cc3735a920a3ca505d382bbc5416177f360894a13ba1a3210667c828492db98dca3e2076cc3735a920a3ca505d382bbc557fbc7cd75a20ee27fd9adebab32041f755214dbc6bffa90cc0225b39da2e5c2d3b5f80a28051156120e0576120dd916124f7565b50565b5050346120e957565b63b398979f60e01b5f5260045ffd5b6001600160a01b0382634c9c8ce360e01b5f521660045260245ffd5b60ff5f5160206128b75f395f51905f525460401c161561213057565b631afcd79f60e31b5f5260045ffd5b601f811161214b575050565b7fe910845fd818f61127c84f3586776436a37dead33625056c65162537e33736025f5260205f20906020601f840160051c830193106121a4575b601f0160051c01905b818110612199575050565b5f815560010161218e565b9091508190612185565b601f82116121bb57505050565b5f5260205f20906020601f840160051c830193106121f3575b601f0160051c01905b8181106121e8575050565b5f81556001016121dd565b90915081906121d4565b90815167ffffffffffffffff811161029d576122638161223d7fe910845fd818f61127c84f3586776436a37dead33625056c65162537e337360354611c9c565b7fe910845fd818f61127c84f3586776436a37dead33625056c65162537e33736036121ae565b602092601f82116001146122b657612292929382915f92610fd95750508160011b915f199060031b1c19161790565b7fe910845fd818f61127c84f3586776436a37dead33625056c65162537e337360355565b7fe910845fd818f61127c84f3586776436a37dead33625056c65162537e33736035f52601f198216937f0a2c3f59fcdd313abfb988a349b11378f5de0916e0010e1141adc7f546d07f18915f5b8681106123585750836001959610612340575b505050811b017fe910845fd818f61127c84f3586776436a37dead33625056c65162537e337360355565b01515f1960f88460031b161c191690555f8080612316565b91926020600181928685015181550194019201612303565b80516020909101905f5b8181106123875750505090565b825184526020938401939092019160010161237a565b5f1981146116135760010190565b9080519182156124e8577f3f7d7a96c8c7024e92d37afccfc9b87773a33b9bc22e23134b683e74a50ace02548084106124d4576123e7846116bf565b915f935f5b868110612405575050505061240192506125f4565b5f90565b61241961241282846112be565b518461267b565b61245961201e6114c4836001600160a01b03165f527f3f7d7a96c8c7024e92d37afccfc9b87773a33b9bc22e23134b683e74a50ace0060205260405f2090565b6124b957805c15612489575b5083861015612476576001016123ec565b5050505061248492506125f4565b600190565b956124b1816124ac8961249e6001958b6112be565b906001600160a01b03169052565b61239d565b965d5f612465565b63bf18af4360e01b5f526001600160a01b031660045260245ffd5b632e57ff8360e21b5f52600484905260245ffd5b635985192160e11b5f5260045ffd5b5f8061015e93602081519101845af43d15612533573d91612517836102c4565b9261252560405194856102a2565b83523d5f602085013e612621565b606091612621565b604290612546612765565b61254e6127cf565b6001600160a01b037fe910845fd818f61127c84f3586776436a37dead33625056c65162537e3373604546040519260208401947f8b73c3c69bb8fe3d512ecc4cf759cc79239f7b179b0ffacaa9a75d522b39400f86526040850152606084015267ffffffffffffffff8160a01c1660808401521660a082015260a081526125d660c0826102a2565b519020906040519161190160f01b8352600283015260228201522090565b5f5b82811061260257505050565b805f6001600160a01b03612618600194866112be565b51165d016125f6565b90612645575080511561263657805190602001fd5b63d6bda27560e01b5f5260045ffd5b81511580612672575b612656575090565b6001600160a01b0390639996b31560e01b5f521660045260245ffd5b50803b1561264e565b61015e9161268891612691565b909291926126e9565b81519190604183036126c1576126ba9250602082015190606060408401519301515f1a90612814565b9192909190565b50505f9160029190565b600411156126d557565b634e487b7160e01b5f52602160045260245ffd5b6126f2816126cb565b806126fb575050565b612704816126cb565b6001810361271b5763f645eedf60e01b5f5260045ffd5b612724816126cb565b6002810361273f575063fce698f760e01b5f5260045260245ffd5b8061274b6003926126cb565b146127535750565b6335e2f38360e21b5f5260045260245ffd5b61276d611cd4565b805190811561277d576020012090565b50507fe910845fd818f61127c84f3586776436a37dead33625056c65162537e33736005480156127aa5790565b507fc5d2460186f7233c927e7db2dcc703c0e500b653ca82273b7bfad8045d85a47090565b6127d7611dc7565b80519081156127e7576020012090565b50507fe910845fd818f61127c84f3586776436a37dead33625056c65162537e33736015480156127aa5790565b91907f7fffffffffffffffffffffffffffffff5d576e7357a4501ddfe92f46681b20a0841161288b579160209360809260ff5f9560405194855216868401526040830152606082015282805260015afa1561042d575f516001600160a01b0381161561288157905f905f90565b505f906001905f90565b5050505f916003919056fe3f7d7a96c8c7024e92d37afccfc9b87773a33b9bc22e23134b683e74a50ace01f0c57e16840df040f15088dc2f81fe391c3923bec73e23a9662efc9c229c6a00a2646970667358221220997ffe423f21331f2edb3b77b1e81fad5624259be40b9be59cae69724f990c2164736f6c634300081b0033f0c57e16840df040f15088dc2f81fe391c3923bec73e23a9662efc9c229c6a00","linkReferences":{}},"methodIdentifiers":{"EIP712_INPUT_VERIFICATION_TYPE()":"54130ccd","EIP712_INPUT_VERIFICATION_TYPEHASH()":"8b218123","UPGRADE_INTERFACE_VERSION()":"ad3cb1cc","cleanTransientStorage()":"35334c23","defineNewContext(address[],uint256)":"da53c47d","eip712Domain()":"84b0196e","getCoprocessorSigners()":"9164d0ae","getHandleVersion()":"7a297f4b","getThreshold()":"e75235b8","getVersion()":"0d8e6e2c","initializeFromEmptyProxy(address,uint64,address[],uint256)":"5eed7675","isSigner(address)":"7df73e27","proxiableUUID()":"52d1902d","reinitializeV2(address[],uint256)":"e7d9e407","setThreshold(uint256)":"960bfe04","upgradeToAndCall(address,bytes)":"4f1ef286","verifyInput((address,address),bytes32,bytes)":"e6317df5"},"id":58}