{"abi":[{"type":"constructor","inputs":[],"stateMutability":"nonpayable"},{"type":"function","name":"UPGRADE_INTERFACE_VERSION","inputs":[],"outputs":[{"name":"","type":"string","internalType":"string"}],"stateMutability":"view"},{"type":"function","name":"cast","inputs":[{"name":"ct","type":"bytes32","internalType":"bytes32"},{"name":"toType","type":"uint8","internalType":"enum FheType"}],"outputs":[{"name":"result","type":"bytes32","internalType":"bytes32"}],"stateMutability":"nonpayable"},{"type":"function","name":"fheAdd","inputs":[{"name":"lhs","type":"bytes32","internalType":"bytes32"},{"name":"rhs","type":"bytes32","internalType":"bytes32"},{"name":"scalarByte","type":"bytes1","internalType":"bytes1"}],"outputs":[{"name":"result","type":"bytes32","internalType":"bytes32"}],"stateMutability":"nonpayable"},{"type":"function","name":"fheBitAnd","inputs":[{"name":"lhs","type":"bytes32","internalType":"bytes32"},{"name":"rhs","type":"bytes32","internalType":"bytes32"},{"name":"scalarByte","type":"bytes1","internalType":"bytes1"}],"outputs":[{"name":"result","type":"bytes32","internalType":"bytes32"}],"stateMutability":"nonpayable"},{"type":"function","name":"fheBitOr","inputs":[{"name":"lhs","type":"bytes32","internalType":"bytes32"},{"name":"rhs","type":"bytes32","internalType":"bytes32"},{"name":"scalarByte","type":"bytes1","internalType":"bytes1"}],"outputs":[{"name":"result","type":"bytes32","internalType":"bytes32"}],"stateMutability":"nonpayable"},{"type":"function","name":"fheBitXor","inputs":[{"name":"lhs","type":"bytes32","internalType":"bytes32"},{"name":"rhs","type":"bytes32","internalType":"bytes32"},{"name":"scalarByte","type":"bytes1","internalType":"bytes1"}],"outputs":[{"name":"result","type":"bytes32","internalType":"bytes32"}],"stateMutability":"nonpayable"},{"type":"function","name":"fheDiv","inputs":[{"name":"lhs","type":"bytes32","internalType":"bytes32"},{"name":"rhs","type":"bytes32","internalType":"bytes32"},{"name":"scalarByte","type":"bytes1","internalType":"bytes1"}],"outputs":[{"name":"result","type":"bytes32","internalType":"bytes32"}],"stateMutability":"nonpayable"},{"type":"function","name":"fheEq","inputs":[{"name":"lhs","type":"bytes32","internalType":"bytes32"},{"name":"rhs","type":"bytes32","internalType":"bytes32"},{"name":"scalarByte","type":"bytes1","internalType":"bytes1"}],"outputs":[{"name":"result","type":"bytes32","internalType":"bytes32"}],"stateMutability":"nonpayable"},{"type":"function","name":"fheGe","inputs":[{"name":"lhs","type":"bytes32","internalType":"bytes32"},{"name":"rhs","type":"bytes32","internalType":"bytes32"},{"name":"scalarByte","type":"bytes1","internalType":"bytes1"}],"outputs":[{"name":"result","type":"bytes32","internalType":"bytes32"}],"stateMutability":"nonpayable"},{"type":"function","name":"fheGt","inputs":[{"name":"lhs","type":"bytes32","internalType":"bytes32"},{"name":"rhs","type":"bytes32","internalType":"bytes32"},{"name":"scalarByte","type":"bytes1","internalType":"bytes1"}],"outputs":[{"name":"result","type":"bytes32","internalType":"bytes32"}],"stateMutability":"nonpayable"},{"type":"function","name":"fheIfThenElse","inputs":[{"name":"control","type":"bytes32","internalType":"bytes32"},{"name":"ifTrue","type":"bytes32","internalType":"bytes32"},{"name":"ifFalse","type":"bytes32","internalType":"bytes32"}],"outputs":[{"name":"result","type":"bytes32","internalType":"bytes32"}],"stateMutability":"nonpayable"},{"type":"function","name":"fheLe","inputs":[{"name":"lhs","type":"bytes32","internalType":"bytes32"},{"name":"rhs","type":"bytes32","internalType":"bytes32"},{"name":"scalarByte","type":"bytes1","internalType":"bytes1"}],"outputs":[{"name":"result","type":"bytes32","internalType":"bytes32"}],"stateMutability":"nonpayable"},{"type":"function","name":"fheLt","inputs":[{"name":"lhs","type":"bytes32","internalType":"bytes32"},{"name":"rhs","type":"bytes32","internalType":"bytes32"},{"name":"scalarByte","type":"bytes1","internalType":"bytes1"}],"outputs":[{"name":"result","type":"bytes32","internalType":"bytes32"}],"stateMutability":"nonpayable"},{"type":"function","name":"fheMax","inputs":[{"name":"lhs","type":"bytes32","internalType":"bytes32"},{"name":"rhs","type":"bytes32","internalType":"bytes32"},{"name":"scalarByte","type":"bytes1","internalType":"bytes1"}],"outputs":[{"name":"result","type":"bytes32","internalType":"bytes32"}],"stateMutability":"nonpayable"},{"type":"function","name":"fheMin","inputs":[{"name":"lhs","type":"bytes32","internalType":"bytes32"},{"name":"rhs","type":"bytes32","internalType":"bytes32"},{"name":"scalarByte","type":"bytes1","internalType":"bytes1"}],"outputs":[{"name":"result","type":"bytes32","internalType":"bytes32"}],"stateMutability":"nonpayable"},{"type":"function","name":"fheMul","inputs":[{"name":"lhs","type":"bytes32","internalType":"bytes32"},{"name":"rhs","type":"bytes32","internalType":"bytes32"},{"name":"scalarByte","type":"bytes1","internalType":"bytes1"}],"outputs":[{"name":"result","type":"bytes32","internalType":"bytes32"}],"stateMutability":"nonpayable"},{"type":"function","name":"fheNe","inputs":[{"name":"lhs","type":"bytes32","internalType":"bytes32"},{"name":"rhs","type":"bytes32","internalType":"bytes32"},{"name":"scalarByte","type":"bytes1","internalType":"bytes1"}],"outputs":[{"name":"result","type":"bytes32","internalType":"bytes32"}],"stateMutability":"nonpayable"},{"type":"function","name":"fheNeg","inputs":[{"name":"ct","type":"bytes32","internalType":"bytes32"}],"outputs":[{"name":"result","type":"bytes32","internalType":"bytes32"}],"stateMutability":"nonpayable"},{"type":"function","name":"fheNot","inputs":[{"name":"ct","type":"bytes32","internalType":"bytes32"}],"outputs":[{"name":"result","type":"bytes32","internalType":"bytes32"}],"stateMutability":"nonpayable"},{"type":"function","name":"fheRand","inputs":[{"name":"randType","type":"uint8","internalType":"enum FheType"}],"outputs":[{"name":"result","type":"bytes32","internalType":"bytes32"}],"stateMutability":"nonpayable"},{"type":"function","name":"fheRandBounded","inputs":[{"name":"upperBound","type":"uint256","internalType":"uint256"},{"name":"randType","type":"uint8","internalType":"enum FheType"}],"outputs":[{"name":"result","type":"bytes32","internalType":"bytes32"}],"stateMutability":"nonpayable"},{"type":"function","name":"fheRem","inputs":[{"name":"lhs","type":"bytes32","internalType":"bytes32"},{"name":"rhs","type":"bytes32","internalType":"bytes32"},{"name":"scalarByte","type":"bytes1","internalType":"bytes1"}],"outputs":[{"name":"result","type":"bytes32","internalType":"bytes32"}],"stateMutability":"nonpayable"},{"type":"function","name":"fheRotl","inputs":[{"name":"lhs","type":"bytes32","internalType":"bytes32"},{"name":"rhs","type":"bytes32","internalType":"bytes32"},{"name":"scalarByte","type":"bytes1","internalType":"bytes1"}],"outputs":[{"name":"result","type":"bytes32","internalType":"bytes32"}],"stateMutability":"nonpayable"},{"type":"function","name":"fheRotr","inputs":[{"name":"lhs","type":"bytes32","internalType":"bytes32"},{"name":"rhs","type":"bytes32","internalType":"bytes32"},{"name":"scalarByte","type":"bytes1","internalType":"bytes1"}],"outputs":[{"name":"result","type":"bytes32","internalType":"bytes32"}],"stateMutability":"nonpayable"},{"type":"function","name":"fheShl","inputs":[{"name":"lhs","type":"bytes32","internalType":"bytes32"},{"name":"rhs","type":"bytes32","internalType":"bytes32"},{"name":"scalarByte","type":"bytes1","internalType":"bytes1"}],"outputs":[{"name":"result","type":"bytes32","internalType":"bytes32"}],"stateMutability":"nonpayable"},{"type":"function","name":"fheShr","inputs":[{"name":"lhs","type":"bytes32","internalType":"bytes32"},{"name":"rhs","type":"bytes32","internalType":"bytes32"},{"name":"scalarByte","type":"bytes1","internalType":"bytes1"}],"outputs":[{"name":"result","type":"bytes32","internalType":"bytes32"}],"stateMutability":"nonpayable"},{"type":"function","name":"fheSub","inputs":[{"name":"lhs","type":"bytes32","internalType":"bytes32"},{"name":"rhs","type":"bytes32","internalType":"bytes32"},{"name":"scalarByte","type":"bytes1","internalType":"bytes1"}],"outputs":[{"name":"result","type":"bytes32","internalType":"bytes32"}],"stateMutability":"nonpayable"},{"type":"function","name":"getACLAddress","inputs":[],"outputs":[{"name":"","type":"address","internalType":"address"}],"stateMutability":"view"},{"type":"function","name":"getHCULimitAddress","inputs":[],"outputs":[{"name":"","type":"address","internalType":"address"}],"stateMutability":"view"},{"type":"function","name":"getHandleVersion","inputs":[],"outputs":[{"name":"","type":"uint8","internalType":"uint8"}],"stateMutability":"pure"},{"type":"function","name":"getInputVerifierAddress","inputs":[],"outputs":[{"name":"","type":"address","internalType":"address"}],"stateMutability":"view"},{"type":"function","name":"getVersion","inputs":[],"outputs":[{"name":"","type":"string","internalType":"string"}],"stateMutability":"pure"},{"type":"function","name":"initializeFromEmptyProxy","inputs":[],"outputs":[],"stateMutability":"nonpayable"},{"type":"function","name":"proxiableUUID","inputs":[],"outputs":[{"name":"","type":"bytes32","internalType":"bytes32"}],"stateMutability":"view"},{"type":"function","name":"reinitializeV3","inputs":[],"outputs":[],"stateMutability":"nonpayable"},{"type":"function","name":"trivialEncrypt","inputs":[{"name":"pt","type":"uint256","internalType":"uint256"},{"name":"toType","type":"uint8","internalType":"enum FheType"}],"outputs":[{"name":"result","type":"bytes32","internalType":"bytes32"}],"stateMutability":"nonpayable"},{"type":"function","name":"upgradeToAndCall","inputs":[{"name":"newImplementation","type":"address","internalType":"address"},{"name":"data","type":"bytes","internalType":"bytes"}],"outputs":[],"stateMutability":"payable"},{"type":"function","name":"verifyInput","inputs":[{"name":"inputHandle","type":"bytes32","internalType":"bytes32"},{"name":"userAddress","type":"address","internalType":"address"},{"name":"inputProof","type":"bytes","internalType":"bytes"},{"name":"inputType","type":"uint8","internalType":"enum FheType"}],"outputs":[{"name":"result","type":"bytes32","internalType":"bytes32"}],"stateMutability":"nonpayable"},{"type":"event","name":"Cast","inputs":[{"name":"caller","type":"address","indexed":true,"internalType":"address"},{"name":"ct","type":"bytes32","indexed":false,"internalType":"bytes32"},{"name":"toType","type":"uint8","indexed":false,"internalType":"enum FheType"},{"name":"result","type":"bytes32","indexed":false,"internalType":"bytes32"}],"anonymous":false},{"type":"event","name":"FheAdd","inputs":[{"name":"caller","type":"address","indexed":true,"internalType":"address"},{"name":"lhs","type":"bytes32","indexed":false,"internalType":"bytes32"},{"name":"rhs","type":"bytes32","indexed":false,"internalType":"bytes32"},{"name":"scalarByte","type":"bytes1","indexed":false,"internalType":"bytes1"},{"name":"result","type":"bytes32","indexed":false,"internalType":"bytes32"}],"anonymous":false},{"type":"event","name":"FheBitAnd","inputs":[{"name":"caller","type":"address","indexed":true,"internalType":"address"},{"name":"lhs","type":"bytes32","indexed":false,"internalType":"bytes32"},{"name":"rhs","type":"bytes32","indexed":false,"internalType":"bytes32"},{"name":"scalarByte","type":"bytes1","indexed":false,"internalType":"bytes1"},{"name":"result","type":"bytes32","indexed":false,"internalType":"bytes32"}],"anonymous":false},{"type":"event","name":"FheBitOr","inputs":[{"name":"caller","type":"address","indexed":true,"internalType":"address"},{"name":"lhs","type":"bytes32","indexed":false,"internalType":"bytes32"},{"name":"rhs","type":"bytes32","indexed":false,"internalType":"bytes32"},{"name":"scalarByte","type":"bytes1","indexed":false,"internalType":"bytes1"},{"name":"result","type":"bytes32","indexed":false,"internalType":"bytes32"}],"anonymous":false},{"type":"event","name":"FheBitXor","inputs":[{"name":"caller","type":"address","indexed":true,"internalType":"address"},{"name":"lhs","type":"bytes32","indexed":false,"internalType":"bytes32"},{"name":"rhs","type":"bytes32","indexed":false,"internalType":"bytes32"},{"name":"scalarByte","type":"bytes1","indexed":false,"internalType":"bytes1"},{"name":"result","type":"bytes32","indexed":false,"internalType":"bytes32"}],"anonymous":false},{"type":"event","name":"FheDiv","inputs":[{"name":"caller","type":"address","indexed":true,"internalType":"address"},{"name":"lhs","type":"bytes32","indexed":false,"internalType":"bytes32"},{"name":"rhs","type":"bytes32","indexed":false,"internalType":"bytes32"},{"name":"scalarByte","type":"bytes1","indexed":false,"internalType":"bytes1"},{"name":"result","type":"bytes32","indexed":false,"internalType":"bytes32"}],"anonymous":false},{"type":"event","name":"FheEq","inputs":[{"name":"caller","type":"address","indexed":true,"internalType":"address"},{"name":"lhs","type":"bytes32","indexed":false,"internalType":"bytes32"},{"name":"rhs","type":"bytes32","indexed":false,"internalType":"bytes32"},{"name":"scalarByte","type":"bytes1","indexed":false,"internalType":"bytes1"},{"name":"result","type":"bytes32","indexed":false,"internalType":"bytes32"}],"anonymous":false},{"type":"event","name":"FheGe","inputs":[{"name":"caller","type":"address","indexed":true,"internalType":"address"},{"name":"lhs","type":"bytes32","indexed":false,"internalType":"bytes32"},{"name":"rhs","type":"bytes32","indexed":false,"internalType":"bytes32"},{"name":"scalarByte","type":"bytes1","indexed":false,"internalType":"bytes1"},{"name":"result","type":"bytes32","indexed":false,"internalType":"bytes32"}],"anonymous":false},{"type":"event","name":"FheGt","inputs":[{"name":"caller","type":"address","indexed":true,"internalType":"address"},{"name":"lhs","type":"bytes32","indexed":false,"internalType":"bytes32"},{"name":"rhs","type":"bytes32","indexed":false,"internalType":"bytes32"},{"name":"scalarByte","type":"bytes1","indexed":false,"internalType":"bytes1"},{"name":"result","type":"bytes32","indexed":false,"internalType":"bytes32"}],"anonymous":false},{"type":"event","name":"FheIfThenElse","inputs":[{"name":"caller","type":"address","indexed":true,"internalType":"address"},{"name":"control","type":"bytes32","indexed":false,"internalType":"bytes32"},{"name":"ifTrue","type":"bytes32","indexed":false,"internalType":"bytes32"},{"name":"ifFalse","type":"bytes32","indexed":false,"internalType":"bytes32"},{"name":"result","type":"bytes32","indexed":false,"internalType":"bytes32"}],"anonymous":false},{"type":"event","name":"FheLe","inputs":[{"name":"caller","type":"address","indexed":true,"internalType":"address"},{"name":"lhs","type":"bytes32","indexed":false,"internalType":"bytes32"},{"name":"rhs","type":"bytes32","indexed":false,"internalType":"bytes32"},{"name":"scalarByte","type":"bytes1","indexed":false,"internalType":"bytes1"},{"name":"result","type":"bytes32","indexed":false,"internalType":"bytes32"}],"anonymous":false},{"type":"event","name":"FheLt","inputs":[{"name":"caller","type":"address","indexed":true,"internalType":"address"},{"name":"lhs","type":"bytes32","indexed":false,"internalType":"bytes32"},{"name":"rhs","type":"bytes32","indexed":false,"internalType":"bytes32"},{"name":"scalarByte","type":"bytes1","indexed":false,"internalType":"bytes1"},{"name":"result","type":"bytes32","indexed":false,"internalType":"bytes32"}],"anonymous":false},{"type":"event","name":"FheMax","inputs":[{"name":"caller","type":"address","indexed":true,"internalType":"address"},{"name":"lhs","type":"bytes32","indexed":false,"internalType":"bytes32"},{"name":"rhs","type":"bytes32","indexed":false,"internalType":"bytes32"},{"name":"scalarByte","type":"bytes1","indexed":false,"internalType":"bytes1"},{"name":"result","type":"bytes32","indexed":false,"internalType":"bytes32"}],"anonymous":false},{"type":"event","name":"FheMin","inputs":[{"name":"caller","type":"address","indexed":true,"internalType":"address"},{"name":"lhs","type":"bytes32","indexed":false,"internalType":"bytes32"},{"name":"rhs","type":"bytes32","indexed":false,"internalType":"bytes32"},{"name":"scalarByte","type":"bytes1","indexed":false,"internalType":"bytes1"},{"name":"result","type":"bytes32","indexed":false,"internalType":"bytes32"}],"anonymous":false},{"type":"event","name":"FheMul","inputs":[{"name":"caller","type":"address","indexed":true,"internalType":"address"},{"name":"lhs","type":"bytes32","indexed":false,"internalType":"bytes32"},{"name":"rhs","type":"bytes32","indexed":false,"internalType":"bytes32"},{"name":"scalarByte","type":"bytes1","indexed":false,"internalType":"bytes1"},{"name":"result","type":"bytes32","indexed":false,"internalType":"bytes32"}],"anonymous":false},{"type":"event","name":"FheNe","inputs":[{"name":"caller","type":"address","indexed":true,"internalType":"address"},{"name":"lhs","type":"bytes32","indexed":false,"internalType":"bytes32"},{"name":"rhs","type":"bytes32","indexed":false,"internalType":"bytes32"},{"name":"scalarByte","type":"bytes1","indexed":false,"internalType":"bytes1"},{"name":"result","type":"bytes32","indexed":false,"internalType":"bytes32"}],"anonymous":false},{"type":"event","name":"FheNeg","inputs":[{"name":"caller","type":"address","indexed":true,"internalType":"address"},{"name":"ct","type":"bytes32","indexed":false,"internalType":"bytes32"},{"name":"result","type":"bytes32","indexed":false,"internalType":"bytes32"}],"anonymous":false},{"type":"event","name":"FheNot","inputs":[{"name":"caller","type":"address","indexed":true,"internalType":"address"},{"name":"ct","type":"bytes32","indexed":false,"internalType":"bytes32"},{"name":"result","type":"bytes32","indexed":false,"internalType":"bytes32"}],"anonymous":false},{"type":"event","name":"FheRand","inputs":[{"name":"caller","type":"address","indexed":true,"internalType":"address"},{"name":"randType","type":"uint8","indexed":false,"internalType":"enum FheType"},{"name":"seed","type":"bytes16","indexed":false,"internalType":"bytes16"},{"name":"result","type":"bytes32","indexed":false,"internalType":"bytes32"}],"anonymous":false},{"type":"event","name":"FheRandBounded","inputs":[{"name":"caller","type":"address","indexed":true,"internalType":"address"},{"name":"upperBound","type":"uint256","indexed":false,"internalType":"uint256"},{"name":"randType","type":"uint8","indexed":false,"internalType":"enum FheType"},{"name":"seed","type":"bytes16","indexed":false,"internalType":"bytes16"},{"name":"result","type":"bytes32","indexed":false,"internalType":"bytes32"}],"anonymous":false},{"type":"event","name":"FheRem","inputs":[{"name":"caller","type":"address","indexed":true,"internalType":"address"},{"name":"lhs","type":"bytes32","indexed":false,"internalType":"bytes32"},{"name":"rhs","type":"bytes32","indexed":false,"internalType":"bytes32"},{"name":"scalarByte","type":"bytes1","indexed":false,"internalType":"bytes1"},{"name":"result","type":"bytes32","indexed":false,"internalType":"bytes32"}],"anonymous":false},{"type":"event","name":"FheRotl","inputs":[{"name":"caller","type":"address","indexed":true,"internalType":"address"},{"name":"lhs","type":"bytes32","indexed":false,"internalType":"bytes32"},{"name":"rhs","type":"bytes32","indexed":false,"internalType":"bytes32"},{"name":"scalarByte","type":"bytes1","indexed":false,"internalType":"bytes1"},{"name":"result","type":"bytes32","indexed":false,"internalType":"bytes32"}],"anonymous":false},{"type":"event","name":"FheRotr","inputs":[{"name":"caller","type":"address","indexed":true,"internalType":"address"},{"name":"lhs","type":"bytes32","indexed":false,"internalType":"bytes32"},{"name":"rhs","type":"bytes32","indexed":false,"internalType":"bytes32"},{"name":"scalarByte","type":"bytes1","indexed":false,"internalType":"bytes1"},{"name":"result","type":"bytes32","indexed":false,"internalType":"bytes32"}],"anonymous":false},{"type":"event","name":"FheShl","inputs":[{"name":"caller","type":"address","indexed":true,"internalType":"address"},{"name":"lhs","type":"bytes32","indexed":false,"internalType":"bytes32"},{"name":"rhs","type":"bytes32","indexed":false,"internalType":"bytes32"},{"name":"scalarByte","type":"bytes1","indexed":false,"internalType":"bytes1"},{"name":"result","type":"bytes32","indexed":false,"internalType":"bytes32"}],"anonymous":false},{"type":"event","name":"FheShr","inputs":[{"name":"caller","type":"address","indexed":true,"internalType":"address"},{"name":"lhs","type":"bytes32","indexed":false,"internalType":"bytes32"},{"name":"rhs","type":"bytes32","indexed":false,"internalType":"bytes32"},{"name":"scalarByte","type":"bytes1","indexed":false,"internalType":"bytes1"},{"name":"result","type":"bytes32","indexed":false,"internalType":"bytes32"}],"anonymous":false},{"type":"event","name":"FheSub","inputs":[{"name":"caller","type":"address","indexed":true,"internalType":"address"},{"name":"lhs","type":"bytes32","indexed":false,"internalType":"bytes32"},{"name":"rhs","type":"bytes32","indexed":false,"internalType":"bytes32"},{"name":"scalarByte","type":"bytes1","indexed":false,"internalType":"bytes1"},{"name":"result","type":"bytes32","indexed":false,"internalType":"bytes32"}],"anonymous":false},{"type":"event","name":"Initialized","inputs":[{"name":"version","type":"uint64","indexed":false,"internalType":"uint64"}],"anonymous":false},{"type":"event","name":"TrivialEncrypt","inputs":[{"name":"caller","type":"address","indexed":true,"internalType":"address"},{"name":"pt","type":"uint256","indexed":false,"internalType":"uint256"},{"name":"toType","type":"uint8","indexed":false,"internalType":"enum FheType"},{"name":"result","type":"bytes32","indexed":false,"internalType":"bytes32"}],"anonymous":false},{"type":"event","name":"Upgraded","inputs":[{"name":"implementation","type":"address","indexed":true,"internalType":"address"}],"anonymous":false},{"type":"event","name":"VerifyInput","inputs":[{"name":"caller","type":"address","indexed":true,"internalType":"address"},{"name":"inputHandle","type":"bytes32","indexed":false,"internalType":"bytes32"},{"name":"userAddress","type":"address","indexed":false,"internalType":"address"},{"name":"inputProof","type":"bytes","indexed":false,"internalType":"bytes"},{"name":"inputType","type":"uint8","indexed":false,"internalType":"enum FheType"},{"name":"result","type":"bytes32","indexed":false,"internalType":"bytes32"}],"anonymous":false},{"type":"error","name":"ACLNotAllowed","inputs":[{"name":"handle","type":"bytes32","internalType":"bytes32"},{"name":"account","type":"address","internalType":"address"}]},{"type":"error","name":"AddressEmptyCode","inputs":[{"name":"target","type":"address","internalType":"address"}]},{"type":"error","name":"DivisionByZero","inputs":[]},{"type":"error","name":"ERC1967InvalidImplementation","inputs":[{"name":"implementation","type":"address","internalType":"address"}]},{"type":"error","name":"ERC1967NonPayable","inputs":[]},{"type":"error","name":"FailedCall","inputs":[]},{"type":"error","name":"IncompatibleTypes","inputs":[]},{"type":"error","name":"InvalidByteLength","inputs":[{"name":"typeOf","type":"uint8","internalType":"enum FheType"},{"name":"length","type":"uint256","internalType":"uint256"}]},{"type":"error","name":"InvalidInitialization","inputs":[]},{"type":"error","name":"InvalidType","inputs":[]},{"type":"error","name":"IsNotScalar","inputs":[]},{"type":"error","name":"NotHostOwner","inputs":[{"name":"sender","type":"address","internalType":"address"}]},{"type":"error","name":"NotInitializing","inputs":[]},{"type":"error","name":"NotInitializingFromEmptyProxy","inputs":[]},{"type":"error","name":"NotPowerOfTwo","inputs":[]},{"type":"error","name":"ScalarByteIsNotBoolean","inputs":[]},{"type":"error","name":"SecondOperandIsNotScalar","inputs":[]},{"type":"error","name":"UUPSUnauthorizedCallContext","inputs":[]},{"type":"error","name":"UUPSUnsupportedProxiableUUID","inputs":[{"name":"slot","type":"bytes32","internalType":"bytes32"}]},{"type":"error","name":"UnsupportedType","inputs":[]},{"type":"error","name":"UpperBoundAboveMaxTypeValue","inputs":[]}],"bytecode":{"object":"0x60a080604052346100c257306080525f516020615e305f395f51905f525460ff8160401c166100b3576002600160401b03196001600160401b03821601610060575b604051615d6990816100c78239608051818181613bec0152613c970152f35b6001600160401b0319166001600160401b039081175f516020615e305f395f51905f525581527fc7f505b2f371ae2175ee4913f4499e1f2633a7b5936321eed1cdaeb6115181d290602090a15f80610041565b63f92ee8a960e01b5f5260045ffd5b5f80fdfe60806040526004361015610011575f80fd5b5f5f3560e01c806304559f71146153a757806308bf832a146151825780630d8e6e2c14614f91578063117b2f3814614cad5780631391547f146149cb578063182b6d98146146e95780631c89ee441461449d57806336318d64146141bb57806339f738101461416057806348eef47e14613f655780634f1ef28614613c4b57806352d1902d14613bd157806357f0a568146138ef5780635a53accb146135f657806363a2db291461330e5780636754b360146130295780637210768114612d475780637513a40414612a655780637702dcff146126655780637a297f4b1461264957806385362ee7146123675780638b49ceb41461207f57806391f98ffe14611d9a5780639cd07acb14611ba8578063a8c7c2c114611b79578063ad3cb1cc14611b14578063bac22bb814611af8578063c021329e14611813578063ccc480a11461152e578063cf4d18aa146111ea578063d580c06314610fe4578063d75d6e8a14610e0f578063d8092cbc14610b24578063d99882d51461083c578063e078697214610814578063f51ccfb0146105b6578063f6859bdc1461058e5763f77f3f1d146101bc575f80fd5b34610404576101ca366156b6565b9291906102006101fa6101f56101f06101eb6101e6600d6157bc565b6157ca565b6157d8565b6157f5565b6157e6565b83615999565b9260018560f81c1161056b576040516382027b6d60e01b8152600481018490523360248201526020816044815f516020615cf45f395f51905f525afa90811561040757829161054c575b5015610534576001600160f81b03198516801561045e575b5f1943019043821161044a576040516704648455f636f6d760c41b60208201908152906102e2938593600c60f81b602884015288602984015287604984015260698301525f516020615d145f395f51905f52606a83015246607e83015240609e8201524260be82015260be81526102da60de826156e1565b519020615a47565b935f516020615cf45f395f51905f523b1561041257604051630f8e573b60e21b8152600481018690523360248201528281604481835f516020615cf45f395f51905f525af1801561042b57908391610416575b50505f516020615cd45f395f51905f523b15610412578161037091604051809381926360e1218960e01b835289888a8d339460048801615810565b0381835f516020615cd45f395f51905f525af18015610407576103ef575b50506020937fb3d5c664ec86575818e8d75ff25c5f867250df8954088549c41c848cd10e76cb916103e4856040519384933397859094939260609260808301968352602083015260ff60f81b1660408201520152565b0390a2604051908152f35b6103fa8280926156e1565b610404578061038e565b80fd5b6040513d84823e3d90fd5b5080fd5b81610420916156e1565b61041257815f610335565b6040513d85823e3d90fd5b634e487b7160e01b5f52602160045260245ffd5b634e487b7160e01b83526011600452602483fd5b6040516382027b6d60e01b8152600481018490523360248201526020816044815f516020615cf45f395f51905f525afa90811561042b578391610505575b50156104ee576104ab836159cd565b6104b4856159cd565b60548210156104da5760548110156104da571461026257631f3158c760e01b8252600482fd5b634e487b7160e01b84526021600452602484fd5b50604491632778ce4b60e21b825260045233602452fd5b610527915060203d60201161052d575b61051f81836156e1565b810190615854565b5f61049c565b503d610515565b632778ce4b60e21b8152600483905233602452604490fd5b610565915060203d60201161052d5761051f81836156e1565b5f61024a565b63df7bf32560e01b8152600490fd5b634e487b7160e01b5f52601160045260245ffd5b503461040457806003193601126104045760206040515f516020615cf45f395f51905f528152f35b5034610404576020366003190112610404576004356105e76105e16101f56101eb6101e6600d6157bc565b82615999565b6040516382027b6d60e01b8152600481018390523360248201529091906020816044815f516020615cf45f395f51905f525afa9081156107a75784916107f5575b50156107df575f1943014381116107cb576040516704648455f636f6d760c41b60208201908152906106aa92601560f81b60288301528460298301525f516020615d145f395f51905f52604983015246605d83015240607d82015242609d820152609d815261069860bd826156e1565b5190206106a4836159cd565b90615a47565b915f516020615cf45f395f51905f523b156107c757604051630f8e573b60e21b81526004810184905233602482015284908181604481835f516020615cf45f395f51905f525af18015610407576107b2575b505f516020615cd45f395f51905f523b15610404576107339160405180938192632dcbc5d160e01b8352878733926004860161588c565b0381835f516020615cd45f395f51905f525af180156107a75761078e575b6020838360405190815281838201527f55aff4cc7a3d160c83f1f15b818011ede841a0b4597fb14dcd3603df3a11e5e060403392a2604051908152f35b6107998480926156e1565b6107a35782610751565b8280fd5b6040513d86823e3d90fd5b816107bc916156e1565b6107c757835f6106fc565b8380fd5b634e487b7160e01b84526011600452602484fd5b632778ce4b60e21b835260045233602452604482fd5b61080e915060203d60201161052d5761051f81836156e1565b5f610628565b503461040457806003193601126104045760206040515f516020615cd45f395f51905f528152f35b50346104045761084b366156b6565b9291906108646101fa6101f56101eb6101e6600d6157bc565b9260018560f81c1161056b576040516382027b6d60e01b8152600481018490523360248201526020816044815f516020615cf45f395f51905f525afa908115610407578291610b05575b5015610534576001600160f81b031985168015610a6a575b5f1943019043821161044a576040516704648455f636f6d760c41b602082019081529061093e938893600560f81b602884015288602984015287604984015260698301525f516020615d145f395f51905f52606a83015246607e83015240609e8201524260be82015260be81526102da60de826156e1565b935f516020615cf45f395f51905f523b1561041257604051630f8e573b60e21b8152600481018690523360248201528281604481835f516020615cf45f395f51905f525af1801561042b57908391610a55575b50505f516020615cd45f395f51905f523b1561041257816109cc916040518093819263646f21a960e11b835289888a8d339460048801615810565b0381835f516020615cd45f395f51905f525af1801561040757610a40575b50506020937fe42486b0ccdbef81a2075c48c8e515c079aea73c8b82429997c72a2fe1bf4fef916103e4856040519384933397859094939260609260808301968352602083015260ff60f81b1660408201520152565b610a4b8280926156e1565b61040457806109ea565b81610a5f916156e1565b61041257815f610991565b6040516382027b6d60e01b8152600481018490523360248201526020816044815f516020615cf45f395f51905f525afa90811561042b578391610ae6575b50156104ee57610ab7836159cd565b610ac0856159cd565b60548210156104da5760548110156104da57146108c657631f3158c760e01b8252600482fd5b610aff915060203d60201161052d5761051f81836156e1565b5f610aa8565b610b1e915060203d60201161052d5761051f81836156e1565b5f6108ae565b503461040457610b33366156b6565b929190610b4f6101fa6101f56101f06101eb6101e6600d6157bc565b9260018560f81c1161056b576040516382027b6d60e01b8152600481018490523360248201526020816044815f516020615cf45f395f51905f525afa908115610407578291610df0575b5015610534576001600160f81b031985168015610d55575b5f1943019043821161044a576040516704648455f636f6d760c41b6020820190815290610c29938593600d60f81b602884015288602984015287604984015260698301525f516020615d145f395f51905f52606a83015246607e83015240609e8201524260be82015260be81526102da60de826156e1565b935f516020615cf45f395f51905f523b1561041257604051630f8e573b60e21b8152600481018690523360248201528281604481835f516020615cf45f395f51905f525af1801561042b57908391610d40575b50505f516020615cd45f395f51905f523b156104125781610cb791604051809381926335d68c5b60e11b835289888a8d339460048801615810565b0381835f516020615cd45f395f51905f525af1801561040757610d2b575b50506020937f6960c1e88f61c352dba34d1bbf6753e302795264d5d8ae82f7983c7004651e5d916103e4856040519384933397859094939260609260808301968352602083015260ff60f81b1660408201520152565b610d368280926156e1565b6104045780610cd5565b81610d4a916156e1565b61041257815f610c7c565b6040516382027b6d60e01b8152600481018490523360248201526020816044815f516020615cf45f395f51905f525afa90811561042b578391610dd1575b50156104ee57610da2836159cd565b610dab856159cd565b60548210156104da5760548110156104da5714610bb157631f3158c760e01b8252600482fd5b610dea915060203d60201161052d5761051f81836156e1565b5f610d93565b610e09915060203d60201161052d5761051f81836156e1565b5f610b99565b503461040457602036600319011261040457600435605481101561041257610e35615a8a565b90610e496101f56101eb6101e6600d6157bc565b600160ff83161b1615610fd557610eb1816040519360208501906704648455f636f6d760c41b8252600d60f91b6028870152610e88602987018461587c565b6fffffffffffffffffffffffffffffffff19169485602a820152601a81526102da603a826156e1565b915f516020615cd45f395f51905f523b156107c75760405163d5b8b8f360e01b81528490818180610ee733898960048501615971565b0381835f516020615cd45f395f51905f525af1801561040757610fc0575b50505f516020615cf45f395f51905f523b156107c757604051630f8e573b60e21b8152600481018490523360248201528481604481835f516020615cf45f395f51905f525af18015610fb557610fa0575b5060209350610f686040518093615803565b838201528160408201527f0c8aca6017003326051e19913ef02631f24b801125e1fa8a1d812e868319fda660603392a2604051908152f35b610fab8580926156e1565b6107c75783610f56565b6040513d87823e3d90fd5b81610fca916156e1565b6107c757835f610f05565b63636f233560e11b8352600483fd5b50346104045760203660031901126104045760043561100c6105e16101f56101eb601c6157ca565b6040516382027b6d60e01b8152600481018390523360248201529091906020816044815f516020615cf45f395f51905f525afa9081156107a75784916111cb575b50156107df575f1943014381116107cb576040516704648455f636f6d760c41b60208201908152906110bd92601460f81b60288301528460298301525f516020615d145f395f51905f52604983015246605d83015240607d82015242609d820152609d815261069860bd826156e1565b915f516020615cf45f395f51905f523b156107c757604051630f8e573b60e21b81526004810184905233602482015284908181604481835f516020615cf45f395f51905f525af18015610407576111b6575b505f516020615cd45f395f51905f523b1561040457611146916040518093819263497c22c560e01b8352878733926004860161588c565b0381835f516020615cd45f395f51905f525af180156107a7576111a1575b6020838360405190815281838201527f8c664d3c3ca583fc5803b8a91c49644bbd9550bfa87967c73ad1de83027768c060403392a2604051908152f35b6111ac8480926156e1565b6107a35782611164565b816111c0916156e1565b6107c757835f61110f565b6111e4915060203d60201161052d5761051f81836156e1565b5f61104d565b5034610404576111f9366156b6565b926001600160f81b031980851693929190840161151f576112266112206101eb601c6157ca565b84615999565b936112318584615b65565b6115105760018660f81c11611501576040516382027b6d60e01b8152600481018590523360248201526020816044815f516020615cf45f395f51905f525afa90811561042b5783916114e2575b50156114ca57801561142f575b5f1943019043821161044a576040516704648455f636f6d760c41b6020820190815290611303938893600460f81b602884015288602984015287604984015260698301525f516020615d145f395f51905f52606a83015246607e83015240609e8201524260be82015260be81526102da60de826156e1565b935f516020615cf45f395f51905f523b1561041257604051630f8e573b60e21b8152600481018690523360248201528281604481835f516020615cf45f395f51905f525af1801561042b5790839161141a575b50505f516020615cd45f395f51905f523b1561041257816113919160405180938192630cc46c6f60e21b835289888a8d339460048801615810565b0381835f516020615cd45f395f51905f525af1801561040757611405575b50506020937f0e691cd0bf8c4e9308e4ced1bb9c964117dc5c5bb9b9ab5bdfebf2c9b13a897c916103e4856040519384933397859094939260609260808301968352602083015260ff60f81b1660408201520152565b6114108280926156e1565b61040457806113af565b81611424916156e1565b61041257815f611356565b6040516382027b6d60e01b8152600481018490523360248201526020816044815f516020615cf45f395f51905f525afa90811561042b5783916114ab575b50156104ee5761147c836159cd565b611485856159cd565b60548210156104da5760548110156104da571461128b57631f3158c760e01b8252600482fd5b6114c4915060203d60201161052d5761051f81836156e1565b5f61146d565b632778ce4b60e21b8252600484905233602452604482fd5b6114fb915060203d60201161052d5761051f81836156e1565b5f61127e565b63df7bf32560e01b8252600482fd5b6323d359a360e01b8252600482fd5b634f224e5360e01b8152600490fd5b50346104045761153d366156b6565b9291906115536101fa6101f56101eb601c6157ca565b9260018560f81c1161056b576040516382027b6d60e01b8152600481018490523360248201526020816044815f516020615cf45f395f51905f525afa9081156104075782916117f4575b5015610534576001600160f81b031985168015611759575b5f1943019043821161044a576040516704648455f636f6d760c41b602082019081529061162d938893600860f81b602884015288602984015287604984015260698301525f516020615d145f395f51905f52606a83015246607e83015240609e8201524260be82015260be81526102da60de826156e1565b935f516020615cf45f395f51905f523b1561041257604051630f8e573b60e21b8152600481018690523360248201528281604481835f516020615cf45f395f51905f525af1801561042b57908391611744575b50505f516020615cd45f395f51905f523b1561041257816116bb9160405180938192631efa331f60e31b835289888a8d339460048801615810565b0381835f516020615cd45f395f51905f525af180156104075761172f575b50506020937fe84282aaebcca698443e39a2a948a345d0d2ebc654af5cb657a2d7e8053bf6cb916103e4856040519384933397859094939260609260808301968352602083015260ff60f81b1660408201520152565b61173a8280926156e1565b61040457806116d9565b8161174e916156e1565b61041257815f611680565b6040516382027b6d60e01b8152600481018490523360248201526020816044815f516020615cf45f395f51905f525afa90811561042b5783916117d5575b50156104ee576117a6836159cd565b6117af856159cd565b60548210156104da5760548110156104da57146115b557631f3158c760e01b8252600482fd5b6117ee915060203d60201161052d5761051f81836156e1565b5f611797565b61180d915060203d60201161052d5761051f81836156e1565b5f61159d565b503461040457611822366156b6565b9291906118386101fa6101f56101eb601c6157ca565b9260018560f81c1161056b576040516382027b6d60e01b8152600481018490523360248201526020816044815f516020615cf45f395f51905f525afa908115610407578291611ad9575b5015610534576001600160f81b031985168015611a3e575b5f1943019043821161044a576040516704648455f636f6d760c41b6020820190815290611912938893600b60f81b602884015288602984015287604984015260698301525f516020615d145f395f51905f52606a83015246607e83015240609e8201524260be82015260be81526102da60de826156e1565b935f516020615cf45f395f51905f523b1561041257604051630f8e573b60e21b8152600481018690523360248201528281604481835f516020615cf45f395f51905f525af1801561042b57908391611a29575b50505f516020615cd45f395f51905f523b1561041257816119a09160405180938192638629f54560e01b835289888a8d339460048801615810565b0381835f516020615cd45f395f51905f525af1801561040757611a14575b50506020937fc148675905d07ad5496f8ef4d8195c907503f3ec12fd10ed5f21240abc693634916103e4856040519384933397859094939260609260808301968352602083015260ff60f81b1660408201520152565b611a1f8280926156e1565b61040457806119be565b81611a33916156e1565b61041257815f611965565b6040516382027b6d60e01b8152600481018490523360248201526020816044815f516020615cf45f395f51905f525afa90811561042b578391611aba575b50156104ee57611a8b836159cd565b611a94856159cd565b60548210156104da5760548110156104da571461189a57631f3158c760e01b8252600482fd5b611ad3915060203d60201161052d5761051f81836156e1565b5f611a7c565b611af2915060203d60201161052d5761051f81836156e1565b5f611882565b5034610404578060031936011261040457611b116158ba565b80f35b503461040457806003193601126104045750611b75604051611b376040826156e1565b600581527f352e302e300000000000000000000000000000000000000000000000000000006020820152604051918291602083526020830190615779565b0390f35b503461040457806003193601126104045760206040517336772142b74871f255cbd7a3e89b401d3e45825f8152f35b503461040457611bb73661579d565b9190611bcf6101f56101f06101eb6101e6600d6157bc565b6054841015611d8657600160ff85161b1615611d77575f19430143811161044a5783611c5c9160405160208101916704648455f636f6d760c41b8352600360fb1b6028830152856029830152611c28604983018561587c565b5f516020615d145f395f51905f52604a83015246605e83015240607e82015242609e820152609e81526102da60be826156e1565b915f516020615cd45f395f51905f523b156104045760405163b78bef5960e01b8152818180611c9033888a60048501615971565b0381835f516020615cd45f395f51905f525af1801561040757908291611d62575b50505f516020615cf45f395f51905f523b1561040457604051630f8e573b60e21b8152600481018490523360248201528181604481835f516020615cf45f395f51905f525af1801561040757611d4d575b5050611d1960209360405192835284830190615803565b8160408201527f063ccd1bba45151d91f6a418065047a3d048d058a922535747bb2b575a01d23660603392a2604051908152f35b611d588280926156e1565b6104045780611d02565b81611d6c916156e1565b61040457805f611cb1565b63636f233560e11b8252600482fd5b634e487b7160e01b83526021600452602483fd5b503461040457611da9366156b6565b929190611dbf6101fa6101f56101eb601c6157ca565b9260018560f81c1161056b576040516382027b6d60e01b8152600481018490523360248201526020816044815f516020615cf45f395f51905f525afa908115610407578291612060575b5015610534576001600160f81b031985168015611fc5575b5f1943019043821161044a576040516704648455f636f6d760c41b6020820190815290611e99938893600960f81b602884015288602984015287604984015260698301525f516020615d145f395f51905f52606a83015246607e83015240609e8201524260be82015260be81526102da60de826156e1565b935f516020615cf45f395f51905f523b1561041257604051630f8e573b60e21b8152600481018690523360248201528281604481835f516020615cf45f395f51905f525af1801561042b57908391611fb0575b50505f516020615cd45f395f51905f523b156104125781611f2791604051809381926307ccdf6160e01b835289888a8d339460048801615810565b0381835f516020615cd45f395f51905f525af1801561040757611f9b575b50506020937f324220bfc9cb158b492991c03c309cd86e5345cac45aacae2092ddabe31fa3d8916103e4856040519384933397859094939260609260808301968352602083015260ff60f81b1660408201520152565b611fa68280926156e1565b6104045780611f45565b81611fba916156e1565b61041257815f611eec565b6040516382027b6d60e01b8152600481018490523360248201526020816044815f516020615cf45f395f51905f525afa90811561042b578391612041575b50156104ee57612012836159cd565b61201b856159cd565b60548210156104da5760548110156104da5714611e2157631f3158c760e01b8252600482fd5b61205a915060203d60201161052d5761051f81836156e1565b5f612003565b612079915060203d60201161052d5761051f81836156e1565b5f611e09565b50346104045761208e366156b6565b9291906120a76101fa6101f56101eb6101e6600d6157bc565b9260018560f81c1161056b576040516382027b6d60e01b8152600481018490523360248201526020816044815f516020615cf45f395f51905f525afa908115610407578291612348575b5015610534576001600160f81b0319851680156122ad575b5f1943019043821161044a576040516704648455f636f6d760c41b6020820190815290612181938893600760f81b602884015288602984015287604984015260698301525f516020615d145f395f51905f52606a83015246607e83015240609e8201524260be82015260be81526102da60de826156e1565b935f516020615cf45f395f51905f523b1561041257604051630f8e573b60e21b8152600481018690523360248201528281604481835f516020615cf45f395f51905f525af1801561042b57908391612298575b50505f516020615cd45f395f51905f523b15610412578161220f9160405180938192639f9259bb60e01b835289888a8d339460048801615810565b0381835f516020615cd45f395f51905f525af1801561040757612283575b50506020937f4d32284bd3193ecaa44e1ceca32f41c5d6c32803a92e07967dd3ee4229721582916103e4856040519384933397859094939260609260808301968352602083015260ff60f81b1660408201520152565b61228e8280926156e1565b610404578061222d565b816122a2916156e1565b61041257815f6121d4565b6040516382027b6d60e01b8152600481018490523360248201526020816044815f516020615cf45f395f51905f525afa90811561042b578391612329575b50156104ee576122fa836159cd565b612303856159cd565b60548210156104da5760548110156104da571461210957631f3158c760e01b8252600482fd5b612342915060203d60201161052d5761051f81836156e1565b5f6122eb565b612361915060203d60201161052d5761051f81836156e1565b5f6120f1565b503461040457612376366156b6565b9291906123896101fa6101eb601c6157ca565b9260018560f81c1161056b576040516382027b6d60e01b8152600481018490523360248201526020816044815f516020615cf45f395f51905f525afa90811561040757829161262a575b5015610534576001600160f81b03198516801561258f575b5f1943019043821161044a576040516704648455f636f6d760c41b6020820190815290612463938593600f60f81b602884015288602984015287604984015260698301525f516020615d145f395f51905f52606a83015246607e83015240609e8201524260be82015260be81526102da60de826156e1565b935f516020615cf45f395f51905f523b1561041257604051630f8e573b60e21b8152600481018690523360248201528281604481835f516020615cf45f395f51905f525af1801561042b5790839161257a575b50505f516020615cd45f395f51905f523b1561041257816124f1916040518093819263458fb27760e01b835289888a8d339460048801615810565b0381835f516020615cd45f395f51905f525af1801561040757612565575b50506020937fc9ff8f0d18a3f766ce5de3de216076050140e4fc2652f5e0e745f6fc836cda8b916103e4856040519384933397859094939260609260808301968352602083015260ff60f81b1660408201520152565b6125708280926156e1565b610404578061250f565b81612584916156e1565b61041257815f6124b6565b6040516382027b6d60e01b8152600481018490523360248201526020816044815f516020615cf45f395f51905f525afa90811561042b57839161260b575b50156104ee576125dc836159cd565b6125e5856159cd565b60548210156104da5760548110156104da57146123eb57631f3158c760e01b8252600482fd5b612624915060203d60201161052d5761051f81836156e1565b5f6125cd565b612643915060203d60201161052d5761051f81836156e1565b5f6123d3565b5034610404578060031936011261040457602090604051908152f35b5034610404576060366003190112610404576024356004356044356126996112206101f56101f06101eb6101e6600d6157bc565b6040516382027b6d60e01b8152600481018490523360248201529093906020816044815f516020615cf45f395f51905f525afa908115612944578691612a46575b5015612a2e576040516382027b6d60e01b8152600481018290523360248201526020816044815f516020615cf45f395f51905f525afa908115612944578691612a0f575b50156129f9576040516382027b6d60e01b8152600481018390523360248201526020816044815f516020615cf45f395f51905f525afa9081156129445786916129da575b50156129c257612771836159cd565b61277a826159cd565b90612784846159cd565b9060548110156129ae5761299f57605481101561298b57605482101561298b57810361297c575f19430143811161296857906128209160405160208101916704648455f636f6d760c41b8352601960f81b60288301528760298301528560498301528660698301525f516020615d145f395f51905f52608983015246609d8301524060bd8201524260dd82015260dd81526102da60fd826156e1565b935f516020615cf45f395f51905f523b1561294f57604051630f8e573b60e21b81526004810186905233602482015286908181604481835f516020615cf45f395f51905f525af1801561040757612953575b50505f516020615cd45f395f51905f523b1561294f5760405163171e1c8360e11b8152906128a4906004830190615803565b8360248201528160448201528260648201528460848201523360a4820152858160c481835f516020615cd45f395f51905f525af180156129445761292b575b50602094506040519283528483015260408201528160608201527f60be9d61aad849facc28c38b048cb5c4be3420b8fa2233e08cfa06be1b6d1c3e60803392a2604051908152f35b6129368680926156e1565b61294057846128e3565b8480fd5b6040513d88823e3d90fd5b8580fd5b8161295d916156e1565b61294f57855f612872565b634e487b7160e01b87526011600452602487fd5b631f3158c760e01b8652600486fd5b634e487b7160e01b87526021600452602487fd5b63636f233560e11b8752600487fd5b634e487b7160e01b88526021600452602488fd5b632778ce4b60e21b8552600482905233602452604485fd5b6129f3915060203d60201161052d5761051f81836156e1565b5f612762565b632778ce4b60e21b855260045233602452604484fd5b612a28915060203d60201161052d5761051f81836156e1565b5f61271e565b632778ce4b60e21b8552600483905233602452604485fd5b612a5f915060203d60201161052d5761051f81836156e1565b5f6126da565b503461040457612a74366156b6565b929190612a876101fa6101eb601c6157ca565b9260018560f81c1161056b576040516382027b6d60e01b8152600481018490523360248201526020816044815f516020615cf45f395f51905f525afa908115610407578291612d28575b5015610534576001600160f81b031985168015612c8d575b5f1943019043821161044a576040516704648455f636f6d760c41b6020820190815290612b61938593601060f81b602884015288602984015287604984015260698301525f516020615d145f395f51905f52606a83015246607e83015240609e8201524260be82015260be81526102da60de826156e1565b935f516020615cf45f395f51905f523b1561041257604051630f8e573b60e21b8152600481018690523360248201528281604481835f516020615cf45f395f51905f525af1801561042b57908391612c78575b50505f516020615cd45f395f51905f523b156104125781612bef91604051809381926338bd17e560e01b835289888a8d339460048801615810565b0381835f516020615cd45f395f51905f525af1801561040757612c63575b50506020937fdef2e704a077284a07f3d0b436db88f5d981b69f58ab7c1ae623252718a6de01916103e4856040519384933397859094939260609260808301968352602083015260ff60f81b1660408201520152565b612c6e8280926156e1565b6104045780612c0d565b81612c82916156e1565b61041257815f612bb4565b6040516382027b6d60e01b8152600481018490523360248201526020816044815f516020615cf45f395f51905f525afa90811561042b578391612d09575b50156104ee57612cda836159cd565b612ce3856159cd565b60548210156104da5760548110156104da5714612ae957631f3158c760e01b8252600482fd5b612d22915060203d60201161052d5761051f81836156e1565b5f612ccb565b612d41915060203d60201161052d5761051f81836156e1565b5f612ad1565b503461040457612d56366156b6565b929190612d696101fa6101eb601c6157ca565b9260018560f81c1161056b576040516382027b6d60e01b8152600481018490523360248201526020816044815f516020615cf45f395f51905f525afa90811561040757829161300a575b5015610534576001600160f81b031985168015612f6f575b5f1943019043821161044a576040516704648455f636f6d760c41b6020820190815290612e43938593601160f81b602884015288602984015287604984015260698301525f516020615d145f395f51905f52606a83015246607e83015240609e8201524260be82015260be81526102da60de826156e1565b935f516020615cf45f395f51905f523b1561041257604051630f8e573b60e21b8152600481018690523360248201528281604481835f516020615cf45f395f51905f525af1801561042b57908391612f5a575b50505f516020615cd45f395f51905f523b156104125781612ed19160405180938192633bb7d5a360e01b835289888a8d339460048801615810565b0381835f516020615cd45f395f51905f525af1801561040757612f45575b50506020937f0d483b100d8c73b208984ec697caa3091521ee5525ce69edcf97d7e395d3d059916103e4856040519384933397859094939260609260808301968352602083015260ff60f81b1660408201520152565b612f508280926156e1565b6104045780612eef565b81612f64916156e1565b61041257815f612e96565b6040516382027b6d60e01b8152600481018490523360248201526020816044815f516020615cf45f395f51905f525afa90811561042b578391612feb575b50156104ee57612fbc836159cd565b612fc5856159cd565b60548210156104da5760548110156104da5714612dcb57631f3158c760e01b8252600482fd5b613004915060203d60201161052d5761051f81836156e1565b5f612fad565b613023915060203d60201161052d5761051f81836156e1565b5f612db3565b503461040457613038366156b6565b92919061304e6101fa6101f56101eb601c6157ca565b9260018560f81c1161056b576040516382027b6d60e01b8152600481018490523360248201526020816044815f516020615cf45f395f51905f525afa9081156104075782916132ef575b5015610534576001600160f81b031985168015613254575b5f1943019043821161044a576040516704648455f636f6d760c41b6020820190815290613128938893600a60f81b602884015288602984015287604984015260698301525f516020615d145f395f51905f52606a83015246607e83015240609e8201524260be82015260be81526102da60de826156e1565b935f516020615cf45f395f51905f523b1561041257604051630f8e573b60e21b8152600481018690523360248201528281604481835f516020615cf45f395f51905f525af1801561042b5790839161323f575b50505f516020615cd45f395f51905f523b1561041257816131b691604051809381926305f76eb360e41b835289888a8d339460048801615810565b0381835f516020615cd45f395f51905f525af180156104075761322a575b50506020937feb0e4f8dc74058194d0602425fe602f955c222200f7f10c6fe67992f7b24c7e9916103e4856040519384933397859094939260609260808301968352602083015260ff60f81b1660408201520152565b6132358280926156e1565b61040457806131d4565b81613249916156e1565b61041257815f61317b565b6040516382027b6d60e01b8152600481018490523360248201526020816044815f516020615cf45f395f51905f525afa90811561042b5783916132d0575b50156104ee576132a1836159cd565b6132aa856159cd565b60548210156104da5760548110156104da57146130b057631f3158c760e01b8252600482fd5b6132e9915060203d60201161052d5761051f81836156e1565b5f613292565b613308915060203d60201161052d5761051f81836156e1565b5f613098565b50346104045761331d366156b6565b9291906133366101fa6101f56101eb6101e6600d6157bc565b9260018560f81c1161056b576040516382027b6d60e01b8152600481018490523360248201526020816044815f516020615cf45f395f51905f525afa9081156104075782916135d7575b5015610534576001600160f81b03198516801561353c575b5f1943019043821161044a576040516704648455f636f6d760c41b6020820190815290613410938893600660f81b602884015288602984015287604984015260698301525f516020615d145f395f51905f52606a83015246607e83015240609e8201524260be82015260be81526102da60de826156e1565b935f516020615cf45f395f51905f523b1561041257604051630f8e573b60e21b8152600481018690523360248201528281604481835f516020615cf45f395f51905f525af1801561042b57908391613527575b50505f516020615cd45f395f51905f523b15610412578161349e916040518093819263303177df60e21b835289888a8d339460048801615810565b0381835f516020615cd45f395f51905f525af1801561040757613512575b50506020937f56df279bbfb03d9ed097bbe2f28d520ca0c1161206327926e98664d70d2c24c4916103e4856040519384933397859094939260609260808301968352602083015260ff60f81b1660408201520152565b61351d8280926156e1565b61040457806134bc565b81613531916156e1565b61041257815f613463565b6040516382027b6d60e01b8152600481018490523360248201526020816044815f516020615cf45f395f51905f525afa90811561042b5783916135b8575b50156104ee57613589836159cd565b613592856159cd565b60548210156104da5760548110156104da571461339857631f3158c760e01b8252600482fd5b6135d1915060203d60201161052d5761051f81836156e1565b5f61357a565b6135f0915060203d60201161052d5761051f81836156e1565b5f613380565b503461040457613605366156b6565b926001600160f81b031980851693929190840161151f5761362c6112206101eb601c6157ca565b936136378584615b65565b6115105760018660f81c11611501576040516382027b6d60e01b8152600481018590523360248201526020816044815f516020615cf45f395f51905f525afa90811561042b5783916138d0575b50156114ca578015613835575b5f1943019043821161044a576040516704648455f636f6d760c41b6020820190815290613709938893600360f81b602884015288602984015287604984015260698301525f516020615d145f395f51905f52606a83015246607e83015240609e8201524260be82015260be81526102da60de826156e1565b935f516020615cf45f395f51905f523b1561041257604051630f8e573b60e21b8152600481018690523360248201528281604481835f516020615cf45f395f51905f525af1801561042b57908391613820575b50505f516020615cd45f395f51905f523b1561041257816137979160405180938192634d9fbc0d60e11b835289888a8d339460048801615810565b0381835f516020615cd45f395f51905f525af180156104075761380b575b50506020937f3bab2ee0e2f90f4690c6a87bf63cf1a6b626086e95f231860b152966e8dabbf7916103e4856040519384933397859094939260609260808301968352602083015260ff60f81b1660408201520152565b6138168280926156e1565b61040457806137b5565b8161382a916156e1565b61041257815f61375c565b6040516382027b6d60e01b8152600481018490523360248201526020816044815f516020615cf45f395f51905f525afa90811561042b5783916138b1575b50156104ee57613882836159cd565b61388b856159cd565b60548210156104da5760548110156104da571461369157631f3158c760e01b8252600482fd5b6138ca915060203d60201161052d5761051f81836156e1565b5f613873565b6138e9915060203d60201161052d5761051f81836156e1565b5f613684565b5034610404576138fe366156b6565b9291906139116101fa6101eb601c6157ca565b9260018560f81c1161056b576040516382027b6d60e01b8152600481018490523360248201526020816044815f516020615cf45f395f51905f525afa908115610407578291613bb2575b5015610534576001600160f81b031985168015613b17575b5f1943019043821161044a576040516704648455f636f6d760c41b60208201908152906139eb938893600260f81b602884015288602984015287604984015260698301525f516020615d145f395f51905f52606a83015246607e83015240609e8201524260be82015260be81526102da60de826156e1565b935f516020615cf45f395f51905f523b1561041257604051630f8e573b60e21b8152600481018690523360248201528281604481835f516020615cf45f395f51905f525af1801561042b57908391613b02575b50505f516020615cd45f395f51905f523b156104125781613a79916040518093819263818f4d6960e01b835289888a8d339460048801615810565b0381835f516020615cd45f395f51905f525af1801561040757613aed575b50506020937f215346a4f9f975e6d5484e290bd4e53ca14453a9d282ebd3ccedb2a0f171753d916103e4856040519384933397859094939260609260808301968352602083015260ff60f81b1660408201520152565b613af88280926156e1565b6104045780613a97565b81613b0c916156e1565b61041257815f613a3e565b6040516382027b6d60e01b8152600481018490523360248201526020816044815f516020615cf45f395f51905f525afa90811561042b578391613b93575b50156104ee57613b64836159cd565b613b6d856159cd565b60548210156104da5760548110156104da571461397357631f3158c760e01b8252600482fd5b613bac915060203d60201161052d5761051f81836156e1565b5f613b55565b613bcb915060203d60201161052d5761051f81836156e1565b5f61395b565b50346104045780600319360112610404576001600160a01b037f0000000000000000000000000000000000000000000000000000000000000000163003613c3c5760206040517f360894a13ba1a3210667c828492db98dca3e2076cc3735a920a3ca505d382bbc8152f35b63703e46dd60e11b8152600490fd5b50604036600319011261040457600435906001600160a01b0382168083036104125760243567ffffffffffffffff81116107a357613c8d903690600401615733565b6001600160a01b037f000000000000000000000000000000000000000000000000000000000000000016803014908115613f30575b50613f2157604051638da5cb5b60e01b81526020816004815f516020615cf45f395f51905f525afa80156107a7578490613ed8575b6001600160a01b039150163303613ec5576040516352d1902d60e01b815293602085600481865afa80958596613e8d575b50613d4157634c9c8ce360e01b84526004839052602484fd5b9091847f360894a13ba1a3210667c828492db98dca3e2076cc3735a920a3ca505d382bbc8103613e7b5750813b15613e6957807fffffffffffffffffffffffff00000000000000000000000000000000000000007f360894a13ba1a3210667c828492db98dca3e2076cc3735a920a3ca505d382bbc5416177f360894a13ba1a3210667c828492db98dca3e2076cc3735a920a3ca505d382bbc557fbc7cd75a20ee27fd9adebab32041f755214dbc6bffa90cc0225b39da2e5c2d3b8480a28151839015613e4f5780836020613e4395519101845af43d15613e47573d91613e2783615717565b92613e3560405194856156e1565b83523d85602085013e615c79565b5080f35b606091615c79565b50505034613e5a5780f35b63b398979f60e01b8152600490fd5b634c9c8ce360e01b8452600452602483fd5b632a87526960e21b8552600452602484fd5b9095506020813d602011613ebd575b81613ea9602093836156e1565b81010312613eb95751945f613d28565b5f80fd5b3d9150613e9c565b63021bfda160e41b835233600452602483fd5b506020813d602011613f19575b81613ef2602093836156e1565b810103126107c757516001600160a01b03811681036107c7576001600160a01b0390613cf7565b3d9150613ee5565b63703e46dd60e11b8352600483fd5b90506001600160a01b037f360894a13ba1a3210667c828492db98dca3e2076cc3735a920a3ca505d382bbc541614155f613cc2565b503461040457613f743661579d565b9190613f7e615a8a565b613f8e6101f56101eb601c6157ca565b60548510156104da57600160ff86161b1615610fd5578115158061414c575b1561413d57613fbc8483615be6565b61401d846040519260208401906704648455f636f6d760c41b8252601b60f81b6028860152856029860152613ff4604986018461587c565b6fffffffffffffffffffffffffffffffff19169384604a820152603a81526102da605a826156e1565b925f516020615cd45f395f51905f523b1561040457604051636cf0bd2560e01b815281818061405133898b60048501615971565b0381835f516020615cd45f395f51905f525af1801561040757908291614128575b50505f516020615cf45f395f51905f523b1561040457604051630f8e573b60e21b8152600481018590523360248201528181604481835f516020615cf45f395f51905f525af1801561040757614113575b50506140da60209460405193845285840190615803565b60408201528160608201527f5222d96b836727a1d6fe1ee9aef27f9bb507bd41794defa376ff6c648aaf8ff160803392a2604051908152f35b61411e8280926156e1565b61040457806140c3565b81614132916156e1565b61040457805f614072565b63127473a160e11b8352600483fd5b505f1982018281116107cb57821615613fad565b5034610404578060031936011261040457600167ffffffffffffffff7ff0c57e16840df040f15088dc2f81fe391c3923bec73e23a9662efc9c229c6a005416036141ac57611b116158ba565b636f4f731f60e01b8152600490fd5b5034610404576141ca366156b6565b9291906141dd6101fa6101eb601c6157ca565b9260018560f81c1161056b576040516382027b6d60e01b8152600481018490523360248201526020816044815f516020615cf45f395f51905f525afa90811561040757829161447e575b5015610534576001600160f81b0319851680156143e3575b5f1943019043821161044a576040516704648455f636f6d760c41b60208201908152906142b7938893601360f81b602884015288602984015287604984015260698301525f516020615d145f395f51905f52606a83015246607e83015240609e8201524260be82015260be81526102da60de826156e1565b935f516020615cf45f395f51905f523b1561041257604051630f8e573b60e21b8152600481018690523360248201528281604481835f516020615cf45f395f51905f525af1801561042b579083916143ce575b50505f516020615cd45f395f51905f523b156104125781614345916040518093819263968302d760e01b835289888a8d339460048801615810565b0381835f516020615cd45f395f51905f525af18015610407576143b9575b50506020937ffd7c9208f956bf0c6ab76a667f04361245ad3e0a2d0eff92eb827acfcca68ea9916103e4856040519384933397859094939260609260808301968352602083015260ff60f81b1660408201520152565b6143c48280926156e1565b6104045780614363565b816143d8916156e1565b61041257815f61430a565b6040516382027b6d60e01b8152600481018490523360248201526020816044815f516020615cf45f395f51905f525afa90811561042b57839161445f575b50156104ee57614430836159cd565b614439856159cd565b60548210156104da5760548110156104da571461423f57631f3158c760e01b8252600482fd5b614478915060203d60201161052d5761051f81836156e1565b5f614421565b614497915060203d60201161052d5761051f81836156e1565b5f614227565b503461040457604036600319011261040457602435906004356054831015610412576040516382027b6d60e01b8152600481018290523360248201526020816044815f516020615cf45f395f51905f525afa90811561042b5783916146ca575b50156146b3576145196105e16101f56101eb6101e6600d6157bc565b6145296101f56101eb601c6157ca565b600160ff86161b1615610fd5576054811015611d865783146146a4575f19430143811161044a57836145889160405160208101916704648455f636f6d760c41b8352601760f81b6028830152856029830152611c28604983018561587c565b915f516020615cd45f395f51905f523b15610404576040516369931afb60e01b81528181806145bd3388888b6004860161588c565b0381835f516020615cd45f395f51905f525af180156104075790829161468f575b50505f516020615cf45f395f51905f523b1561040457604051630f8e573b60e21b8152600481018490523360248201528181604481835f516020615cf45f395f51905f525af180156104075761467a575b505061464660209360405192835284830190615803565b8160408201527f31ccae6a2f8e3ced1692f77c8f668133e4afdaaa35afe844ff4659a6c27e627f60603392a2604051908152f35b6146858280926156e1565b610404578061462f565b81614699916156e1565b61040457805f6145de565b63b968846160e01b8252600482fd5b632778ce4b60e21b82526004523360245260449150fd5b6146e3915060203d60201161052d5761051f81836156e1565b5f6144fd565b5034610404576146f8366156b6565b92919061470b6101fa6101eb601c6157ca565b9260018560f81c1161056b576040516382027b6d60e01b8152600481018490523360248201526020816044815f516020615cf45f395f51905f525afa9081156104075782916149ac575b5015610534576001600160f81b031985168015614911575b5f1943019043821161044a576040516704648455f636f6d760c41b60208201908152906147e5938893600160f81b602884015288602984015287604984015260698301525f516020615d145f395f51905f52606a83015246607e83015240609e8201524260be82015260be81526102da60de826156e1565b935f516020615cf45f395f51905f523b1561041257604051630f8e573b60e21b8152600481018690523360248201528281604481835f516020615cf45f395f51905f525af1801561042b579083916148fc575b50505f516020615cd45f395f51905f523b156104125781614873916040518093819263d633c96b60e01b835289888a8d339460048801615810565b0381835f516020615cd45f395f51905f525af18015610407576148e7575b50506020937feb6d37bd271abe1395b21d6d78f3487d6584862872c29ffd3f90736ee99b7393916103e4856040519384933397859094939260609260808301968352602083015260ff60f81b1660408201520152565b6148f28280926156e1565b6104045780614891565b81614906916156e1565b61041257815f614838565b6040516382027b6d60e01b8152600481018490523360248201526020816044815f516020615cf45f395f51905f525afa90811561042b57839161498d575b50156104ee5761495e836159cd565b614967856159cd565b60548210156104da5760548110156104da571461476d57631f3158c760e01b8252600482fd5b6149a6915060203d60201161052d5761051f81836156e1565b5f61494f565b6149c5915060203d60201161052d5761051f81836156e1565b5f614755565b5034610404576149da366156b6565b9291906149ed6101fa6101eb601c6157ca565b9260018560f81c1161056b576040516382027b6d60e01b8152600481018490523360248201526020816044815f516020615cf45f395f51905f525afa908115610407578291614c8e575b5015610534576001600160f81b031985168015614bf3575b5f1943019043821161044a576040516704648455f636f6d760c41b6020820190815290614ac7938593600e60f81b602884015288602984015287604984015260698301525f516020615d145f395f51905f52606a83015246607e83015240609e8201524260be82015260be81526102da60de826156e1565b935f516020615cf45f395f51905f523b1561041257604051630f8e573b60e21b8152600481018690523360248201528281604481835f516020615cf45f395f51905f525af1801561042b57908391614bde575b50505f516020615cd45f395f51905f523b156104125781614b55916040518093819263613bd49b60e11b835289888a8d339460048801615810565b0381835f516020615cd45f395f51905f525af1801561040757614bc9575b50506020937f38c3a63c4230de5b741f494ffb54e3087104030279bc7bccee8ad9ad31712b21916103e4856040519384933397859094939260609260808301968352602083015260ff60f81b1660408201520152565b614bd48280926156e1565b6104045780614b73565b81614be8916156e1565b61041257815f614b1a565b6040516382027b6d60e01b8152600481018490523360248201526020816044815f516020615cf45f395f51905f525afa90811561042b578391614c6f575b50156104ee57614c40836159cd565b614c49856159cd565b60548210156104da5760548110156104da5714614a4f57631f3158c760e01b8252600482fd5b614c88915060203d60201161052d5761051f81836156e1565b5f614c31565b614ca7915060203d60201161052d5761051f81836156e1565b5f614a37565b503461040457614cbc366156b6565b929190614ccf6101fa6101eb601c6157ca565b9260018560f81c1161056b576040516382027b6d60e01b8152600481018490523360248201526020816044815f516020615cf45f395f51905f525afa908115610407578291614f72575b5015610534576001600160f81b031985168015614ed7575b5f19430143811161044a57614dab9186916040519060208201926704648455f636f6d760c41b8452614d66602884018861586c565b88602984015287604984015260698301525f516020615d145f395f51905f52606a83015246607e83015240609e8201524260be82015260be81526102da60de826156e1565b935f516020615cf45f395f51905f523b1561041257604051630f8e573b60e21b8152600481018690523360248201528281604481835f516020615cf45f395f51905f525af1801561042b57908391614ec2575b50505f516020615cd45f395f51905f523b156104125781614e39916040518093819263304e430d60e21b835289888a8d339460048801615810565b0381835f516020615cd45f395f51905f525af1801561040757614ead575b50506020937fdb9050d65240431621d61d6f94b970e63f53a67a5766614ee6e5c5bbd41c8e2e916103e4856040519384933397859094939260609260808301968352602083015260ff60f81b1660408201520152565b614eb88280926156e1565b6104045780614e57565b81614ecc916156e1565b61041257815f614dfe565b6040516382027b6d60e01b8152600481018490523360248201526020816044815f516020615cf45f395f51905f525afa90811561042b578391614f53575b50156104ee57614f24836159cd565b614f2d856159cd565b60548210156104da5760548110156104da5714614d3157631f3158c760e01b8252600482fd5b614f6c915060203d60201161052d5761051f81836156e1565b5f614f15565b614f8b915060203d60201161052d5761051f81836156e1565b5f614d19565b503461040457806003193601126104045760408051614fb082826156e1565b600d815260208101927f464845564d4578656375746f72000000000000000000000000000000000000008452614fe46159dc565b8160038082615177575b80662386f26fc10000600a921015615163575b6305f5e100811015615152575b612710811015615143575b6064811015615135575b101561512b575b6001820190600a602161505461503f85615717565b9461504c8b5196876156e1565b808652615717565b602085019590601f19013687378401015b5f1901916f181899199a1a9b1b9c1cb0b131b232b360811b8282061a835304801561509357600a9091615065565b505061509d6159dc565b928651978896518091602089015e86016020810161103b60f11b905281516020819301602283015e016020019060028201601760f91b9052518092600383015e0160020160018101601760f91b905281516020819301600283015e0160010190600182015203600101601f198101835261511790836156e1565b5180916020825260208201611b7591615779565b906001019061502a565b606460029104930192615023565b61271060049104930192615019565b6305f5e1006008910493019261500e565b662386f26fc1000060109104930192615001565b506020915083614fee565b503461040457608036600319011261040457600435906024356001600160a01b0381168091036104125760443567ffffffffffffffff81116107a3576151cc903690600401615733565b6064359160548310156107c757604051936040850185811067ffffffffffffffff821117615393576040528185526020850133815261520a876159cd565b6054811015611d865785036146a4576001600160a01b0390816040519763e6317df560e01b89525116600488015251166024860152856044860152608060648601526020858061525d6084820187615779565b0381847336772142b74871f255cbd7a3e89b401d3e45825f5af1948515615386578195615352575b505f516020615cf45f395f51905f523b1561040457604051630f8e573b60e21b8152600481018690523360248201528181604481835f516020615cf45f395f51905f525af180156104075761533d575b50509361532961531e7fdc370db33589e73371dc3ee42c789c003d336eefcb7c3f56fe0f51ae5b1d9702936020976040519485528885015260a0604085015260a0840190615779565b936060830190615803565b8360808201528033930390a2604051908152f35b6153488280926156e1565b61040457806152d5565b9094506020813d60201161537e575b8161536e602093836156e1565b81010312613eb95751935f615285565b3d9150615361565b50604051903d90823e3d90fd5b634e487b7160e01b82526041600452602482fd5b5034613eb9576153b6366156b6565b9291906153c96101fa6101eb601c6157ca565b9260018560f81c116156a7576040516382027b6d60e01b8152600481018490523360248201526020816044815f516020615cf45f395f51905f525afa9081156155cb575f91615688575b5015615652576001600160f81b0319851680156155d6575b5f1943019043821161057a576040516704648455f636f6d760c41b60208201908152906154a3938893601260f81b602884015288602984015287604984015260698301525f516020615d145f395f51905f52606a83015246607e83015240609e8201524260be82015260be81526102da60de826156e1565b935f516020615cf45f395f51905f523b15613eb957604051630f8e573b60e21b8152600481018690523360248201525f81604481835f516020615cf45f395f51905f525af180156155cb576155b6575b505f516020615cd45f395f51905f523b15610412578161552d916040518093819263022a9fdb60e11b835289888a8d339460048801615810565b0381835f516020615cd45f395f51905f525af18015610407576155a1575b50506020937fc11d62b13c360a83082487064be1ec0878b2f0be4f012bf59f89e128063d47ff916103e4856040519384933397859094939260609260808301968352602083015260ff60f81b1660408201520152565b6155ac8280926156e1565b610404578061554b565b6155c39192505f906156e1565b5f905f6154f3565b6040513d5f823e3d90fd5b6040516382027b6d60e01b8152600481018490523360248201526020816044815f516020615cf45f395f51905f525afa9081156155cb575f91615669575b501561565257615623836159cd565b61562c856159cd565b6054821015610436576054811015610436571461542b57631f3158c760e01b5f5260045ffd5b82632778ce4b60e21b5f526004523360245260445ffd5b615682915060203d60201161052d5761051f81836156e1565b5f615614565b6156a1915060203d60201161052d5761051f81836156e1565b5f615413565b63df7bf32560e01b5f5260045ffd5b6060906003190112613eb95760043590602435906044356001600160f81b031981168103613eb95790565b90601f8019910116810190811067ffffffffffffffff82111761570357604052565b634e487b7160e01b5f52604160045260245ffd5b67ffffffffffffffff811161570357601f01601f191660200190565b81601f82011215613eb95780359061574a82615717565b9261575860405194856156e1565b82845260208383010111613eb957815f926020809301838601378301015290565b805180835260209291819084018484015e5f828201840152601f01601f1916010190565b6040906003190112613eb957600435906024356054811015613eb95790565b906010820180921161057a57565b906020820180921161057a57565b906040820180921161057a57565b90610100820180921161057a57565b906080820180921161057a57565b9060548210156104365752565b9490969591936001600160a01b039360a0956158308860c081019b615803565b6001600160f81b031916602088015260408701526060860152608085015216910152565b90816020910312613eb957518015158103613eb95790565b601c8110156104365760f81b9052565b60548110156104365760f81b9052565b92936001600160a01b039195946060936158aa866080810199615803565b6020860152604085015216910152565b7ff0c57e16840df040f15088dc2f81fe391c3923bec73e23a9662efc9c229c6a005460ff8160401c16801561595c575b61594d5760049068ffffffffffffffffff1916177ff0c57e16840df040f15088dc2f81fe391c3923bec73e23a9662efc9c229c6a00557fc7f505b2f371ae2175ee4913f4499e1f2633a7b5936321eed1cdaeb6115181d2602060405160048152a1565b63f92ee8a960e01b5f5260045ffd5b50600467ffffffffffffffff821610156158ea565b9160409194936001600160a01b039161598e856060810198615803565b602085015216910152565b6159a5909291926159cd565b91605483101561043657600160ff84161b16156159be57565b63636f233560e11b5f5260045ffd5b601e1a60548110156104365790565b5f6159e76001615717565b906159f560405192836156e1565b60018252601f19615a066001615717565b01366020840137600a602183015b5f1901916f181899199a1a9b1b9c1cb0b131b232b360811b8282061a8353048015615a4257600a9091615a14565b505090565b6054821015610436576affffffffffffffffffffff19164660101b69ffffffffffffffff0000161760089190911b61ff0016176aff000000000000000000001790565b7f4613e1771f6b755d243e536fb5a23c5b15e2826575fee921e8fe7a22a760c80054905f19430143811161057a576040519060208201907f4648455f7365656400000000000000000000000000000000000000000000000082528460288401525f516020615d145f395f51905f52604884015246605c84015240607c83015242609c830152609c8252615b1e60bc836156e1565b905190206fffffffffffffffffffffffffffffffff1916915f19811461057a576001017f4613e1771f6b755d243e536fb5a23c5b15e2826575fee921e8fe7a22a760c80055565b9060548110156104365760028114615bde5760038114615bd55760048114615bca5760058114615bbb57600614615ba55763636f233560e11b5f5260045ffd5b6fffffffffffffffffffffffffffffffff161590565b5067ffffffffffffffff161590565b5063ffffffff161590565b5061ffff161590565b5060ff161590565b9060548110156104365760028114615c6e5760038114615c625760048114615c545760058114615c4257600614615c1a5750565b70010000000000000000000000000000000010615c3357565b63c7dadf4560e01b5f5260045ffd5b506801000000000000000010615c3357565b5064010000000010615c3357565b506201000010615c3357565b5061010010615c3357565b90615c9d5750805115615c8e57805190602001fd5b63d6bda27560e01b5f5260045ffd5b81511580615cca575b615cae575090565b6001600160a01b0390639996b31560e01b5f521660045260245ffd5b50803b15615ca656fe0000000000000000000000005f3f1dbd7b74c6b46e8c44f98792a1daf8d6915400000000000000000000000050157cffd6bbfa2dece204a89ec419c23ef5755d50157cffd6bbfa2dece204a89ec419c23ef5755d000000000000000000000000a2646970667358221220234086a42682ace5d45b322a7d28f12cc071a7f4ae981e4ee2da6d87f89d671c64736f6c634300081b0033f0c57e16840df040f15088dc2f81fe391c3923bec73e23a9662efc9c229c6a00","linkReferences":{}},"methodIdentifiers":{"UPGRADE_INTERFACE_VERSION()":"ad3cb1cc","cast(bytes32,uint8)":"1c89ee44","fheAdd(bytes32,bytes32,bytes1)":"117b2f38","fheBitAnd(bytes32,bytes32,bytes1)":"d99882d5","fheBitOr(bytes32,bytes32,bytes1)":"63a2db29","fheBitXor(bytes32,bytes32,bytes1)":"8b49ceb4","fheDiv(bytes32,bytes32,bytes1)":"5a53accb","fheEq(bytes32,bytes32,bytes1)":"f77f3f1d","fheGe(bytes32,bytes32,bytes1)":"1391547f","fheGt(bytes32,bytes32,bytes1)":"85362ee7","fheIfThenElse(bytes32,bytes32,bytes32)":"7702dcff","fheLe(bytes32,bytes32,bytes1)":"7513a404","fheLt(bytes32,bytes32,bytes1)":"72107681","fheMax(bytes32,bytes32,bytes1)":"36318d64","fheMin(bytes32,bytes32,bytes1)":"04559f71","fheMul(bytes32,bytes32,bytes1)":"57f0a568","fheNe(bytes32,bytes32,bytes1)":"d8092cbc","fheNeg(bytes32)":"d580c063","fheNot(bytes32)":"f51ccfb0","fheRand(uint8)":"d75d6e8a","fheRandBounded(uint256,uint8)":"48eef47e","fheRem(bytes32,bytes32,bytes1)":"cf4d18aa","fheRotl(bytes32,bytes32,bytes1)":"6754b360","fheRotr(bytes32,bytes32,bytes1)":"c021329e","fheShl(bytes32,bytes32,bytes1)":"ccc480a1","fheShr(bytes32,bytes32,bytes1)":"91f98ffe","fheSub(bytes32,bytes32,bytes1)":"182b6d98","getACLAddress()":"f6859bdc","getHCULimitAddress()":"e0786972","getHandleVersion()":"7a297f4b","getInputVerifierAddress()":"a8c7c2c1","getVersion()":"0d8e6e2c","initializeFromEmptyProxy()":"39f73810","proxiableUUID()":"52d1902d","reinitializeV3()":"bac22bb8","trivialEncrypt(uint256,uint8)":"9cd07acb","upgradeToAndCall(address,bytes)":"4f1ef286","verifyInput(bytes32,address,bytes,uint8)":"08bf832a"},"id":56}