{"abi":[{"type":"constructor","inputs":[],"stateMutability":"nonpayable"},{"type":"function","name":"UPGRADE_INTERFACE_VERSION","inputs":[],"outputs":[{"name":"","type":"string","internalType":"string"}],"stateMutability":"view"},{"type":"function","name":"addToBlockHCUWhitelist","inputs":[{"name":"account","type":"address","internalType":"address"}],"outputs":[],"stateMutability":"nonpayable"},{"type":"function","name":"checkHCUForCast","inputs":[{"name":"resultType","type":"uint8","internalType":"enum FheType"},{"name":"ct","type":"bytes32","internalType":"bytes32"},{"name":"result","type":"bytes32","internalType":"bytes32"},{"name":"caller","type":"address","internalType":"address"}],"outputs":[],"stateMutability":"nonpayable"},{"type":"function","name":"checkHCUForFheAdd","inputs":[{"name":"resultType","type":"uint8","internalType":"enum FheType"},{"name":"scalarByte","type":"bytes1","internalType":"bytes1"},{"name":"lhs","type":"bytes32","internalType":"bytes32"},{"name":"rhs","type":"bytes32","internalType":"bytes32"},{"name":"result","type":"bytes32","internalType":"bytes32"},{"name":"caller","type":"address","internalType":"address"}],"outputs":[],"stateMutability":"nonpayable"},{"type":"function","name":"checkHCUForFheBitAnd","inputs":[{"name":"resultType","type":"uint8","internalType":"enum FheType"},{"name":"scalarByte","type":"bytes1","internalType":"bytes1"},{"name":"lhs","type":"bytes32","internalType":"bytes32"},{"name":"rhs","type":"bytes32","internalType":"bytes32"},{"name":"result","type":"bytes32","internalType":"bytes32"},{"name":"caller","type":"address","internalType":"address"}],"outputs":[],"stateMutability":"nonpayable"},{"type":"function","name":"checkHCUForFheBitOr","inputs":[{"name":"resultType","type":"uint8","internalType":"enum FheType"},{"name":"scalarByte","type":"bytes1","internalType":"bytes1"},{"name":"lhs","type":"bytes32","internalType":"bytes32"},{"name":"rhs","type":"bytes32","internalType":"bytes32"},{"name":"result","type":"bytes32","internalType":"bytes32"},{"name":"caller","type":"address","internalType":"address"}],"outputs":[],"stateMutability":"nonpayable"},{"type":"function","name":"checkHCUForFheBitXor","inputs":[{"name":"resultType","type":"uint8","internalType":"enum FheType"},{"name":"scalarByte","type":"bytes1","internalType":"bytes1"},{"name":"lhs","type":"bytes32","internalType":"bytes32"},{"name":"rhs","type":"bytes32","internalType":"bytes32"},{"name":"result","type":"bytes32","internalType":"bytes32"},{"name":"caller","type":"address","internalType":"address"}],"outputs":[],"stateMutability":"nonpayable"},{"type":"function","name":"checkHCUForFheDiv","inputs":[{"name":"resultType","type":"uint8","internalType":"enum FheType"},{"name":"scalarByte","type":"bytes1","internalType":"bytes1"},{"name":"lhs","type":"bytes32","internalType":"bytes32"},{"name":"","type":"bytes32","internalType":"bytes32"},{"name":"result","type":"bytes32","internalType":"bytes32"},{"name":"caller","type":"address","internalType":"address"}],"outputs":[],"stateMutability":"nonpayable"},{"type":"function","name":"checkHCUForFheEq","inputs":[{"name":"resultType","type":"uint8","internalType":"enum FheType"},{"name":"scalarByte","type":"bytes1","internalType":"bytes1"},{"name":"lhs","type":"bytes32","internalType":"bytes32"},{"name":"rhs","type":"bytes32","internalType":"bytes32"},{"name":"result","type":"bytes32","internalType":"bytes32"},{"name":"caller","type":"address","internalType":"address"}],"outputs":[],"stateMutability":"nonpayable"},{"type":"function","name":"checkHCUForFheGe","inputs":[{"name":"resultType","type":"uint8","internalType":"enum FheType"},{"name":"scalarByte","type":"bytes1","internalType":"bytes1"},{"name":"lhs","type":"bytes32","internalType":"bytes32"},{"name":"rhs","type":"bytes32","internalType":"bytes32"},{"name":"result","type":"bytes32","internalType":"bytes32"},{"name":"caller","type":"address","internalType":"address"}],"outputs":[],"stateMutability":"nonpayable"},{"type":"function","name":"checkHCUForFheGt","inputs":[{"name":"resultType","type":"uint8","internalType":"enum FheType"},{"name":"scalarByte","type":"bytes1","internalType":"bytes1"},{"name":"lhs","type":"bytes32","internalType":"bytes32"},{"name":"rhs","type":"bytes32","internalType":"bytes32"},{"name":"result","type":"bytes32","internalType":"bytes32"},{"name":"caller","type":"address","internalType":"address"}],"outputs":[],"stateMutability":"nonpayable"},{"type":"function","name":"checkHCUForFheLe","inputs":[{"name":"resultType","type":"uint8","internalType":"enum FheType"},{"name":"scalarByte","type":"bytes1","internalType":"bytes1"},{"name":"lhs","type":"bytes32","internalType":"bytes32"},{"name":"rhs","type":"bytes32","internalType":"bytes32"},{"name":"result","type":"bytes32","internalType":"bytes32"},{"name":"caller","type":"address","internalType":"address"}],"outputs":[],"stateMutability":"nonpayable"},{"type":"function","name":"checkHCUForFheLt","inputs":[{"name":"resultType","type":"uint8","internalType":"enum FheType"},{"name":"scalarByte","type":"bytes1","internalType":"bytes1"},{"name":"lhs","type":"bytes32","internalType":"bytes32"},{"name":"rhs","type":"bytes32","internalType":"bytes32"},{"name":"result","type":"bytes32","internalType":"bytes32"},{"name":"caller","type":"address","internalType":"address"}],"outputs":[],"stateMutability":"nonpayable"},{"type":"function","name":"checkHCUForFheMax","inputs":[{"name":"resultType","type":"uint8","internalType":"enum FheType"},{"name":"scalarByte","type":"bytes1","internalType":"bytes1"},{"name":"lhs","type":"bytes32","internalType":"bytes32"},{"name":"rhs","type":"bytes32","internalType":"bytes32"},{"name":"result","type":"bytes32","internalType":"bytes32"},{"name":"caller","type":"address","internalType":"address"}],"outputs":[],"stateMutability":"nonpayable"},{"type":"function","name":"checkHCUForFheMin","inputs":[{"name":"resultType","type":"uint8","internalType":"enum FheType"},{"name":"scalarByte","type":"bytes1","internalType":"bytes1"},{"name":"lhs","type":"bytes32","internalType":"bytes32"},{"name":"rhs","type":"bytes32","internalType":"bytes32"},{"name":"result","type":"bytes32","internalType":"bytes32"},{"name":"caller","type":"address","internalType":"address"}],"outputs":[],"stateMutability":"nonpayable"},{"type":"function","name":"checkHCUForFheMul","inputs":[{"name":"resultType","type":"uint8","internalType":"enum FheType"},{"name":"scalarByte","type":"bytes1","internalType":"bytes1"},{"name":"lhs","type":"bytes32","internalType":"bytes32"},{"name":"rhs","type":"bytes32","internalType":"bytes32"},{"name":"result","type":"bytes32","internalType":"bytes32"},{"name":"caller","type":"address","internalType":"address"}],"outputs":[],"stateMutability":"nonpayable"},{"type":"function","name":"checkHCUForFheNe","inputs":[{"name":"resultType","type":"uint8","internalType":"enum FheType"},{"name":"scalarByte","type":"bytes1","internalType":"bytes1"},{"name":"lhs","type":"bytes32","internalType":"bytes32"},{"name":"rhs","type":"bytes32","internalType":"bytes32"},{"name":"result","type":"bytes32","internalType":"bytes32"},{"name":"caller","type":"address","internalType":"address"}],"outputs":[],"stateMutability":"nonpayable"},{"type":"function","name":"checkHCUForFheNeg","inputs":[{"name":"resultType","type":"uint8","internalType":"enum FheType"},{"name":"ct","type":"bytes32","internalType":"bytes32"},{"name":"result","type":"bytes32","internalType":"bytes32"},{"name":"caller","type":"address","internalType":"address"}],"outputs":[],"stateMutability":"nonpayable"},{"type":"function","name":"checkHCUForFheNot","inputs":[{"name":"resultType","type":"uint8","internalType":"enum FheType"},{"name":"ct","type":"bytes32","internalType":"bytes32"},{"name":"result","type":"bytes32","internalType":"bytes32"},{"name":"caller","type":"address","internalType":"address"}],"outputs":[],"stateMutability":"nonpayable"},{"type":"function","name":"checkHCUForFheRand","inputs":[{"name":"resultType","type":"uint8","internalType":"enum FheType"},{"name":"result","type":"bytes32","internalType":"bytes32"},{"name":"caller","type":"address","internalType":"address"}],"outputs":[],"stateMutability":"nonpayable"},{"type":"function","name":"checkHCUForFheRandBounded","inputs":[{"name":"resultType","type":"uint8","internalType":"enum FheType"},{"name":"result","type":"bytes32","internalType":"bytes32"},{"name":"caller","type":"address","internalType":"address"}],"outputs":[],"stateMutability":"nonpayable"},{"type":"function","name":"checkHCUForFheRem","inputs":[{"name":"resultType","type":"uint8","internalType":"enum FheType"},{"name":"scalarByte","type":"bytes1","internalType":"bytes1"},{"name":"lhs","type":"bytes32","internalType":"bytes32"},{"name":"","type":"bytes32","internalType":"bytes32"},{"name":"result","type":"bytes32","internalType":"bytes32"},{"name":"caller","type":"address","internalType":"address"}],"outputs":[],"stateMutability":"nonpayable"},{"type":"function","name":"checkHCUForFheRotl","inputs":[{"name":"resultType","type":"uint8","internalType":"enum FheType"},{"name":"scalarByte","type":"bytes1","internalType":"bytes1"},{"name":"lhs","type":"bytes32","internalType":"bytes32"},{"name":"rhs","type":"bytes32","internalType":"bytes32"},{"name":"result","type":"bytes32","internalType":"bytes32"},{"name":"caller","type":"address","internalType":"address"}],"outputs":[],"stateMutability":"nonpayable"},{"type":"function","name":"checkHCUForFheRotr","inputs":[{"name":"resultType","type":"uint8","internalType":"enum FheType"},{"name":"scalarByte","type":"bytes1","internalType":"bytes1"},{"name":"lhs","type":"bytes32","internalType":"bytes32"},{"name":"rhs","type":"bytes32","internalType":"bytes32"},{"name":"result","type":"bytes32","internalType":"bytes32"},{"name":"caller","type":"address","internalType":"address"}],"outputs":[],"stateMutability":"nonpayable"},{"type":"function","name":"checkHCUForFheShl","inputs":[{"name":"resultType","type":"uint8","internalType":"enum FheType"},{"name":"scalarByte","type":"bytes1","internalType":"bytes1"},{"name":"lhs","type":"bytes32","internalType":"bytes32"},{"name":"rhs","type":"bytes32","internalType":"bytes32"},{"name":"result","type":"bytes32","internalType":"bytes32"},{"name":"caller","type":"address","internalType":"address"}],"outputs":[],"stateMutability":"nonpayable"},{"type":"function","name":"checkHCUForFheShr","inputs":[{"name":"resultType","type":"uint8","internalType":"enum FheType"},{"name":"scalarByte","type":"bytes1","internalType":"bytes1"},{"name":"lhs","type":"bytes32","internalType":"bytes32"},{"name":"rhs","type":"bytes32","internalType":"bytes32"},{"name":"result","type":"bytes32","internalType":"bytes32"},{"name":"caller","type":"address","internalType":"address"}],"outputs":[],"stateMutability":"nonpayable"},{"type":"function","name":"checkHCUForFheSub","inputs":[{"name":"resultType","type":"uint8","internalType":"enum FheType"},{"name":"scalarByte","type":"bytes1","internalType":"bytes1"},{"name":"lhs","type":"bytes32","internalType":"bytes32"},{"name":"rhs","type":"bytes32","internalType":"bytes32"},{"name":"result","type":"bytes32","internalType":"bytes32"},{"name":"caller","type":"address","internalType":"address"}],"outputs":[],"stateMutability":"nonpayable"},{"type":"function","name":"checkHCUForIfThenElse","inputs":[{"name":"resultType","type":"uint8","internalType":"enum FheType"},{"name":"lhs","type":"bytes32","internalType":"bytes32"},{"name":"middle","type":"bytes32","internalType":"bytes32"},{"name":"rhs","type":"bytes32","internalType":"bytes32"},{"name":"result","type":"bytes32","internalType":"bytes32"},{"name":"caller","type":"address","internalType":"address"}],"outputs":[],"stateMutability":"nonpayable"},{"type":"function","name":"checkHCUForTrivialEncrypt","inputs":[{"name":"resultType","type":"uint8","internalType":"enum FheType"},{"name":"result","type":"bytes32","internalType":"bytes32"},{"name":"caller","type":"address","internalType":"address"}],"outputs":[],"stateMutability":"nonpayable"},{"type":"function","name":"getBlockMeter","inputs":[],"outputs":[{"name":"blockNumber","type":"uint48","internalType":"uint48"},{"name":"usedHCU","type":"uint48","internalType":"uint48"}],"stateMutability":"view"},{"type":"function","name":"getFHEVMExecutorAddress","inputs":[],"outputs":[{"name":"","type":"address","internalType":"address"}],"stateMutability":"view"},{"type":"function","name":"getGlobalHCUCapPerBlock","inputs":[],"outputs":[{"name":"","type":"uint48","internalType":"uint48"}],"stateMutability":"view"},{"type":"function","name":"getMaxHCUDepthPerTx","inputs":[],"outputs":[{"name":"","type":"uint48","internalType":"uint48"}],"stateMutability":"view"},{"type":"function","name":"getMaxHCUPerTx","inputs":[],"outputs":[{"name":"","type":"uint48","internalType":"uint48"}],"stateMutability":"view"},{"type":"function","name":"getVersion","inputs":[],"outputs":[{"name":"","type":"string","internalType":"string"}],"stateMutability":"pure"},{"type":"function","name":"initializeFromEmptyProxy","inputs":[{"name":"hcuCapPerBlock","type":"uint48","internalType":"uint48"},{"name":"maxHCUDepthPerTx","type":"uint48","internalType":"uint48"},{"name":"maxHCUPerTx","type":"uint48","internalType":"uint48"}],"outputs":[],"stateMutability":"nonpayable"},{"type":"function","name":"isBlockHCUWhitelisted","inputs":[{"name":"account","type":"address","internalType":"address"}],"outputs":[{"name":"","type":"bool","internalType":"bool"}],"stateMutability":"view"},{"type":"function","name":"proxiableUUID","inputs":[],"outputs":[{"name":"","type":"bytes32","internalType":"bytes32"}],"stateMutability":"view"},{"type":"function","name":"reinitializeV2","inputs":[{"name":"hcuCapPerBlock","type":"uint48","internalType":"uint48"},{"name":"maxHCUDepthPerTx","type":"uint48","internalType":"uint48"},{"name":"maxHCUPerTx","type":"uint48","internalType":"uint48"}],"outputs":[],"stateMutability":"nonpayable"},{"type":"function","name":"removeFromBlockHCUWhitelist","inputs":[{"name":"account","type":"address","internalType":"address"}],"outputs":[],"stateMutability":"nonpayable"},{"type":"function","name":"setHCUPerBlock","inputs":[{"name":"hcuPerBlock","type":"uint48","internalType":"uint48"}],"outputs":[],"stateMutability":"nonpayable"},{"type":"function","name":"setMaxHCUDepthPerTx","inputs":[{"name":"maxHCUDepthPerTx","type":"uint48","internalType":"uint48"}],"outputs":[],"stateMutability":"nonpayable"},{"type":"function","name":"setMaxHCUPerTx","inputs":[{"name":"maxHCUPerTx","type":"uint48","internalType":"uint48"}],"outputs":[],"stateMutability":"nonpayable"},{"type":"function","name":"upgradeToAndCall","inputs":[{"name":"newImplementation","type":"address","internalType":"address"},{"name":"data","type":"bytes","internalType":"bytes"}],"outputs":[],"stateMutability":"payable"},{"type":"event","name":"BlockHCUWhitelistAdded","inputs":[{"name":"account","type":"address","indexed":true,"internalType":"address"}],"anonymous":false},{"type":"event","name":"BlockHCUWhitelistRemoved","inputs":[{"name":"account","type":"address","indexed":true,"internalType":"address"}],"anonymous":false},{"type":"event","name":"HCUPerBlockSet","inputs":[{"name":"hcuPerBlock","type":"uint48","indexed":false,"internalType":"uint48"}],"anonymous":false},{"type":"event","name":"Initialized","inputs":[{"name":"version","type":"uint64","indexed":false,"internalType":"uint64"}],"anonymous":false},{"type":"event","name":"MaxHCUDepthPerTxSet","inputs":[{"name":"maxHCUDepthPerTx","type":"uint48","indexed":false,"internalType":"uint48"}],"anonymous":false},{"type":"event","name":"MaxHCUPerTxSet","inputs":[{"name":"maxHCUPerTx","type":"uint48","indexed":false,"internalType":"uint48"}],"anonymous":false},{"type":"event","name":"Upgraded","inputs":[{"name":"implementation","type":"address","indexed":true,"internalType":"address"}],"anonymous":false},{"type":"error","name":"AddressEmptyCode","inputs":[{"name":"target","type":"address","internalType":"address"}]},{"type":"error","name":"AlreadyBlockHCUWhitelisted","inputs":[{"name":"account","type":"address","internalType":"address"}]},{"type":"error","name":"CallerMustBeFHEVMExecutorContract","inputs":[]},{"type":"error","name":"ERC1967InvalidImplementation","inputs":[{"name":"implementation","type":"address","internalType":"address"}]},{"type":"error","name":"ERC1967NonPayable","inputs":[]},{"type":"error","name":"FailedCall","inputs":[]},{"type":"error","name":"HCUBlockLimitExceeded","inputs":[]},{"type":"error","name":"HCUPerBlockBelowMaxPerTx","inputs":[]},{"type":"error","name":"HCUTransactionDepthLimitExceeded","inputs":[]},{"type":"error","name":"HCUTransactionLimitExceeded","inputs":[]},{"type":"error","name":"InvalidInitialization","inputs":[]},{"type":"error","name":"MaxHCUPerTxBelowDepth","inputs":[]},{"type":"error","name":"NotBlockHCUWhitelisted","inputs":[{"name":"account","type":"address","internalType":"address"}]},{"type":"error","name":"NotHostOwner","inputs":[{"name":"sender","type":"address","internalType":"address"}]},{"type":"error","name":"NotInitializing","inputs":[]},{"type":"error","name":"NotInitializingFromEmptyProxy","inputs":[]},{"type":"error","name":"OnlyScalarOperationsAreSupported","inputs":[]},{"type":"error","name":"UUPSUnauthorizedCallContext","inputs":[]},{"type":"error","name":"UUPSUnsupportedProxiableUUID","inputs":[{"name":"slot","type":"bytes32","internalType":"bytes32"}]},{"type":"error","name":"UnsupportedOperation","inputs":[]}],"bytecode":{"object":"0x60a080604052346100c257306080525f5160206131dd5f395f51905f525460ff8160401c166100b3576002600160401b03196001600160401b03821601610060575b60405161311690816100c7823960805181818161196e0152611a490152f35b6001600160401b0319166001600160401b039081175f5160206131dd5f395f51905f525581527fc7f505b2f371ae2175ee4913f4499e1f2633a7b5936321eed1cdaeb6115181d290602090a15f80610041565b63f92ee8a960e01b5f5260045ffd5b5f80fdfe60806040526004361015610011575f80fd5b5f3560e01c806304553fb6146127df57806307ccdf61146126e45780630d8e6e2c1461259b578063196a456d146125265780631e24aa49146124f2578063268d6d31146124cb57806328677ca7146123835780632dcbc5d1146122cd5780632e3c39061461215a5780633311b1bc146120ae57806338bd17e514611fb25780633bb7d5a314611ea2578063458fb27714611d7e578063497c22c514611ccd5780634f1ef286146119cd57806352d1902d146119545780635c414b57146118cb5780635f76eb30146117f957806360e121891461165957806369931afb146115a35780636bad18b6146114035780636cf0bd25146113c15780636fd65e4d146112775780637748671a14611245578063818f4d691461111e5780638629f54514610fd1578063968302d714610eaa5780639b3f781a14610def5780639f4b993714610dbd5780639f9259bb14610ca4578063a036ea2e14610c1b578063ab39475514610b64578063ad3cb1cc14610b09578063b59547b814610ad8578063b78bef5914610a10578063c0c5df7c1461095e578063c1390c341461088d578063c13c197114610859578063c277a93614610735578063c8de4352146105ca578063d5b8b8f31461050b578063d633c96b146103e4578063ede8776e146103825763f7d198f8146101fd575f80fd5b3461037e5761020b3661291c565b949190935f5160206130a15f395f51905f52330361036f576001600160f81b031916600160f81b036102e2575060548110156102ce5760028103610258575061025692617d00612c7f565b005b6003810361026d575061025692617d00612c7f565b60048103610282575061025692617d00612c7f565b600581036102975750610256926184d0612c7f565b600681036102ac575061025692619088612c7f565b6008036102bf5761025692619858612c7f565b639ba6061b60e01b5f5260045ffd5b634e487b7160e01b5f52602160045260245ffd5b919060548110156102ce576002810361030357506102569362016760612c3b565b600381036103195750610256936201e848612c3b565b6004810361032f575061025693620278d0612c3b565b6005810361034557506102569362032c80612c3b565b6006810361035b57506102569362042680612c3b565b6008036102bf57610256936205c490612c3b565b6331a81a8160e01b5f5260045ffd5b5f80fd5b3461037e57602036600319011261037e57602060ff6103d86103a2612906565b6001600160a01b03165f527fc13af6c514bff8997f30c90003baa82bd02aad978179d1ce58d85c4319ad650160205260405f2090565b54166040519015158152f35b3461037e576103f23661291c565b949190935f5160206130a15f395f51905f52330361036f576001600160f81b031916600160f81b03610494575060548110156102ce576002810361043e57506102569262014820612c7f565b6003810361045457506102569262016b48612c7f565b6004810361046a57506102569262017318612c7f565b6005810361048057506102569262020788612c7f565b6006036102bf576102569262029fe0612c7f565b919060548110156102ce57600281036104b557506102569362016378612c3b565b600381036104cb57506102569362016b48612c3b565b600481036104e15750610256936201e848612c3b565b600581036104f7575061025693620278d0612c3b565b6006036102bf57610256936203f7a0612c3b565b3461037e5761051936612a5e565b915f5160206130a15f395f51905f52330361036f5760548110156102ce578061054e575061054b614a38925b83612ef8565b5d005b60028103610563575061054b6159d892610545565b60038103610578575061054b6159d892610545565b6004810361058d575061054b615dc092610545565b600581036105a2575061054b615dc092610545565b600681036105b7575061054b6161a892610545565b6008036102bf5761054b61753092610545565b3461037e576105d83661291c565b949190935f5160206130a15f395f51905f52330361036f576001600160f81b031916600160f81b0361069c575060548110156102ce57806106205750610256926155f0612c7f565b60028103610635575061025692617918612c7f565b6003810361064a575061025692617918612c7f565b6004810361065f575061025692617d00612c7f565b600581036106745750610256926184d0612c7f565b60068103610689575061025692619088612c7f565b6008036102bf5761025692619470612c7f565b919060548110156102ce57806106b95750610256936161a8612c3b565b600281036106ce575061025693617918612c3b565b600381036106e3575061025693617918612c3b565b600481036106f8575061025693617d00612c3b565b6005810361070d5750610256936184d0612c3b565b60068103610722575061025693619088612c3b565b6008036102bf5761025693619470612c3b565b3461037e576107433661291c565b949190935f5160206130a15f395f51905f52330361036f576001600160f81b031916600160f81b036107e3575060548110156102ce576002810361078e57506102569261cb20612c7f565b600381036107a357506102569261d6d8612c7f565b600481036107b957506102569262014820612c7f565b600581036107cf5750610256926201c520612c7f565b6006036102bf576102569262024608612c7f565b919060548110156102ce576002810361080357506102569361f618612c3b565b6003810361081957506102569362014820612c3b565b6004810361082f5750610256936201ccf0612c3b565b60058103610845575061025693620251c0612c3b565b6006036102bf576102569362033450612c3b565b3461037e575f36600319011261037e57602065ffffffffffff5f5160206130c15f395f51905f525460c01c16604051908152f35b3461037e5761089b3661291c565b949190935f5160206130a15f395f51905f52330361036f576001600160f81b031916600160f81b036108e7575060548110156102ce576002810361043e57506102569262014820612c7f565b919060548110156102ce5760028103610908575061025693620157c0612c3b565b6003810361091e57506102569362016b48612c3b565b600481036109345750610256936201e848612c3b565b6005810361094a575061025693620278d0612c3b565b6006036102bf57610256936203f3b8612c3b565b3461037e5761096c3661291c565b949190935f5160206130a15f395f51905f52330361036f576001600160f81b031916600160f81b036109de575060548110156102ce57806109b45750610256926155f0612c7f565b600281036109c9575061025692617530612c7f565b6003810361064a575061025692617530612c7f565b919060548110156102ce57806109fb575061025693615dc0612c3b565b600281036106ce575061025693617530612c3b565b3461037e57610a1e36612a5e565b915f5160206130a15f395f51905f52330361036f5760548110156102ce5780610a4e575061054b60209283612ef8565b60028103610a62575061054b602092610545565b60038103610a76575061054b602092610545565b60048103610a8a575061054b602092610545565b60058103610a9e575061054b602092610545565b60068103610ab2575061054b602092610545565b60078103610ac6575061054b602092610545565b6008036102bf5761054b602092610545565b3461037e575f36600319011261037e57602065ffffffffffff5f5160206130c15f395f51905f525416604051908152f35b3461037e575f36600319011261037e57610b60604051610b2a604082612a0c565b600581527f352e302e3000000000000000000000000000000000000000000000000000000060208201526040519182918261296c565b0390f35b3461037e57602036600319011261037e57610b7d612996565b604051638da5cb5b60e01b81526020816004817350157cffd6bbfa2dece204a89ec419c23ef5755d5afa8015610c10576001600160a01b03915f91610be1575b50163303610bce5761025690612d82565b63021bfda160e41b5f523360045260245ffd5b610c03915060203d602011610c09575b610bfb8183612a0c565b810190612bba565b83610bbd565b503d610bf1565b6040513d5f823e3d90fd5b3461037e57602036600319011261037e57610c34612996565b604051638da5cb5b60e01b81526020816004817350157cffd6bbfa2dece204a89ec419c23ef5755d5afa8015610c10576001600160a01b03915f91610c85575b50163303610bce5761025690612d00565b610c9e915060203d602011610c0957610bfb8183612a0c565b83610c74565b3461037e57610cb23661291c565b949190935f5160206130a15f395f51905f52330361036f576001600160f81b031916600160f81b03610d24575060548110156102ce5780610cfa5750610256926155f0612c7f565b60028103610d0f575061025692617918612c7f565b6003810361026d575061025692617918612c7f565b919060548110156102ce5780610d415750610256936155f0612c3b565b60028103610d56575061025693617918612c3b565b60038103610d6b575061025693617918612c3b565b60048103610d80575061025693617d00612c3b565b60058103610d955750610256936184d0612c3b565b60068103610daa575061025693619088612c3b565b6008036102bf5761025693619858612c3b565b3461037e575f36600319011261037e57604065ffffffffffff610dde612bd9565b835191831682529091166020820152f35b3461037e57610dfd3661291c565b949150925f5160206130a15f395f51905f52330361036f576001600160f81b031990811601610e9b5760548110156102ce5760028103610e4557506102569262033450612c7f565b60038103610e5b57506102569262049bb0612c7f565b60048103610e715750610256926206aef0612c7f565b60058103610e87575061025692620ae8f8612c7f565b6006036102bf57610256926212b128612c7f565b636aa9eb0560e01b5f5260045ffd5b3461037e57610eb83661291c565b949190935f5160206130a15f395f51905f52330361036f576001600160f81b031916600160f81b03610f5a575060548110156102ce5760028103610f0457506102569262015ba8612c7f565b60038103610f1a57506102569262015ba8612c7f565b60048103610f305750610256926201c908612c7f565b60058103610f4657506102569262024608612c7f565b6006036102bf57610256926202bf20612c7f565b919060548110156102ce5760028103610f7b5750610256936201d8a8612c3b565b60038103610f9157506102569362023668612c3b565b60048103610fa75750610256936202bf20612c3b565b60058103610fbd57506102569362035390612c3b565b6006036102bf576102569362046cd0612c3b565b3461037e57610fdf3661291c565b949190935f5160206130a15f395f51905f52330361036f576001600160f81b031916600160f81b03611091575060548110156102ce576002810361102a575061025692617918612c7f565b6003810361103f575061025692617918612c7f565b60048103611054575061025692617d00612c7f565b600581036110695750610256926184d0612c7f565b6006810361107e575061025692619088612c7f565b6008036102bf5761025692619c40612c7f565b919060548110156102ce57600281036110b257506102569362016b48612c3b565b600381036110c85750610256936201e848612c3b565b600481036110de57506102569362027100612c3b565b600581036110f457506102569362033068612c3b565b6006810361110a57506102569362045178612c3b565b6008036102bf57610256936205b8d8612c3b565b3461037e5761112c3661291c565b949190935f5160206130a15f395f51905f52330361036f576001600160f81b031916600160f81b036111ce575060548110156102ce57600281036111785750610256926201dc90612c7f565b6003810361118e5750610256926202f1e8612c7f565b600481036111a457506102569262040b28612c7f565b600581036111ba575061025692620591c8612c7f565b6006036102bf5761025692620a9ec0612c7f565b919060548110156102ce57600281036111ef575061025693620249f0612c3b565b6003810361120557506102569362036330612c3b565b6004810361121b57506102569362050140612c3b565b6005810361123157506102569362091820612c3b565b6006036102bf57610256936219b9f0612c3b565b3461037e57606036600319011261037e57610256611261612996565b6112696129ab565b6112716129c0565b91612a91565b3461037e57602036600319011261037e57611290612906565b604051638da5cb5b60e01b81526020816004817350157cffd6bbfa2dece204a89ec419c23ef5755d5afa8015610c10576001600160a01b03915f916113a2575b50163303610bce578060ff61131d6001600160a01b03936001600160a01b03165f527fc13af6c514bff8997f30c90003baa82bd02aad978179d1ce58d85c4319ad650160205260405f2090565b541661138f5761135d816001600160a01b03165f527fc13af6c514bff8997f30c90003baa82bd02aad978179d1ce58d85c4319ad650160205260405f2090565b805460ff19166001179055167fcca1d46384cdbbeef2f9daddb76db138101c9905f818d867b630195c128d3c665f80a2005b63f99c4fd160e01b5f521660045260245ffd5b6113bb915060203d602011610c0957610bfb8183612a0c565b836112d0565b3461037e576113cf36612a5e565b915f5160206130a15f395f51905f52330361036f5760548110156102ce5760028103610563575061054b6159d89283612ef8565b3461037e576114113661291c565b949190935f5160206130a15f395f51905f52330361036f576001600160f81b031916600160f81b036114ef575060548110156102ce57806114595750610256926159d8612c7f565b6002810361146e57506102569261d6d8612c7f565b6003810361148357506102569261d6d8612c7f565b6004810361149957506102569262014438612c7f565b600581036114af57506102569262014820612c7f565b600681036114c55750610256926201c908612c7f565b600781036114db5750610256926201c908612c7f565b6008036102bf57610256926201c908612c7f565b919060548110156102ce578061150c5750610256936159d8612c3b565b6002810361152157506102569361d6d8612c3b565b6003810361153757506102569362014438612c3b565b6004810361154d57506102569362014c08612c3b565b600581036115635750610256936201ccf0612c3b565b600681036115795750610256936201dc90612c3b565b6007810361158f57506102569362021340612c3b565b6008036102bf5761025693620249f0612c3b565b3461037e576115b1366129d5565b925f5160206130a15f395f51905f52929192330361036f5760548110156102ce57806115e35750610256926020612c7f565b600281036115f75750610256926020612c7f565b6003810361160b5750610256926020612c7f565b6004810361161f5750610256926020612c7f565b600581036116335750610256926020612c7f565b600681036116475750610256926020612c7f565b6008036102bf57610256926020612c7f565b3461037e576116673661291c565b949190935f5160206130a15f395f51905f52330361036f576001600160f81b031916600160f81b03611745575060548110156102ce57806116af5750610256926161a8612c7f565b600281036116c457506102569261d6d8612c7f565b600381036116d957506102569261d6d8612c7f565b600481036116ef57506102569262014050612c7f565b6005810361170557506102569262014438612c7f565b6006810361171b5750610256926201c908612c7f565b600781036117315750610256926201c908612c7f565b6008036102bf57610256926201ccf0612c7f565b919060548110156102ce5780611762575061025693616590612c3b565b6002810361177757506102569361d6d8612c3b565b6003810361178d57506102569362014438612c3b565b600481036117a357506102569362014ff0612c3b565b600581036117b95750610256936201d4c0612c3b565b600681036117cf5750610256936201dc90612c3b565b600781036117e557506102569362021728612c3b565b6008036102bf5761025693620251c0612c3b565b3461037e576118073661291c565b949190935f5160206130a15f395f51905f52330361036f576001600160f81b031916600160f81b03611852575060548110156102ce5760028103610635575061025692617918612c7f565b919060548110156102ce576002810361187357506102569362016378612c3b565b600381036118895750610256936201e848612c3b565b6004810361189f57506102569362027cb8612c3b565b600581036118b557506102569362033068612c3b565b6006810361035b57506102569362043df0612c3b565b3461037e57602036600319011261037e576118e4612996565b604051638da5cb5b60e01b81526020816004817350157cffd6bbfa2dece204a89ec419c23ef5755d5afa8015610c10576001600160a01b03915f91611935575b50163303610bce5761025690612e4f565b61194e915060203d602011610c0957610bfb8183612a0c565b83611924565b3461037e575f36600319011261037e576001600160a01b037f00000000000000000000000000000000000000000000000000000000000000001630036119be5760206040517f360894a13ba1a3210667c828492db98dca3e2076cc3735a920a3ca505d382bbc8152f35b63703e46dd60e11b5f5260045ffd5b604036600319011261037e576119e1612906565b6024359067ffffffffffffffff821161037e573660238301121561037e57816004013590611a0e82612a42565b91611a1c6040519384612a0c565b8083526020830193366024838301011161037e57815f926024602093018737840101526001600160a01b037f000000000000000000000000000000000000000000000000000000000000000016803014908115611c98575b506119be57604051638da5cb5b60e01b81526020816004817350157cffd6bbfa2dece204a89ec419c23ef5755d5afa8015610c10576001600160a01b03915f91611c79575b50163303610bce576040516352d1902d60e01b81526001600160a01b0382169390602081600481885afa5f9181611c45575b50611b035784634c9c8ce360e01b5f5260045260245ffd5b807f360894a13ba1a3210667c828492db98dca3e2076cc3735a920a3ca505d382bbc869203611c335750823b15611c2157807fffffffffffffffffffffffff00000000000000000000000000000000000000007f360894a13ba1a3210667c828492db98dca3e2076cc3735a920a3ca505d382bbc5416177f360894a13ba1a3210667c828492db98dca3e2076cc3735a920a3ca505d382bbc557fbc7cd75a20ee27fd9adebab32041f755214dbc6bffa90cc0225b39da2e5c2d3b5f80a2825115611c08575f8091610256945190845af43d15611c00573d91611be483612a42565b92611bf26040519485612a0c565b83523d5f602085013e613046565b606091613046565b50505034611c1257005b63b398979f60e01b5f5260045ffd5b634c9c8ce360e01b5f5260045260245ffd5b632a87526960e21b5f5260045260245ffd5b9091506020813d602011611c71575b81611c6160209383612a0c565b8101031261037e57519086611aeb565b3d9150611c54565b611c92915060203d602011610c0957610bfb8183612a0c565b85611ab9565b90506001600160a01b037f360894a13ba1a3210667c828492db98dca3e2076cc3735a920a3ca505d382bbc5416141584611a74565b3461037e57611cdb366129d5565b925f5160206130a15f395f51905f52929192330361036f5760548110156102ce5760028103611d1257506102569262013498612c7f565b60038103611d2857506102569262016b48612c7f565b60048103611d3e57506102569262017318612c7f565b60058103611d545750610256926201ffb8612c7f565b60068103611d6a57506102569262029040612c7f565b6008036102bf576102569262041ac8612c7f565b3461037e57611d8c3661291c565b949190935f5160206130a15f395f51905f52330361036f576001600160f81b031916600160f81b03611e2c575060548110156102ce5760028103611dd757506102569261cb20612c7f565b60038103611dec57506102569261d6d8612c7f565b60048103611e0257506102569262014820612c7f565b60058103611e185750610256926201c908612c7f565b6006036102bf5761025692620249f0612c7f565b919060548110156102ce5760028103611e4c57506102569361e678612c3b565b60038103611e6257506102569362014820612c3b565b60048103611e785750610256936201ccf0612c3b565b60058103611e8e575061025693620251c0612c3b565b6006036102bf576102569362035390612c3b565b3461037e57611eb03661291c565b949190935f5160206130a15f395f51905f52330361036f576001600160f81b031916600160f81b03611f3c575060548110156102ce5760028103611efb57506102569261cb20612c7f565b60038103611f1057506102569261e290612c7f565b60048103611f2657506102569262014438612c7f565b600581036107cf5750610256926201ccf0612c7f565b919060548110156102ce5760028103611f5c57506102569361e678612c3b565b60038103611f7257506102569362014820612c3b565b60048103611f885750610256936201c908612c3b565b60058103611f9e57506102569362023a50612c3b565b6006036102bf5761025693620347d8612c3b565b3461037e57611fc03661291c565b949190935f5160206130a15f395f51905f52330361036f576001600160f81b031916600160f81b0361204c575060548110156102ce576002810361200b57506102569261e290612c7f565b6003810361202057506102569261e290612c7f565b6004810361203657506102569262014820612c7f565b60058103611e185750610256926201d0d8612c7f565b919060548110156102ce576002810361206c57506102569361e290612c3b565b6003810361208257506102569362014438612c3b565b600481036120985750610256936201c908612c3b565b60058103611e8e57506102569362024608612c3b565b3461037e576120bc3661291c565b949150925f5160206130a15f395f51905f52330361036f576001600160f81b031990811601610e9b5760548110156102ce57600281036121045750610256926206b6c0612c7f565b6003810361211a5750610256926208d9a0612c7f565b60048103612130575061025692620c15c0612c7f565b60058103612146575061025692621197e8612c7f565b6006036102bf5761025692621da5d8612c7f565b3461037e5760c036600319011261037e57600435605481101561037e5760a435906001600160a01b038216820361037e575f5160206130a15f395f51905f52330361036f578061221e57506121da906121b761d6d8915b82612ef8565b6024355c6044355c6064355c80821061221757505b80821061220f575090612c1a565b65ffffffffffff5f5160206130c15f395f51905f525460901c168111612200576084355d005b630fc3448760e41b5f5260045ffd5b905090612c1a565b90506121cc565b6002810361223757506121da906121b761d6d8916121b1565b6003810361225057506121da906121b761d6d8916121b1565b6004810361226957506121da906121b761d6d8916121b1565b6005810361228257506121da906121b761d6d8916121b1565b6006810361229b57506121da906121b761dea8916121b1565b600781036122b557506121da906121b762014438916121b1565b6008036102bf576121da906121b76201a5e0916121b1565b3461037e576122db366129d5565b925f5160206130a15f395f51905f52929192330361036f5760548110156102ce578061230d5750610256926002612c7f565b600281036123215750610256926009612c7f565b600381036123355750610256926010612c7f565b600481036123495750610256926020612c7f565b6005810361235d575061025692603f612c7f565b600681036123715750610256926082612c7f565b6008036102bf57610256926082612c7f565b3461037e57602036600319011261037e5761239c612906565b604051638da5cb5b60e01b81526020816004817350157cffd6bbfa2dece204a89ec419c23ef5755d5afa8015610c10576001600160a01b03915f916124ac575b50163303610bce578060ff6124296001600160a01b03936001600160a01b03165f527fc13af6c514bff8997f30c90003baa82bd02aad978179d1ce58d85c4319ad650160205260405f2090565b5416156124995761246a816001600160a01b03165f527fc13af6c514bff8997f30c90003baa82bd02aad978179d1ce58d85c4319ad650160205260405f2090565b805460ff19169055167f92fc97af15002646cea63c7633bb375b82db7cde7b480c75fe6341dacc292c815f80a2005b631c79868360e31b5f521660045260245ffd5b6124c5915060203d602011610c0957610bfb8183612a0c565b836123dc565b3461037e575f36600319011261037e5760206040515f5160206130a15f395f51905f528152f35b3461037e575f36600319011261037e57602065ffffffffffff5f5160206130c15f395f51905f525460901c16604051908152f35b3461037e57606036600319011261037e5761253f612996565b6125476129ab565b61254f6129c0565b90600167ffffffffffffffff7ff0c57e16840df040f15088dc2f81fe391c3923bec73e23a9662efc9c229c6a0054160361258c5761025692612a91565b636f4f731f60e01b5f5260045ffd5b3461037e575f36600319011261037e5760408051906125ba8183612a0c565b6008825260208201907f4843554c696d697400000000000000000000000000000000000000000000000082526125ee612c95565b6002906125fb6001612a42565b9461260884519687612a0c565b600186526126166001612a42565b602087019390601f1901368537600a602188015b5f1901916f181899199a1a9b1b9c1cb0b131b232b360811b8282061a83530490811561265857600a9061262a565b505060016020819360026126da96610b609a8480612674612c95565b958c519d8e9a518091848d015e8a019061103b60f11b83830152805192839101602283015e010190601760f91b84830152518092600383015e010190601760f91b84830152805192839101600283015e01015f838201520301601f198101845283612a0c565b519182918261296c565b3461037e576126f23661291c565b949190935f5160206130a15f395f51905f52330361036f576001600160f81b031916600160f81b03612752575060548110156102ce576002810361273d575061025692617d00612c7f565b6003810361064a575061025692617d00612c7f565b919060548110156102ce576002810361277357506102569362016378612c3b565b600381036127895750610256936201e078612c3b565b6004810361279f57506102569362027cb8612c3b565b600581036127b557506102569362033068612c3b565b600681036127cb57506102569362042680612c3b565b6008036102bf57610256936205a168612c3b565b3461037e576127ed3661291c565b949190935f5160206130a15f395f51905f52330361036f576001600160f81b031916600160f81b0361288f575060548110156102ce576002810361283957506102569262014820612c7f565b6003810361284f575061025692620157c0612c7f565b600481036128655750610256926201c908612c7f565b6005810361287b575061025692620249f0612c7f565b6006036102bf57610256926202d690612c7f565b919060548110156102ce57600281036128b05750610256936201d0d8612c3b565b600381036128c657506102569362023a50612c3b565b600481036128dc5750610256936202c6f0612c3b565b600581036128f257506102569362035778612c3b565b6006036102bf5761025693620468e8612c3b565b600435906001600160a01b038216820361037e57565b60c090600319011261037e57600435605481101561037e57906024356001600160f81b03198116810361037e579060443590606435906084359060a4356001600160a01b038116810361037e5790565b602060409281835280519182918282860152018484015e5f828201840152601f01601f1916010190565b6004359065ffffffffffff8216820361037e57565b6024359065ffffffffffff8216820361037e57565b6044359065ffffffffffff8216820361037e57565b608090600319011261037e57600435605481101561037e579060243590604435906064356001600160a01b038116810361037e5790565b90601f8019910116810190811067ffffffffffffffff821117612a2e57604052565b634e487b7160e01b5f52604160045260245ffd5b67ffffffffffffffff8111612a2e57601f01601f191660200190565b606090600319011261037e57600435605481101561037e5790602435906044356001600160a01b038116810361037e5790565b7ff0c57e16840df040f15088dc2f81fe391c3923bec73e23a9662efc9c229c6a00549260ff8460401c168015612ba5575b612b9657612b0f612b149268010000000000000003612b199668ffffffffffffffffff1916177ff0c57e16840df040f15088dc2f81fe391c3923bec73e23a9662efc9c229c6a0055612d00565b612d82565b612e4f565b68ff0000000000000000197ff0c57e16840df040f15088dc2f81fe391c3923bec73e23a9662efc9c229c6a0054167ff0c57e16840df040f15088dc2f81fe391c3923bec73e23a9662efc9c229c6a00557fc7f505b2f371ae2175ee4913f4499e1f2633a7b5936321eed1cdaeb6115181d2602060405160038152a1565b63f92ee8a960e01b5f5260045ffd5b50600367ffffffffffffffff85161015612ac2565b9081602091031261037e57516001600160a01b038116810361037e5790565b65ffffffffffff4316905f5160206130c15f395f51905f5254918065ffffffffffff8460601c1603612c14579160301c65ffffffffffff1690565b91505f90565b91908201809211612c2757565b634e487b7160e01b5f52601160045260245ffd5b91612c4a612c5b949284612ef8565b5c905c80821061220f575090612c1a565b9065ffffffffffff5f5160206130c15f395f51905f525460901c168211612200575d565b9091612c8e612c5b9383612ef8565b5c90612c1a565b5f612ca06001612a42565b90612cae6040519283612a0c565b60018252601f19612cbf6001612a42565b01366020840137600a602183015b5f1901916f181899199a1a9b1b9c1cb0b131b232b360811b8282061a8353048015612cfb57600a9091612ccd565b505090565b65ffffffffffff5f5160206130c15f395f51905f525491169065ffffffffffff8160c01c168210612d735765ffffffffffff191681175f5160206130c15f395f51905f52556040519081527fc1f1fcaa898aae2263dded712e1798083fca9272ff803ee4150ce48f8619891a90602090a1565b6304acca2f60e01b5f5260045ffd5b5f5160206130c15f395f51905f52549065ffffffffffff81168065ffffffffffff841610612d735765ffffffffffff8360901c168110612e40577f64cb9e7ae6497c59080cdbc048552e123d52aa4240e137758a173582786961ca927fffff000000000000ffffffffffffffffffffffffffffffffffffffffffffffff7dffffffffffff00000000000000000000000000000000000000000000000060209460c01b169116175f5160206130c15f395f51905f5255604051908152a1565b632bec58cf60e21b5f5260045ffd5b5f5160206130c15f395f51905f52549065ffffffffffff81168065ffffffffffff8460c01c1610612e40577f5511b1851fc40a2629c855bab7adce3276c470d8190eb01431e418dc2af13e8e927fffffffffffffffff000000000000ffffffffffffffffffffffffffffffffffff77ffffffffffff00000000000000000000000000000000000060209460901b169116175f5160206130c15f395f51905f5255604051908152a1565b612f05612f0d9282612f40565b5f5c90612c1a565b65ffffffffffff5f5160206130c15f395f51905f525460c01c168111612f31575f5d565b6377e3c29360e01b5f5260045ffd5b90612f7d60ff916001600160a01b03165f527fc13af6c514bff8997f30c90003baa82bd02aad978179d1ce58d85c4319ad650160205260405f2090565b541661304357612fca5f5160206130c15f395f51905f52549165ffffffffffff8360301c1665ffffffffffff431665ffffffffffff8560601c160361303c575b65ffffffffffff16612c1a565b9065ffffffffffff8116821161302d576bffffffffffff00000000000071ffffffffffff0000000000000000000000004360601b169260301b169071ffffffffffffffffffffffff000000000000191617175f5160206130c15f395f51905f5255565b632b49445d60e21b5f5260045ffd5b505f612fbd565b50565b9061306a575080511561305b57805190602001fd5b63d6bda27560e01b5f5260045ffd5b81511580613097575b61307b575090565b6001600160a01b0390639996b31560e01b5f521660045260245ffd5b50803b1561307356fe000000000000000000000000e3a9105a3a932253a70f126eb1e3b589c643dd24c13af6c514bff8997f30c90003baa82bd02aad978179d1ce58d85c4319ad6500a2646970667358221220cd69ba484f9e88442fa99106233b88241fda313436f4cd304f7dcc52c1b856ac64736f6c634300081b0033f0c57e16840df040f15088dc2f81fe391c3923bec73e23a9662efc9c229c6a00","linkReferences":{}},"methodIdentifiers":{"UPGRADE_INTERFACE_VERSION()":"ad3cb1cc","addToBlockHCUWhitelist(address)":"6fd65e4d","checkHCUForCast(uint8,bytes32,bytes32,address)":"69931afb","checkHCUForFheAdd(uint8,bytes1,bytes32,bytes32,bytes32,address)":"c1390c34","checkHCUForFheBitAnd(uint8,bytes1,bytes32,bytes32,bytes32,address)":"c8de4352","checkHCUForFheBitOr(uint8,bytes1,bytes32,bytes32,bytes32,address)":"c0c5df7c","checkHCUForFheBitXor(uint8,bytes1,bytes32,bytes32,bytes32,address)":"9f9259bb","checkHCUForFheDiv(uint8,bytes1,bytes32,bytes32,bytes32,address)":"9b3f781a","checkHCUForFheEq(uint8,bytes1,bytes32,bytes32,bytes32,address)":"60e12189","checkHCUForFheGe(uint8,bytes1,bytes32,bytes32,bytes32,address)":"c277a936","checkHCUForFheGt(uint8,bytes1,bytes32,bytes32,bytes32,address)":"458fb277","checkHCUForFheLe(uint8,bytes1,bytes32,bytes32,bytes32,address)":"38bd17e5","checkHCUForFheLt(uint8,bytes1,bytes32,bytes32,bytes32,address)":"3bb7d5a3","checkHCUForFheMax(uint8,bytes1,bytes32,bytes32,bytes32,address)":"968302d7","checkHCUForFheMin(uint8,bytes1,bytes32,bytes32,bytes32,address)":"04553fb6","checkHCUForFheMul(uint8,bytes1,bytes32,bytes32,bytes32,address)":"818f4d69","checkHCUForFheNe(uint8,bytes1,bytes32,bytes32,bytes32,address)":"6bad18b6","checkHCUForFheNeg(uint8,bytes32,bytes32,address)":"497c22c5","checkHCUForFheNot(uint8,bytes32,bytes32,address)":"2dcbc5d1","checkHCUForFheRand(uint8,bytes32,address)":"d5b8b8f3","checkHCUForFheRandBounded(uint8,bytes32,address)":"6cf0bd25","checkHCUForFheRem(uint8,bytes1,bytes32,bytes32,bytes32,address)":"3311b1bc","checkHCUForFheRotl(uint8,bytes1,bytes32,bytes32,bytes32,address)":"5f76eb30","checkHCUForFheRotr(uint8,bytes1,bytes32,bytes32,bytes32,address)":"8629f545","checkHCUForFheShl(uint8,bytes1,bytes32,bytes32,bytes32,address)":"f7d198f8","checkHCUForFheShr(uint8,bytes1,bytes32,bytes32,bytes32,address)":"07ccdf61","checkHCUForFheSub(uint8,bytes1,bytes32,bytes32,bytes32,address)":"d633c96b","checkHCUForIfThenElse(uint8,bytes32,bytes32,bytes32,bytes32,address)":"2e3c3906","checkHCUForTrivialEncrypt(uint8,bytes32,address)":"b78bef59","getBlockMeter()":"9f4b9937","getFHEVMExecutorAddress()":"268d6d31","getGlobalHCUCapPerBlock()":"b59547b8","getMaxHCUDepthPerTx()":"1e24aa49","getMaxHCUPerTx()":"c13c1971","getVersion()":"0d8e6e2c","initializeFromEmptyProxy(uint48,uint48,uint48)":"196a456d","isBlockHCUWhitelisted(address)":"ede8776e","proxiableUUID()":"52d1902d","reinitializeV2(uint48,uint48,uint48)":"7748671a","removeFromBlockHCUWhitelist(address)":"28677ca7","setHCUPerBlock(uint48)":"a036ea2e","setMaxHCUDepthPerTx(uint48)":"5c414b57","setMaxHCUPerTx(uint48)":"ab394755","upgradeToAndCall(address,bytes)":"4f1ef286"},"id":57}