{"abi":[{"type":"constructor","inputs":[{"name":"cusdc","type":"address","internalType":"address"},{"name":"treasury_","type":"address","internalType":"address"}],"stateMutability":"nonpayable"},{"type":"function","name":"auctionCount","inputs":[],"outputs":[{"name":"","type":"uint256","internalType":"uint256"}],"stateMutability":"view"},{"type":"function","name":"bidCount","inputs":[{"name":"auctionId","type":"uint256","internalType":"uint256"}],"outputs":[{"name":"","type":"uint256","internalType":"uint256"}],"stateMutability":"view"},{"type":"function","name":"bidRevealed","inputs":[{"name":"auctionId","type":"uint256","internalType":"uint256"},{"name":"bidIndex","type":"uint256","internalType":"uint256"}],"outputs":[{"name":"","type":"bool","internalType":"bool"}],"stateMutability":"view"},{"type":"function","name":"cUSDC","inputs":[],"outputs":[{"name":"","type":"address","internalType":"contract IConfidentialUSDC"}],"stateMutability":"view"},{"type":"function","name":"confidentialProtocolId","inputs":[],"outputs":[{"name":"","type":"uint256","internalType":"uint256"}],"stateMutability":"view"},{"type":"function","name":"createAuctionItem","inputs":[{"name":"itemName","type":"string","internalType":"string"},{"name":"itemDescription","type":"string","internalType":"string"},{"name":"minBidPlain","type":"uint64","internalType":"uint64"},{"name":"durationSeconds","type":"uint64","internalType":"uint64"}],"outputs":[{"name":"auctionId","type":"uint256","internalType":"uint256"}],"stateMutability":"payable"},{"type":"function","name":"createAuctionToken","inputs":[{"name":"itemName","type":"string","internalType":"string"},{"name":"itemDescription","type":"string","internalType":"string"},{"name":"tokenX","type":"address","internalType":"address"},{"name":"supply","type":"uint256","internalType":"uint256"},{"name":"minBidPlain","type":"uint64","internalType":"uint64"},{"name":"durationSeconds","type":"uint64","internalType":"uint64"}],"outputs":[{"name":"auctionId","type":"uint256","internalType":"uint256"}],"stateMutability":"payable"},{"type":"function","name":"createSealedAuctionItem","inputs":[{"name":"itemName","type":"string","internalType":"string"},{"name":"itemDescription","type":"string","internalType":"string"},{"name":"displayHint","type":"uint64","internalType":"uint64"},{"name":"encReserve","type":"bytes32","internalType":"externalEuint64"},{"name":"reserveProof","type":"bytes","internalType":"bytes"},{"name":"durationSeconds","type":"uint64","internalType":"uint64"},{"name":"useVickrey","type":"bool","internalType":"bool"},{"name":"useTieBreak","type":"bool","internalType":"bool"}],"outputs":[{"name":"auctionId","type":"uint256","internalType":"uint256"}],"stateMutability":"payable"},{"type":"function","name":"endAuction","inputs":[{"name":"auctionId","type":"uint256","internalType":"uint256"}],"outputs":[],"stateMutability":"nonpayable"},{"type":"function","name":"finalizeAuctionItem","inputs":[{"name":"auctionId","type":"uint256","internalType":"uint256"},{"name":"winner","type":"address","internalType":"address"},{"name":"winningAmount","type":"uint64","internalType":"uint64"},{"name":"decryptionProof","type":"bytes","internalType":"bytes"}],"outputs":[],"stateMutability":"nonpayable"},{"type":"function","name":"finalizeAuctionToken","inputs":[{"name":"auctionId","type":"uint256","internalType":"uint256"},{"name":"prices","type":"uint64[]","internalType":"uint64[]"},{"name":"qtys","type":"uint64[]","internalType":"uint64[]"},{"name":"decryptionProof","type":"bytes","internalType":"bytes"}],"outputs":[],"stateMutability":"nonpayable"},{"type":"function","name":"finalizeSealedAuctionItem","inputs":[{"name":"auctionId","type":"uint256","internalType":"uint256"},{"name":"winner","type":"address","internalType":"address"},{"name":"paidAmount","type":"uint64","internalType":"uint64"},{"name":"decryptionProof","type":"bytes","internalType":"bytes"}],"outputs":[],"stateMutability":"nonpayable"},{"type":"function","name":"getAuction","inputs":[{"name":"auctionId","type":"uint256","internalType":"uint256"}],"outputs":[{"name":"","type":"tuple","internalType":"struct Obscura.Auction","components":[{"name":"mode","type":"uint8","internalType":"enum Obscura.Mode"},{"name":"seller","type":"address","internalType":"address"},{"name":"itemName","type":"string","internalType":"string"},{"name":"itemDescription","type":"string","internalType":"string"},{"name":"tokenX","type":"address","internalType":"address"},{"name":"totalSupply","type":"uint256","internalType":"uint256"},{"name":"minBidPlain","type":"uint64","internalType":"uint64"},{"name":"minBidEnc","type":"bytes32","internalType":"euint64"},{"name":"endTime","type":"uint64","internalType":"uint64"},{"name":"ended","type":"bool","internalType":"bool"},{"name":"finalized","type":"bool","internalType":"bool"},{"name":"runningHighestBid","type":"bytes32","internalType":"euint64"},{"name":"runningHighestBidder","type":"bytes32","internalType":"eaddress"},{"name":"winnerPlain","type":"address","internalType":"address"},{"name":"winningAmountPlain","type":"uint64","internalType":"uint64"},{"name":"clearingPricePlain","type":"uint64","internalType":"uint64"},{"name":"unsoldReturned","type":"uint256","internalType":"uint256"},{"name":"gasDeposit","type":"uint256","internalType":"uint256"},{"name":"bidGasPool","type":"uint256","internalType":"uint256"},{"name":"reserveHidden","type":"bool","internalType":"bool"},{"name":"useVickrey","type":"bool","internalType":"bool"},{"name":"useTieBreak","type":"bool","internalType":"bool"},{"name":"secondHighestBid","type":"bytes32","internalType":"euint64"},{"name":"tieBreakScore","type":"bytes32","internalType":"euint32"}]}],"stateMutability":"view"},{"type":"function","name":"getBid","inputs":[{"name":"auctionId","type":"uint256","internalType":"uint256"},{"name":"idx","type":"uint256","internalType":"uint256"}],"outputs":[{"name":"bidder","type":"address","internalType":"address"},{"name":"encPriceHandle","type":"bytes32","internalType":"bytes32"},{"name":"encQtyHandle","type":"bytes32","internalType":"bytes32"},{"name":"encEscrowHandle","type":"bytes32","internalType":"bytes32"},{"name":"settled","type":"bool","internalType":"bool"},{"name":"allocatedTokenX","type":"uint256","internalType":"uint256"},{"name":"refundedCUSDC","type":"uint64","internalType":"uint64"}],"stateMutability":"view"},{"type":"function","name":"hasBid","inputs":[{"name":"","type":"uint256","internalType":"uint256"},{"name":"","type":"address","internalType":"address"}],"outputs":[{"name":"","type":"bool","internalType":"bool"}],"stateMutability":"view"},{"type":"function","name":"nextAuctionId","inputs":[],"outputs":[{"name":"","type":"uint256","internalType":"uint256"}],"stateMutability":"view"},{"type":"function","name":"placeBid","inputs":[{"name":"auctionId","type":"uint256","internalType":"uint256"},{"name":"encExtPrice","type":"bytes32","internalType":"externalEuint64"},{"name":"encExtQty","type":"bytes32","internalType":"externalEuint64"},{"name":"priceProof","type":"bytes","internalType":"bytes"},{"name":"qtyProof","type":"bytes","internalType":"bytes"}],"outputs":[{"name":"bidIndex","type":"uint256","internalType":"uint256"}],"stateMutability":"payable"},{"type":"function","name":"revealMyBid","inputs":[{"name":"auctionId","type":"uint256","internalType":"uint256"},{"name":"bidIndex","type":"uint256","internalType":"uint256"}],"outputs":[],"stateMutability":"nonpayable"},{"type":"function","name":"treasury","inputs":[],"outputs":[{"name":"","type":"address","internalType":"contract ITreasury"}],"stateMutability":"view"},{"type":"event","name":"AuctionCreatedItem","inputs":[{"name":"auctionId","type":"uint256","indexed":true,"internalType":"uint256"},{"name":"seller","type":"address","indexed":true,"internalType":"address"},{"name":"itemName","type":"string","indexed":false,"internalType":"string"},{"name":"minBidPlain","type":"uint64","indexed":false,"internalType":"uint64"},{"name":"endTime","type":"uint64","indexed":false,"internalType":"uint64"},{"name":"gasDeposit","type":"uint256","indexed":false,"internalType":"uint256"}],"anonymous":false},{"type":"event","name":"AuctionCreatedToken","inputs":[{"name":"auctionId","type":"uint256","indexed":true,"internalType":"uint256"},{"name":"seller","type":"address","indexed":true,"internalType":"address"},{"name":"tokenX","type":"address","indexed":true,"internalType":"address"},{"name":"supply","type":"uint256","indexed":false,"internalType":"uint256"},{"name":"minBidPlain","type":"uint64","indexed":false,"internalType":"uint64"},{"name":"endTime","type":"uint64","indexed":false,"internalType":"uint64"},{"name":"gasDeposit","type":"uint256","indexed":false,"internalType":"uint256"}],"anonymous":false},{"type":"event","name":"AuctionEnded","inputs":[{"name":"auctionId","type":"uint256","indexed":true,"internalType":"uint256"}],"anonymous":false},{"type":"event","name":"AuctionFinalizedItem","inputs":[{"name":"auctionId","type":"uint256","indexed":true,"internalType":"uint256"},{"name":"winner","type":"address","indexed":true,"internalType":"address"},{"name":"amount","type":"uint64","indexed":false,"internalType":"uint64"},{"name":"fee","type":"uint64","indexed":false,"internalType":"uint64"}],"anonymous":false},{"type":"event","name":"AuctionFinalizedToken","inputs":[{"name":"auctionId","type":"uint256","indexed":true,"internalType":"uint256"},{"name":"clearingPrice","type":"uint64","indexed":false,"internalType":"uint64"},{"name":"totalAllocated","type":"uint256","indexed":false,"internalType":"uint256"},{"name":"unsoldReturned","type":"uint256","indexed":false,"internalType":"uint256"},{"name":"fee","type":"uint64","indexed":false,"internalType":"uint64"}],"anonymous":false},{"type":"event","name":"AuctionFinalizedVickrey","inputs":[{"name":"auctionId","type":"uint256","indexed":true,"internalType":"uint256"},{"name":"winner","type":"address","indexed":true,"internalType":"address"},{"name":"paidAmount","type":"uint64","indexed":false,"internalType":"uint64"},{"name":"fee","type":"uint64","indexed":false,"internalType":"uint64"}],"anonymous":false},{"type":"event","name":"BidPlaced","inputs":[{"name":"auctionId","type":"uint256","indexed":true,"internalType":"uint256"},{"name":"bidIndex","type":"uint256","indexed":true,"internalType":"uint256"},{"name":"bidder","type":"address","indexed":true,"internalType":"address"},{"name":"encPriceHandle","type":"bytes32","indexed":false,"internalType":"bytes32"},{"name":"encQtyHandle","type":"bytes32","indexed":false,"internalType":"bytes32"}],"anonymous":false},{"type":"event","name":"BidRevealed","inputs":[{"name":"auctionId","type":"uint256","indexed":true,"internalType":"uint256"},{"name":"bidIndex","type":"uint256","indexed":true,"internalType":"uint256"},{"name":"bidder","type":"address","indexed":true,"internalType":"address"},{"name":"encPriceHandle","type":"bytes32","indexed":false,"internalType":"bytes32"}],"anonymous":false},{"type":"event","name":"BidSettled","inputs":[{"name":"auctionId","type":"uint256","indexed":true,"internalType":"uint256"},{"name":"bidIndex","type":"uint256","indexed":true,"internalType":"uint256"},{"name":"bidder","type":"address","indexed":true,"internalType":"address"},{"name":"isWinner","type":"bool","indexed":false,"internalType":"bool"},{"name":"allocatedTokenX","type":"uint256","indexed":false,"internalType":"uint256"},{"name":"refundedCUSDC","type":"uint64","indexed":false,"internalType":"uint64"}],"anonymous":false},{"type":"event","name":"GasCompensated","inputs":[{"name":"auctionId","type":"uint256","indexed":true,"internalType":"uint256"},{"name":"caller","type":"address","indexed":true,"internalType":"address"},{"name":"payout","type":"uint256","indexed":false,"internalType":"uint256"}],"anonymous":false},{"type":"event","name":"PublicDecryptionVerified","inputs":[{"name":"handlesList","type":"bytes32[]","indexed":false,"internalType":"bytes32[]"},{"name":"abiEncodedCleartexts","type":"bytes","indexed":false,"internalType":"bytes"}],"anonymous":false},{"type":"event","name":"SealedAuctionCreated","inputs":[{"name":"auctionId","type":"uint256","indexed":true,"internalType":"uint256"},{"name":"useVickrey","type":"bool","indexed":false,"internalType":"bool"},{"name":"useTieBreak","type":"bool","indexed":false,"internalType":"bool"},{"name":"displayHint","type":"uint64","indexed":false,"internalType":"uint64"}],"anonymous":false},{"type":"error","name":"AlreadyBid","inputs":[]},{"type":"error","name":"AuctionAlreadyEnded","inputs":[]},{"type":"error","name":"AuctionAlreadyFinalized","inputs":[]},{"type":"error","name":"AuctionNotEnded","inputs":[]},{"type":"error","name":"AuctionNotFinalizedYet","inputs":[]},{"type":"error","name":"AuctionNotFound","inputs":[]},{"type":"error","name":"DurationTooShort","inputs":[]},{"type":"error","name":"InvalidKMSSignatures","inputs":[]},{"type":"error","name":"LengthMismatch","inputs":[]},{"type":"error","name":"NotYourBid","inputs":[]},{"type":"error","name":"ReentrancyGuardReentrantCall","inputs":[]},{"type":"error","name":"SafeERC20FailedOperation","inputs":[{"name":"token","type":"address","internalType":"address"}]},{"type":"error","name":"SellerCannotBid","inputs":[]},{"type":"error","name":"SenderNotAllowedToUseHandle","inputs":[{"name":"handle","type":"bytes32","internalType":"bytes32"},{"name":"sender","type":"address","internalType":"address"}]},{"type":"error","name":"TooEarly","inputs":[]},{"type":"error","name":"WrongMode","inputs":[]},{"type":"error","name":"ZamaProtocolUnsupported","inputs":[]},{"type":"error","name":"ZeroAddress","inputs":[]},{"type":"error","name":"ZeroAmount","inputs":[]}],"bytecode":{"object":"0x60c06040523461031557604051601f614ad638819003918201601f19168301916001600160401b038311848410176103195780849260409485528339810103126103155761005860206100518361034c565b920161034c565b90610061610360565b504660010361023157610072610360565b5061007b61032d565b73ca2e8f1f656cd25c01f05d0b243ab1ecd4a8ffb6815273d82385dada1ae3e969447f20a3164f6213100e7560208201527377627828a55156b04ac0dc0eb30467f1a552bb0360408201525b80517f9e7b61f58c47dc699ac88507c4f5bb9f121c03808c5676a8078fe583e464970080546001600160a01b03199081166001600160a01b039384161790915560208301517f9e7b61f58c47dc699ac88507c4f5bb9f121c03808c5676a8078fe583e4649701805483169184169190911790556040909201517f9e7b61f58c47dc699ac88507c4f5bb9f121c03808c5676a8078fe583e464970280549093169082161790915560015f551680158015610220575b610211576080526001600160a01b031660a05260405161475b908161037b82396080518181816103ec015281816105a70152818161064101528181610c3901528181610d1301528181610dcd01528181610f06015281816113250152818161164801528181612f6f0152613256015260a05181818161027f0152818161096b01528181610e0801528181612bc00152612e310152f35b63d92e233d60e01b5f5260045ffd5b506001600160a01b0382161561017b565b4662aa36a70361029c57610243610360565b5061024c61032d565b73f0ffdc93b7e186bc2f8cb3daa75d86d1930a433d81527392c920834ec8941d2c77d188936e1f7a6f49c127602082015273be0e383937d564d7ff0bc3b46c51f0bf8d5c311a60408201526100c7565b46617a6903610306576102ad610360565b506102b661032d565b7350157cffd6bbfa2dece204a89ec419c23ef5755d815273e3a9105a3a932253a70f126eb1e3b589c643dd24602082015273901f8942346f7ab3a01f6d7613119bca447bb03060408201526100c7565b6373cac13b60e01b5f5260045ffd5b5f80fd5b634e487b7160e01b5f52604160045260245ffd5b60405190606082016001600160401b0381118382101761031957604052565b51906001600160a01b038216820361031557565b61036861032d565b905f82525f60208301525f604083015256fe60a0806040526004361015610012575f80fd5b5f3560e01c9081632ad7157314613759575080632ce8f4881461332d5780633dc0df1514612cbf578063449e881214612c6a578063582c7ffd14612be457806361d027b314612ba1578063627a2b3914612b6957806378bd7935146127a25780638927b030146127805780638c4569ae1461225b578063976458e214611e585780639dff1af814611da6578063b9075d02146114fa578063b9a2de3a14611373578063b9a958b414611349578063ce347a3e14611306578063d0bb54e814610769578063e6985c251461010e5763fc528482146100ed575f80fd5b3461010a575f36600319011261010a576020600154604051908152f35b5f80fd5b3461010a5761011c366137cc565b9190610129949394613b89565b5a7f01cda4bee0f68c8e3097058a78382fba2e374c53eb477464bca65fd2eef7339b5d835f52600260205260405f209060ff825416600281101561075557610746576007820191825460ff8160401c16156107375760481c60ff166107285761020c6060976001600160a01b03604051916101a48b84613913565b60028352601f198b0136602085013760098501546101c18461397d565b5260088501546101d08461399e565b5216966102066001600160401b03881695604051928a6020850152876040850152604084526101ff8d85613913565b36916139dd565b91613bda565b600a8101805467ffffffffffffffff60a01b1987167fffffffff000000000000000000000000000000000000000000000000000000009091161760a086901b67ffffffffffffffff60a01b16179055600b8101805467ffffffffffffffff19168317905560405163b8606eef60e01b81527f00000000000000000000000000000000000000000000000000000000000000006001600160a01b03169290602081600481875afa8015610527576001600160401b039261ffff6102db92612710945f916106f9575b501690613a2d565b041696865f52600360205260405f2054915f5b83811061036957855469ff00000000000000000019166901000000000000000000178655604080516001600160401b03808a1682528c166020820152610363918b918b9183917f515a9c163273f3db224695f29bccf98250f41d89b29471a7c1d1e8a6ed121c6291819081015b0390a3613e0c565b60015f55005b885f52600360205261037e8160405f20613a40565b509060048201805460ff81166106ee5760ff1916600117905581546001600160a01b031689810361060557508a15610564576103b98b614223565b916103c8836003830154613d29565b926103d281613b67565b506103dc84613b67565b5061045a60206001600160a01b037f000000000000000000000000000000000000000000000000000000000000000016956104178785613d02565b506104228782613d02565b50875460405163170856b560e01b815260089190911c6001600160a01b03166004820152602481019190915291829081906044820190565b03815f895af1801561052757610532575b5060405163170856b560e01b81526001600160a01b0389166004820152602481019190915292602090849060449082905f905af1908115610527576001936001600160a01b03926104f9575b505b5416818b7fc3c93c50dc9a3409ed97610c7a5471b7f3c3ded7df7a654fee3dbfb33970fcc8876040518781525f60208201525f6040820152a45b016102ee565b6105199060203d8111610520575b6105118183613913565b810190613a59565b508d6104b7565b503d610507565b6040513d5f823e3d90fd5b906020823d821161055c575b8161054b60209383613913565b8101031261010a579050602061046b565b3d915061053e565b8254600383015460405163170856b560e01b815260089290921c6001600160a01b03166004830152602482015291602083806044810103815f6001600160a01b037f0000000000000000000000000000000000000000000000000000000000000000165af1908115610527576001936001600160a01b03926105e7575b506104b9565b6105fe9060203d8111610520576105118183613913565b508d6105e1565b600383015460405163170856b560e01b81526001600160a01b0390921660048301526024820152602081806044810103815f6001600160a01b037f0000000000000000000000000000000000000000000000000000000000000000165af18015610527576106b8575b506001600160a01b036001925416818b7fc3c93c50dc9a3409ed97610c7a5471b7f3c3ded7df7a654fee3dbfb33970fcc8876040515f81525f60208201525f6040820152a46104f3565b6020813d82116106e6575b816106d060209383613913565b8101031261010a57506001600160a01b0361066e565b3d91506106c3565b5050600191506104f3565b61071b915060203d602011610721575b6107138183613913565b810190613a13565b8d6102d3565b503d610709565b63059fb38360e51b5f5260045ffd5b636463738960e01b5f5260045ffd5b632a580d6d60e01b5f5260045ffd5b634e487b7160e01b5f52602160045260245ffd5b3461010a57608036600319011261010a576024356001600160401b03811161010a57610799903690600401613861565b6044356001600160401b03811161010a576107b8903690600401613861565b906064356001600160401b03811161010a576107d8903690600401613773565b6107e3929192613b89565b5a7f01cda4bee0f68c8e3097058a78382fba2e374c53eb477464bca65fd2eef7339b5d6004355f52600260205260405f209260ff84541660028110156107555760010361074657600784015460ff8160401c16156107375760481c60ff16610728576004355f52600360205260405f2054808714908115916112fb575b506112ec576004355f52600360205260405f20908154928360011b84810460021485151715610e8d576108959094939461394b565b936060935f915b8183106111e7575050506108b79392916102069136916139dd565b6004820154906001600160401b03600584015416946108d58161394b565b906108df8161394b565b935f97825f5b8b82821061117f57505050505f5b8881106110cd5750885f985f965f935b828510611041575b5050505050600b85016001600160401b0388166001600160401b03198254161790555f956004355f52600260205260405f20986004355f52600360205260405f20946040519263b8606eef60e01b84526020846004816001600160a01b037f0000000000000000000000000000000000000000000000000000000000000000165afa938415610527575f94611020575b508654965f5b888110610a67578c6001600160401b038d8d8d6109c2816004840154613b5a565b9182610a3c575b82600c8201556007690100000000000000000069ff000000000000000000198284015416179101558360405195168552602085015260408401521660608201527f79031c0c9633e1c3830f15ec9be612d8649c8de6373e78b2518ad4821bd5444e608060043592a2610363600435613e0c565b610a62836001600160a01b036003840154166001600160a01b03845460081c1690614198565b6109c9565b8d9b8d610a748385613a40565b509160048301805460ff81166110125760ff19166001179055610a97848c6139ae565b51908115610ebf578f8a88848b8f948e8b80925460081c6001600160a01b031697610ac192614174565b610aca90614184565b93610ad492614174565b610add90614184565b966001600160401b031690610af191613a2d565b956001600160401b0316906001600160401b031690610b0f91613a2d565b9485811115610ea157506001600160401b03612710610b4461ffff83610b3b81808c165b16809b613b5a565b16941688613a2d565b0416918286036001600160401b038111610e8d578896610cd8575b505080610c15575b8360058701556001600160401b03166001600160401b0319600687015416176006860155610b94916138d7565b9e600301546001600160a01b03168184546001600160a01b0316610bb792614198565b82546001600160a01b031692600601546001600160401b03166040519160018352602083015260408201526004359060607fc3c93c50dc9a3409ed97610c7a5471b7f3c3ded7df7a654fee3dbfb33970fcc891a46001905b016109a1565b610ca294506020610c2582614223565b610c2e81613b67565b506001600160a01b037f000000000000000000000000000000000000000000000000000000000000000016610c638183613d02565b506001600160a01b038954165f604051809a8195829463170856b560e01b845260048401602090939291936001600160a01b0360408201951681520152565b03925af1948515610527578795610cba575b50610b67565b610cd19060203d8111610520576105118183613913565b505f610cb4565b83610da8575b6001600160401b03168015610b5f57610d72965090610cfe602092614223565b90610d0882613b67565b506001600160a01b037f00000000000000000000000000000000000000000000000000000000000000001690610d3e8284613d02565b505f604051809a8195829463170856b560e01b845260048401602090939291936001600160a01b0360408201951681520152565b03925af1948515610527578795610d8a575b80610b5f565b610da19060203d8111610520576105118183613913565b505f610d84565b5f96506020610e4c610db986614223565b610dc281613b67565b506001600160a01b037f00000000000000000000000000000000000000000000000000000000000000001690610df88282613d02565b5060405163170856b560e01b81527f00000000000000000000000000000000000000000000000000000000000000006001600160a01b031660048201526024810191909152998a9283919082906044820190565b03925af19081156105275789976001600160401b0392610e6f575b509050610cde565b610e869060203d8111610520576105118183613913565b505f610e67565b634e487b7160e01b5f52601160045260245ffd5b612710610b4461ffff6001600160401b03610b3b8180809716610b33565b8354600385015460405163170856b560e01b81526001600160a01b0390921660048301526024820152909f50939291506020905083806044810103815f6001600160a01b037f0000000000000000000000000000000000000000000000000000000000000000165af1801561052757898888958893610fd2575b506001600160401b03610f7d60019782610f76610f6a8a809984610f6f610f6a84839d6001600160a01b039d614174565b614184565b1695614174565b1690613a2d565b16938260068201951683198654161785555416925416604051905f82525f602083015260408201527fc3c93c50dc9a3409ed97610c7a5471b7f3c3ded7df7a654fee3dbfb33970fcc8606060043592a4610c0f565b95505050506020833d821161100a575b81610fef60209383613913565b8101031261010a578592508489886001600160401b03610f39565b3d9150610fe2565b50509d505050600190610c0f565b61103a91945060203d602011610721576107138183613913565b928c61099b565b9091939a81989398156110c457506110ad610f6a8b876110a78f6110a18d6001988e6001600160401b03611089610f6a61107f8f9861109b996139ae565b51809b8197614174565b168281116110b85794859384926139ae565b52613b5a565b98613b4d565b9b614174565b9a0192908b92610903565b508194859384926139ae565b9a97929761090b565b8060018201808311610e8d575b878c8c831061112c57505050908181600193036110f9575b50016108f3565b61110381896139ae565b519061111a611112848b6139ae565b51918a6139ae565b5261112582896139ae565b528b6110f2565b6001600160401b03611166610f6a82938a61115f89611159610f6a6111518c8c6139ae565b518587614174565b986139ae565b5191614174565b16911611611177575b6001016110da565b90508061116f565b6001600160401b03611198610f6a846001968895614174565b161015806111c8575b6111ae575b0183906108e5565b806111c26111bb8d613891565b9c8a6139ae565b526111a6565b506001600160401b036111df610f6a838d8b614174565b1615156111a1565b90919460016111f68784613a40565b5001548660011b9087820460021488151715610e8d57611216828a6139ae565b5260026112238885613a40565b50015460018201809211610e8d576001928c8f8f6001600160401b0361128d8f938f8f9061126e610f6a8360209d98610f6a968f9a9e6112e39f611268908c986139ae565b52614174565b169660405196868801988952868852611288604089613913565b614174565b1692604051928284019485528284526112a7604085613913565b6040519786899751918291018589015e860190838201905f8252519283915e0101905f8252518092825e015f815203601f198101835282613913565b9501919061089c565b631fec674760e31b5f5260045ffd5b905085141588610860565b3461010a575f36600319011261010a5760206040516001600160a01b037f0000000000000000000000000000000000000000000000000000000000000000168152f35b3461010a57602036600319011261010a576004355f526003602052602060405f2054604051908152f35b3461010a57602036600319011261010a57600435805f52600260205260405f2080546001600160a01b038160081c16156114eb5760078201908154916001600160401b03831642106114dc5760ff8360401c166114cd576801000000000000000060ff9368ff0000000000000000191617905516600281101561075557611476576114016008820154614156565b5060098101548015611463575b611417906145b4565b60ff600f82015460081c1661144f575b505b7f45806e512b1f4f10e33e8b3cb64d1d11d998d8c554a95e0841fc1c701278bd5d5f80a2005b601061145c910154614156565b5081611427565b5061141761146f6142c0565b905061140e565b50805f52600360205260405f20545f5b818110611494575050611429565b600190835f5260036020526114c660026114b18360405f20613a40565b506114be85820154614156565b500154614156565b5001611486565b63d02e774d60e01b5f5260045ffd5b63085de62560e01b5f5260045ffd5b6307145c5f60e11b5f5260045ffd5b60a036600319011261010a576004356064356001600160401b03811161010a57611528903690600401613773565b91906084356001600160401b03811161010a57611549903690600401613773565b91835f52600260205260405f20946001600160a01b03865460081c1680156114eb576001600160401b036007880154164210156114cd573314611d9757845f52600460205260405f206001600160a01b0333165f5260205260ff60405f205416611d88576115c9916115c19134611d725736916139dd565b602435613f77565b9160ff855416600281101561075557611d555750505f5160206147065f395f51905f5254604051639cd07acb60e01b815260016004820152906001600160a01b0316816044815f602094600560248401525af1908115610527575f91611d23575b50925b604051630c8ea59d60e21b81523360048201523060248201527f00000000000000000000000000000000000000000000000000000000000000006001600160a01b0316916020826044815f875af1918215610527575f92611ced575b506116b560ff929361169a86613b67565b506116a488613b67565b506116ae85613b67565b5084613d02565b506116c03384613d02565b506116cb3385613d02565b506116d63387613d02565b50541660028110156107555715611896575b5f83815260036020526040908190208054915190959194919061010081016001600160401b03811182821017611882576040523381526020810196858852604082018381526060830195865260808301985f8a5260a08401935f855260c08101945f865260e08201945f86528054680100000000000000008110156118825761177691600182018155613a40565b91909161186f5760209c8c9a6001600160401b039687966001600160a01b03806006985116166001600160a01b0319875416178655516001860155516002850155516003840155600483019051151560ff8019835416911617905551600582015501935116166001600160401b031983541617825551151568ff000000000000000082549160401b169068ff00000000000000001916179055815f526004865260405f206001600160a01b0333165f52865260405f20600160ff19825416179055604051938452858401527f5740235d76a98f325324a161d7e4d6c23a41a6b8a38dff3014a549a77e80c76660403394a4604051908152f35b634e487b7160e01b5f525f60045260245ffd5b634e487b7160e01b5f52604160045260245ffd5b81835f52600260205260405f20905f600f83019060ff825416611cc3575b600884018054926118c5848661443d565b9260ff825460101c165f14611cbd578590858215611cad575b8615611c9b575b60209060646001600160a01b035f5160206147065f395f51905f525416945f604051968794859363f77f3f1d60e01b8552600485015260248401528160448401525af1908115610527575f91611c65575b61194092506144a8565b5f60206001600160a01b035f5160206147065f395f51905f525416602460405180948193636baeb74560e11b83526004808401525af1908115610527575f91611c33575b5060118801916119af8354916119a9849385159485611c25575b8115611c1557614656565b906144a8565b8615611c04575b8015611bf1575b60209060646001600160a01b035f5160206147065f395f51905f525416985f6040519a8b9485936363a2db2960e01b8552600485015260248401528160448401525af1958615610527575f96611bb5575b508254611a3b9392611a339288908115611ba4575b611b94575b8215611b8a576146b2565b80915561413d565b505b611a48848685614466565b82555f5160206147065f395f51905f5254604051639cd07acb60e01b8152336004820152906001600160a01b0316816044815f602094600760248401525af1908115610527575f91611b57575b5060098701805460ff94611ad493611acd92611ac59189818115611b46575b15611b36575b8215611b26576146b2565b835554613b67565b5054613f5e565b505460081c16611ae8575b505050506116e8565b83611b0e6010611b03611b14956006611b1c9901549061452f565b92019485549061452f565b91614466565b809155613b67565b5084808080611adf565b9150611b306142c0565b916146b2565b9050611b406142c0565b90611aba565b9050611b515f61435c565b90611ab4565b90506020813d602011611b82575b81611b7260209383613913565b8101031261010a575160ff611a95565b3d9150611b65565b9150611b3061430e565b9050611b9e61430e565b90611a28565b9050611baf5f61435c565b90611a23565b9095506020929192813d602011611be9575b81611bd460209383613913565b8101031261010a575194909190611a3b611a0e565b3d9150611bc7565b506020611bfd5f61435c565b90506119bd565b9550611c0f5f61435c565b956119b6565b9050611c1f61430e565b90614656565b50611c2e61430e565b61199e565b90506020813d602011611c5d575b81611c4e60209383613913565b8101031261010a57518c611984565b3d9150611c41565b90506020823d602011611c93575b81611c8060209383613913565b8101031261010a57611940915190611936565b3d9150611c73565b506020611ca6614272565b90506118e5565b9150611cb7614272565b916118de565b50611a3d565b509050611cd460068301548561443d565b90611ce7611ce0614272565b8684614466565b916118b4565b91506020823d602011611d1b575b81611d0860209383613913565b8101031261010a579051906116b5611689565b3d9150611cfb565b90506020813d602011611d4d575b81611d3e60209383613913565b8101031261010a57518461162a565b3d9150611d31565b611d6c91611d649136916139dd565b604435613f77565b9261162d565b600e8801611d81348254613b4d565b90556101ff565b630697833b60e11b5f5260045ffd5b63ef02588960e01b5f5260045ffd5b3461010a57611db436613827565b815f526003602052611dc98160405f20613a40565b506001600160a01b038154163303611e4957825f52600260205260ff600760405f20015460401c161561073757806006600192016801000000000000000068ff0000000000000000198254161790550154916040519283527fc8aeacc9fa3bc87c1c0dbe8d7f71ae14ca2e4e465bff04dacc4e2146311ccf0a60203394a4005b63173f0e6f60e21b5f5260045ffd5b608036600319011261010a576004356001600160401b03811161010a57611e83903690600401613773565b6024356001600160401b03811161010a57611ea2903690600401613773565b611ead9291926137b6565b606435916001600160401b03831680840361010a57603c1161224c5760015494611ed686613891565b6001555f868152600260205260409020805474ffffffffffffffffffffffffffffffffffffffffff19163360081b74ffffffffffffffffffffffffffffffffffffffff001617815591600183016001600160401b03871161188257611f3b815461389f565b601f8111612207575b50865f601f82116001146121a2575f91612197575b508760011b905f198960031b1c19161790555b60028301916001600160401b03821161188257611f89835461389f565b601f8111612152575b509160209893918895935f90601f83116001146120b1576120307fc703fa7cb74dcff8c14d42740c8500e6401dc2359d3a6bfb618d05aaf4cab7f398996001600160401b03958561209b9896612087966006965f926120a6575b50508160011b915f199060031b1c19161790555b600385016001600160a01b03198154169055600160048601556005850186891687198254161790558542166138d7565b9284600782019416851985541617845534600d820155612071612051614272565b60088301908155611acd6120636142c0565b916009850192835554613b67565b5061207d858816614223565b9182910155613b67565b505416926040519384933398349386613b08565b0390a3604051908152f35b013590505f80611fec565b5f8481528c81209994939290601f198416905b81811061213857509461209b96946001857fc703fa7cb74dcff8c14d42740c8500e6401dc2359d3a6bfb618d05aaf4cab7f39c9d60069661203096612087996001600160401b039c1061211f575b505050811b019055612000565b01355f19600384901b60f8161c191690555f8080612112565b828401358c556001909b019a8d9a50918e01918e016120c4565b835f5260205f20601f840160051c8101916020851061218d575b601f0160051c01905b8181106121825750611f92565b5f8155600101612175565b909150819061216c565b90508901358a611f59565b5f8381526020812092508990601f198216905b8d8282106121ed575050106121d4575b5050600187811b019055611f6c565b8a01355f1960038a901b60f8161c1916905589806121c5565b84013585556001909401936020938401938c9350016121b5565b815f5260205f20601f890160051c81019160208a10612242575b601f0160051c01905b8181106122375750611f44565b5f815560010161222a565b9091508190612221565b6325c3636760e01b5f5260045ffd5b61010036600319011261010a576004356001600160401b03811161010a57612287903690600401613773565b6024356001600160401b03811161010a576122a6903690600401613773565b90926122b06137b6565b6080526084356001600160401b03811161010a576122d2903690600401613773565b90916122dc6137a0565b9360c43593841515850361010a5760e43593841515850361010a57603c6001600160401b0388161061224c576001549661231588613891565b6001555f888152600260205260409020805474ffffffffffffffffffffffffffffffffffffffffff19163360081b74ffffffffffffffffffffffffffffffffffffffff001617815593600185016001600160401b038b11611882578a61237b825461389f565b601f8111612739575b505f601f82116001146126d0575f916126c5575b508b60011b905f198d60031b1c19161790555b6001600160401b038111611882576123c6600286015461389f565b9a601f8c1161267d575b60209b505f90601f83116001146125ab579888966060996125366125198e9f968f999a7f72c3ac4fe53c1eff322ce53ef69712e2fd8886e576aa7d31a9ce7d7de7c8d6a29f9b61249d889f9d9b84612511956001600160401b039c7fc703fa7cb74dcff8c14d42740c8500e6401dc2359d3a6bfb618d05aaf4cab7f39f5f926125a0575b50508160011b915f199060031b1c19161760028a01555b600389016001600160a01b03198154169055600160048a0155600589018b608051168c198254161790558a42166138d7565b97896007890199168a198a541617895534600d890155600f88019081549061ff00600162ff00008b151560101b169362ffffff19161791151560081b16171790556125096124e9614272565b60088901908155611acd6124fb6142c0565b9160098b0192835554613b67565b5036916139dd565b606435613f77565b6125296006850191808355613b67565b5054806010850155613b67565b50612581575b505416612556604051928392339734926080519186613b08565b0390a360405191151582521515868201526001600160401b03608051166040820152a2604051908152f35b60116125999161258f61430e565b918291015561413d565b508d61253c565b013590505f80612454565b600287015f528c5f20915f5b601f1985168110612666575096896125366125198e9f968f999a7f72c3ac4fe53c1eff322ce53ef69712e2fd8886e576aa7d31a9ce7d7de7c8d6a29f9d9b60609f9d8f989b6001856001600160401b039c7fc703fa7cb74dcff8c14d42740c8500e6401dc2359d3a6bfb618d05aaf4cab7f39f61249d9561251199601f1981161061264d575b505050811b0160028a015561246b565b01355f19600384901b60f8161c191690555f808061263d565b90928e6001819286860135815501940191016125b7565b600286015f5260205f20601f830160051c81019c602084106126bb575b601f0160051c019b5b8c81106126b057506123d0565b5f81556001016126a3565b909c508c9061269a565b90508701358d612398565b5f8381526020812092508d90601f198216905b8b82821061271b57505010612702575b505060018b811b0190556123ab565b8801355f1960038e901b60f8161c191690558c806126f3565b60209293508495839295600192013581550194019201908e916126e3565b825f5260205f20906020601f840160051c83019310612776575b601f0160051c01905b81811061276b578c9150612384565b5f815560010161275c565b9091508190612753565b3461010a575f36600319011261010a57602061279a613f2f565b604051908152f35b3461010a57602036600319011261010a575f6102e06040516127c3816138f7565b828152826020820152606060408201526060808201528260808201528260a08201528260c08201528260e08201528261010082015282610120820152826101408201528261016082015282610180820152826101a0820152826101c0820152826101e08201528261020082015282610220820152826102408201528261026082015282610280820152826102a0820152826102c082015201526004355f52600260205260405f2060405190612877826138f7565b80549060ff82166002811015610755576011926001600160a01b0391855260081c1660208401526128aa60018201613a68565b60408401526128bb60028201613a68565b60608401526001600160a01b036003820154166080840152600481015460a08401526001600160401b0360058201541660c0840152600681015460e084015260ff60078201546001600160401b038116610100860152818160401c16151561012086015260481c161515610140840152600881015461016084015260098101546101808401526001600160401b03600a8201546001600160a01b0381166101a086015260a01c166101c08401526001600160401b03600b820154166101e0840152600c810154610200840152600d810154610220840152600e81015461024084015260ff600f8201548181161515610260860152818160081c16151561028086015260101c1615156102a084015260108101546102c084015201546102e08201526040519060208252805190600282101561075557829160208301526001600160a01b0360208201511660408301526102e0612a41612a2b6040840151610300606087015261032086019061383d565b6060840151858203601f1901608087015261383d565b916001600160a01b0360808201511660a085015260a081015160c08501526001600160401b0360c08201511660e085015260e08101516101008501526001600160401b0361010082015116610120850152610120810151151561014085015261014081015115156101608501526101608101516101808501526101808101516101a08501526001600160a01b036101a0820151166101c08501526001600160401b036101c0820151166101e08501526001600160401b036101e082015116610200850152610200810151610220850152610220810151610240850152610240810151610260850152610260810151151561028085015261028081015115156102a08501526102a081015115156102c08501526102c08101518285015201516103008301520390f35b3461010a57602060ff6006612b90612b8036613827565b905f526003855260405f20613a40565b50015460401c166040519015158152f35b3461010a575f36600319011261010a5760206040516001600160a01b037f0000000000000000000000000000000000000000000000000000000000000000168152f35b3461010a5760e0612c08612bf736613827565b905f52600360205260405f20613a40565b506001600160a01b03815416906001810154906002810154600382015460ff600484015416916001600160401b036006600586015495015416946040519687526020870152604086015260608501521515608084015260a083015260c0820152f35b3461010a57604036600319011261010a576024356001600160a01b038116810361010a576004355f5260046020526001600160a01b0360405f2091165f52602052602060ff60405f2054166040519015158152f35b3461010a57612ccd366137cc565b919392612cd8613b89565b5a7f01cda4bee0f68c8e3097058a78382fba2e374c53eb477464bca65fd2eef7339b5d835f52600260205260405f209160ff8354166002811015610755576107465760ff600f84015460081c1615610746576007830191825460ff8160401c16156107375760481c60ff1661072857612dbe6060916001600160a01b0360405191612d638584613913565b60028352601f1985013660208501376009880154612d808461397d565b526010880154612d8f8461399e565b5216966102066001600160401b038b1695604051928a6020850152876040850152604084526101ff8785613913565b600a8401805467ffffffffffffffff60a01b1987167fffffffff000000000000000000000000000000000000000000000000000000009091161760a089901b67ffffffffffffffff60a01b16179055600b8401805467ffffffffffffffff19168317905560405163b8606eef60e01b81527f00000000000000000000000000000000000000000000000000000000000000006001600160a01b031690602081600481855afa90811561052757612e8c61ffff6001600160401b0393612710935f9161330e575b501686613a2d565b041694875f52600360205260405f2054935f5b858110612f115750855469ff00000000000000000019166901000000000000000000178655604080516001600160401b03808d16825289166020820152610363918b918b9183917f19e90b87009d999a84eadec59e42f8d6eb60cb371f9aa7f9e51ef3f72e81e80f918190810161035b565b895f526003602052612f268160405f20613a40565b509060048201805460ff81166133035760ff1916600117905581546001600160a01b03168a810361321a5750612f5b83614223565b612f6481613b67565b506001600160a01b037f000000000000000000000000000000000000000000000000000000000000000016612f998183613d02565b50612fa8826003860154613d29565b612fb181613b67565b50612fbc8282613d02565b508b80156131ae576020612fdc612fd561303d93614223565b8096613d29565b612fe586613b67565b50612fef81613b67565b50612ffa8587613d02565b506130058582613d02565b50895460405163170856b560e01b815260089190911c6001600160a01b03166004820152602481019190915291829081906044820190565b03815f875af180156105275761317e575b5060405163170856b560e01b81526001600160a01b038916600482015260248101939093526020836044815f865af1918215610527576130d093602093613161575b505b6001600160a01b038654165f60405180968195829463170856b560e01b845260048401602090939291936001600160a01b0360408201951681520152565b03925af180156105275761312b575b506001600160a01b036001925416818c7fc3c93c50dc9a3409ed97610c7a5471b7f3c3ded7df7a654fee3dbfb33970fcc8896040518781525f60208201525f6040820152a45b01612e9f565b6020813d8211613159575b8161314360209383613913565b8101031261010a57506001600160a01b036130df565b3d9150613136565b61317790843d8111610520576105118183613913565b505f613090565b6020813d82116131a6575b8161319660209383613913565b8101031261010a5750602061304e565b3d9150613189565b50865460405163170856b560e01b815260089190911c6001600160a01b0316600482015260248101939093526020836044815f865af1918215610527576130d0936020936131fd575b50613092565b61321390843d8111610520576105118183613913565b505f6131f7565b600383015460405163170856b560e01b81526001600160a01b0390921660048301526024820152602081806044810103815f6001600160a01b037f0000000000000000000000000000000000000000000000000000000000000000165af18015610527576132cd575b506001600160a01b036001925416818c7fc3c93c50dc9a3409ed97610c7a5471b7f3c3ded7df7a654fee3dbfb33970fcc8896040515f81525f60208201525f6040820152a4613125565b6020813d82116132fb575b816132e560209383613913565b8101031261010a57506001600160a01b03613283565b3d91506132d8565b505060019150613125565b613327915060203d602011610721576107138183613913565b8d612e84565b60c036600319011261010a576004356001600160401b03811161010a57613358903690600401613773565b906024356001600160401b03811161010a57613378903690600401613773565b9092604435916001600160a01b03831680930361010a5760643591608435916001600160401b03831680930361010a576133b06137a0565b90603c6001600160401b0383161061224c57851561374a57841561373b576134086040516323b872dd60e01b602082015233602482015230604482015286606482015260648152613402608482613913565b876141cf565b6001549661341588613891565b60019081555f898152600260205260409020805474ffffffffffffffffffffffffffffffffffffffffff19163360081b74ffffffffffffffffffffffffffffffffffffffff00161790911781559360018501916001600160401b038211611882578190613482845461389f565b601f81116136eb575b505f90601f8311600114613684575f92613679575b50508160011b915f199060031b1c19161790555b60028301906001600160401b038111611882576134d1825461389f565b98601f8a11613634575b602099505f90601f83116001146135bf579361356c938360069461354d946001600160401b0399985f926135b4575b50508160011b915f199060031b1c19161790555b60038501896001600160a01b0319825416179055876004860155600585018787198254161790558542166138d7565b9284600782019416851985541617845534600d82015561207d86614223565b50541690604051928352858301526040820152346060820152827f22db5fc682d02008883a8955aa2205c8a782f2f6ba9bb1df12b447a9a49a0be560803393a4604051908152f35b013590508e8061350a565b601f19831691845f528b5f20925f5b81811061361d57508461354d946001600160401b0399989461356c989460069860019510613604575b505050811b01905561351e565b01355f19600384901b60f8161c191690558e80806135f7565b91938d6001819287870135815501950192016135ce565b825f5260205f20601f830160051c81019a6020841061366f575b601f0160051c01995b8a811061366457506134db565b5f8155600101613657565b909a508a9061364e565b013590508b806134a0565b909150601f19831691845f5260205f20925f5b8181106136d357509084600195949392106136ba575b505050811b0190556134b4565b01355f19600384901b60f8161c191690558b80806136ad565b91936020600181928787013581550195019201613697565b909150835f5260205f20601f840160051c81019160208510613731575b90601f859493920160051c01905b818110613723575061348b565b5f8155849350600101613716565b9091508190613708565b631f2a200560e01b5f5260045ffd5b63d92e233d60e01b5f5260045ffd5b3461010a575f36600319011261010a576020906001548152f35b9181601f8401121561010a578235916001600160401b03831161010a576020838186019501011161010a57565b60a435906001600160401b038216820361010a57565b604435906001600160401b038216820361010a57565b90608060031983011261010a57600435916024356001600160a01b038116810361010a57916044356001600160401b038116810361010a5791606435906001600160401b03821161010a5761382391600401613773565b9091565b604090600319011261010a576004359060243590565b805180835260209291819084018484015e5f828201840152601f01601f1916010190565b9181601f8401121561010a578235916001600160401b03831161010a576020808501948460051b01011161010a57565b5f198114610e8d5760010190565b90600182811c921680156138cd575b60208310146138b957565b634e487b7160e01b5f52602260045260245ffd5b91607f16916138ae565b906001600160401b03809116911601906001600160401b038211610e8d57565b61030081019081106001600160401b0382111761188257604052565b90601f801991011681019081106001600160401b0382111761188257604052565b6001600160401b0381116118825760051b60200190565b9061395582613934565b6139626040519182613913565b8281528092613973601f1991613934565b0190602036910137565b80511561398a5760200190565b634e487b7160e01b5f52603260045260245ffd5b80516001101561398a5760400190565b805182101561398a5760209160051b010190565b6001600160401b03811161188257601f01601f191660200190565b9291926139e9826139c2565b916139f76040519384613913565b82948184528183011161010a578281602093845f960137010152565b9081602091031261010a575161ffff8116810361010a5790565b81810292918115918404141715610e8d57565b805482101561398a575f52600760205f20910201905f90565b9081602091031261010a575190565b9060405191825f825492613a7b8461389f565b8084529360018116908115613ae65750600114613aa2575b50613aa092500383613913565b565b90505f9291925260205f20905f915b818310613aca575050906020613aa0928201015f613a93565b6020919350806001915483858901015201910190918492613ab1565b905060209250613aa094915060ff191682840152151560051b8201015f613a93565b91936001600160401b0360a086606096999897839560808852816080890152838801375f828288010152601f8019910116850101971660208401521660408201520152565b91908201809211610e8d57565b91908203918211610e8d57565b8015613b7b575b613b7830826143aa565b90565b50613b84614272565b613b6e565b60025f5414613b985760025f55565b633ee5aeb560e01b5f5260045ffd5b90602080835192838152019201905f5b818110613bc45750505090565b8251845260209384019390920191600101613bb7565b916020613c5c5f926001600160a01b037f9e7b61f58c47dc699ac88507c4f5bb9f121c03808c5676a8078fe583e46497025416906040519485809481936378542ead60e01b835260606004840152613c4a613c38606485018d613ba7565b8481036003190160248601528b61383d565b8381036003190160448501529061383d565b03925af1908115610527575f91613cd3575b5015613cc4577fc6366bab028b8d033cb362cfd1f2f3457ef4e92fc738b6788b90d5a7846367a091613cbf613cb192604051938493604085526040850190613ba7565b90838203602085015261383d565b0390a1565b63cf6c44e960e01b5f5260045ffd5b613cf5915060203d602011613cfb575b613ced8183613913565b810190614425565b5f613c6e565b503d613ce3565b908115613d14575b613b7890826143aa565b9050613b78613d21614272565b919050613d0a565b908115613dcd575b8015613dbb575b60209060646001600160a01b035f5160206147065f395f51905f525416935f60405195869485936303056db360e31b8552600485015260248401528160448401525af1908115610527575f91613d8c575090565b90506020813d602011613db3575b81613da760209383613913565b8101031261010a575190565b3d9150613d9a565b506020613dc6614272565b9050613d38565b9050613dd7614272565b90613d31565b3d15613e07573d90613dee826139c2565b91613dfc6040519384613913565b82523d5f602084013e565b606090565b805f52600260205260405f2090600d820191825492613e31600e830194855490613b4d565b938415613f28575f80925555613e697f01cda4bee0f68c8e3097058a78382fba2e374c53eb477464bca65fd2eef7339b5c5a90613b5a565b619c408101809111610e8d57613e80903a90613a2d565b83811115613f225750825b838080613efa575b50613e9d91613b5a565b9081613ed4575b50506040519182527fb3855cff64088353adb514ac2f746c8eb9503692a3ab75bfde04f1507f7bf8d960203393a3565b5f8080936001600160a01b0382945460081c165af150613ef2613ddd565b505f80613ea4565b5f808093508092335af1613f0c613ddd565b5015613f1a575b835f613e93565b5f9350613f13565b92613e8b565b5050505050565b46600103613f3c57600190565b4662aa36a703613f4c5761271190565b617a694614613f59575f90565b5f1990565b8015613f6e57613b7830826143aa565b50613b846142c0565b81519091901561408f57602090613fd1926001600160a01b035f5160206147065f395f51905f525416905f60405180968195829463045fc19560e11b8452600484015233602484015260806044840152608483019061383d565b6005606483015203925af1908115610527575f9161405d575b506001600160a01b037f9e7b61f58c47dc699ac88507c4f5bb9f121c03808c5676a8078fe583e46497005416803b1561010a57604051630f8e573b60e21b815260048101839052336024820152905f908290604490829084905af1801561052757614053575090565b5f613b7891613913565b90506020813d602011614087575b8161407860209383613913565b8101031261010a57515f613fea565b3d915061406b565b508015614134577f9e7b61f58c47dc699ac88507c4f5bb9f121c03808c5676a8078fe583e4649700546040516382027b6d60e01b81526004810183905233602482015290602090829060449082906001600160a01b03165afa908115610527575f91614115575b50156140ff5790565b630276b5d960e01b5f526004523360245260445ffd5b61412e915060203d602011613cfb57613ced8183613913565b5f6140f6565b50613b78614272565b801561414d57613b7830826143aa565b50613b8461430e565b8015614166575b613b78816145b4565b5061416f614272565b61415d565b919081101561398a5760051b0190565b356001600160401b038116810361010a5790565b613aa0926001600160a01b036040519363a9059cbb60e01b60208601521660248401526044830152604482526141cf606483613913565b905f602091828151910182855af115610527575f513d61421a57506001600160a01b0381163b155b6141fe5750565b6001600160a01b0390635274afe760e01b5f521660045260245ffd5b600114156141f7565b5f5160206147065f395f51905f5254604051639cd07acb60e01b815260048101929092526001600160a01b0316816044815f602094600560248401525af1908115610527575f91613d8c575090565b5f5160206147065f395f51905f5254604051639cd07acb60e01b81525f6004820152906001600160a01b0316816044815f602094600560248401525af1908115610527575f91613d8c575090565b5f5160206147065f395f51905f5254604051639cd07acb60e01b81525f6004820152906001600160a01b0316816044815f602094600760248401525af1908115610527575f91613d8c575090565b5f5160206147065f395f51905f5254604051639cd07acb60e01b81525f6004820152906001600160a01b0316816044815f602094600460248401525af1908115610527575f91613d8c575090565b5f5160206147065f395f51905f5254604051639cd07acb60e01b815260048101929092526001600160a01b0316816044815f6020948160248401525af1908115610527575f91613d8c575090565b6001600160a01b037f9e7b61f58c47dc699ac88507c4f5bb9f121c03808c5676a8078fe583e4649700541691823b1561010a57604051635ca4b5b160e11b815260048101929092526001600160a01b03166024820152905f908290604490829084905af180156105275761441b5750565b5f613aa091613913565b9081602091031261010a5751801515810361010a5790565b90613b78918015614458575b81614656579050611c1f614272565b50614461614272565b614449565b90613b7892918015614499575b8115614489575b826146b2579150611b30614272565b9050614493614272565b9061447a565b506144a35f61435c565b614473565b90811561451e575b801561450b575b60209060646001600160a01b035f5160206147065f395f51905f525416935f604051958694859363d99882d560e01b8552600485015260248401528160448401525af1908115610527575f91613d8c575090565b5060206145175f61435c565b90506144b7565b90506145295f61435c565b906144b0565b9081156145a4575b8015614592575b60209060646001600160a01b035f5160206147065f395f51905f525416935f6040519586948593630d8c635960e21b8552600485015260248401528160448401525af1908115610527575f91613d8c575090565b50602061459d614272565b905061453e565b90506145ae614272565b90614537565b60408051916145c38284613913565b60018352601f1982013660208501376145db8361397d565b526001600160a01b037f9e7b61f58c47dc699ac88507c4f5bb9f121c03808c5676a8078fe583e46497005416803b1561010a578151637d6e912360e11b815260206004820152925f91849182908490829061463a906024830190613ba7565b03925af190811561464d575061441b5750565b513d5f823e3d90fd5b5f5160206147065f395f51905f52546040516385362ee760e01b8152600481019290925260248201929092525f604482018190529091602091839160649183916001600160a01b03165af1908115610527575f91613d8c575090565b9060646020925f6001600160a01b035f5160206147065f395f51905f5254166040519687958694637702dcff60e01b86526004860152602485015260448401525af1908115610527575f91613d8c57509056fe9e7b61f58c47dc699ac88507c4f5bb9f121c03808c5676a8078fe583e4649701a264697066735822122067338c72e7e186938ee7a5fd285e13440291b44504e17c37764670a95d5d6bb764736f6c634300081b0033","linkReferences":{}},"methodIdentifiers":{"auctionCount()":"2ad71573","bidCount(uint256)":"b9a958b4","bidRevealed(uint256,uint256)":"627a2b39","cUSDC()":"ce347a3e","confidentialProtocolId()":"8927b030","createAuctionItem(string,string,uint64,uint64)":"976458e2","createAuctionToken(string,string,address,uint256,uint64,uint64)":"2ce8f488","createSealedAuctionItem(string,string,uint64,bytes32,bytes,uint64,bool,bool)":"8c4569ae","endAuction(uint256)":"b9a2de3a","finalizeAuctionItem(uint256,address,uint64,bytes)":"e6985c25","finalizeAuctionToken(uint256,uint64[],uint64[],bytes)":"d0bb54e8","finalizeSealedAuctionItem(uint256,address,uint64,bytes)":"3dc0df15","getAuction(uint256)":"78bd7935","getBid(uint256,uint256)":"582c7ffd","hasBid(uint256,address)":"449e8812","nextAuctionId()":"fc528482","placeBid(uint256,bytes32,bytes32,bytes,bytes)":"b9075d02","revealMyBid(uint256,uint256)":"9dff1af8","treasury()":"61d027b3"},"id":95}